:020000040800F2
:10400000001A002089410008056F0008496E000869
:10401000016F00087D4C0008D977000800000000FF
:10402000000000000000000000000000B572000861
:10403000A54C000800000000A5710008AD41000873
:10404000A3410008A3410008A3410008A3410008C0
:10405000A3410008A3410008A3410008A3410008B0
:10406000A3410008A3410008A3410008A3410008A0
:10407000A3410008A3410008A3410008A341000890
:10408000A3410008A3410008A3410008A341000880
:10409000A3410008A3410008A3410008A341000870
:1040A000A3410008A3410008A3410008A341000860
:1040B00081750008BD750008A3410008A3410008F0
:1040C000A3410008A3410008A3410008A341000840
:1040D000A34100085D760008A3410008A341000841
:1040E000A3410008A3410008A3410008000000000C
:1040F00000000000000000000000000000000000C0
:1041000000000000A3410008A341000800000000D7
:10411000A3410008A34100080000000000000000C7
:10412000A3410008A3410008A3410008A3410008DF
:10413000000000000000000000000000000000007F
:10414000000000000000000000000000A341000883
:104150000000000000000000A3410008A341000887
:10416000000000000000000000000000A341000863
:10417000DFF810D000F09CFC00F09AF800480047EF
:1041800039C60008001A0020064880470648004744
:10419000FEE7FEE7FEE7FEE7FEE7FEE7FEE7FEE7F7
:1041A000FEE7FEE7AD7400087141000830B410B5B9
:1041B0000348804730BCAE4630BC024800477047D9
:1041C00069CB0008B97200082DE9F05F05460020B0
:1041D00092469B4688460646814640241BE0284678
:1041E00041464746224600F0ACFB53465A46C01AA9
:1041F000914110D311461846224600F093FB2D1A28
:1042000067EB01084F4622460120002100F08AFB9F
:1042100017EB00094E41201EA4F10104DFDC4846E3
:1042200031462A464346BDE8F09F2DE9F04100247F
:10423000061B254671F1000605DA01240027D0EBA4
:10424000070067EB0101161E73F1000605DA00276F
:10425000D2EB0702012567EB0303FFF7B5FF8646A4
:104260000E4617469C46AC4204D00025D0EB050E06
:1042700065EB010624B10020D2EB000760EB030CD4
:10428000704631463A466346BDE8F081D2B201E05D
:1042900000F8012B491EFBD270470022F6E710B54B
:1042A00013460A4604461946FFF7F0FF204610BDA4
:1042B0007CB507480090074801900546009C04E043
:1042C0002046016808448047241DAC42F8D17CBDDB
:1042D0005009010854090108F0B480EA0102D40F22
:1042E0004200B2EB410F02D20246084611464A0094
:1042F00042D0C30DDDB2C1F3C752AD1A202D35DA5D
:10430000C1F3160141F4000204B15242C5F1200686
:1043100002FA06F12A411044B3EBD05F23D0C4B1B6
:10432000012DA0EBC35009DCF0BC4FF0004202EAC3
:10433000C352DBB200F5000000F02EBB400000F1DC
:10434000807000EBC350A0F1807040EAD17049004A
:1043500009E0490841EAC071A0EBC35000F5000034
:10436000400800EBC350F0BC00F00DBB61420122DD
:1043700002EB4101001BF6E7F0BC704781F0004101
:10438000AAE780F00040A7E780EA010210B502F03A
:104390000043400022D04A001FD0010E01EB126101
:1043A000C0F35600C2F3560240F4000042F400028B
:1043B000A0FB022000047F39140400D0401C50EA06
:1043C000124001D44000491EC2B20C0604EBD010CA
:1043D000401C4008802A02D003E0002010BD20F0DD
:1043E0000100002900DA0020184310BD30B480EA33
:1043F000010202F0004530F0004221F0004013D0ED
:1044000090B1C30DD40DC2F31601C0F31600E41A27
:1044100041F4000140F400027D34914201D3641C58
:1044200000E04900002C02DA30BC002070474FF455
:1044300000000023914201D3891A034340084FEA48
:104440004101F7D151B1914202D14FF0004105E055
:1044500002D24FF0010101E06FF0010103EBC45003
:10446000284430BC00F08FBA2DE9FE4F804681EA27
:104470000300C00F0C46009021F0004123F00045DE
:10448000B8EB0200A94105D24046214690461C46A1
:104490000B46024623F00040104347D0270DC7F3D8
:1044A0000A00C3F30A510290401A019040286BDAC7
:1044B000C3F3130040F4801B0098924620B1002300
:1044C000D2EB030A63EB0B0B01985946C0F1400293
:1044D000504600F027FA06460D4650465946019AC6
:1044E00000F03FFA10EB08006141002487EA115206
:1044F00084EAE7731A4340D0009A62B3019A012A12
:104500004FEA075215DC001B61EB02014FF000423D
:1045100002EA0752CDE90042001C41F58011324603
:104520002B4600F076FA03B0BDE8F08F40462146F6
:10453000F9E7001B61EB0201001C41F58013001834
:104540005B412018A2F5001747EB030140EAD57044
:10455000B6196D4111E06D084FEA360645EAC0759F
:104560004FEA0752001B61EB0201001C41F580116C
:1045700049084FEA30000019514132462B4603B03A
:10458000BDE8F04F00F036BA009801224000002349
:10459000D0EB020263EBE073009821464FEAE0742F
:1045A000B8EB000061EB0401E9E783F000435BE74F
:1045B00081F0004158E72DE9FE4F81EA030404F041
:1045C000004421F0004100944FF0000B23F0004321
:1045D00050EA01045ED052EA03045BD0C3F30A54EC
:1045E000C1F30A552C44A4F2F3340194A0FB025405
:1045F000C1F3130141F48011C3F3130343F4801397
:1046000001FB024400FB034E840A970A44EA8154EA
:1046100047EA8357A4FB076802958D0A05FB0785C7
:104620004FEA932C04FB0C542705029D4FEA0658D1
:1046300047EA1637B5EB08056EEB070C870E920EAE
:1046400047EA811742EA8312A7FB0201B6EB0B018E
:1046500064EB00042B0D43EA0C335E1844EB1C5052
:10466000DA465146E7FB0201C5F313044FEA0B3368
:1046700043EA14534FEA0432019C43EA0603A4F1CF
:104680000C040294009CCDE900B400F0C2F903B020
:10469000BDE8F08F00200146F9E72DE9F04D81EAF1
:1046A000030404F0004B21F0004514464FF0000ACB
:1046B00023F0004150EA050220D054EA01021DD047
:1046C000C5F30A570246C5F31303C1F31300C1F340
:1046D0000A5640F4801543F48013A7EB0608101B1C
:1046E000D64608F2FD3873EB050002D308F1010845
:1046F00001E092185B41B8F1000F03DA0020014697
:10470000BDE8F08D00204FF48011064684460EE08F
:10471000171B73EB050705D3121B63EB0503064359
:104720004CEA010C49084FEA300092185B4150EA0C
:104730000107EDD152EA030012D082EA040083EAB5
:104740000501084305D0101BAB4106D2012200230E
:1047500006E000224FF0004302E06FF00102531028
:104760001AEB06004CEB085110EB0A0041EB0B0171
:10477000BDE8F04D00F03EB9002801DBC0F100407B
:10478000002901DBC1F10041814201D801207047BD
:1047900000207047002801DBC0F10040002901DB48
:1047A000C1F10041814201D20120704700207047D1
:1047B000002801DBC0F10040002901DBC1F100410C
:1047C000814201D30120704700207047002801DB9F
:1047D000C0F10040002901DBC1F10041814201D953
:1047E0000120704700207047002801DBC0F1004025
:1047F000002901DBC1F10041814201D10120704754
:1048000000207047C10F80EAE0700844CA07962371
:10481000002100F0C1B896230022114600F0BCB878
:104820000EB540F2334102910021CDE900110A4654
:104830000B4600F0EEF803B000BD00F0004220F09F
:104840000040C10DC0F3160040F400007F2901DADA
:1048500000207047962903DCC1F19601C84001E0B1
:1048600096398840002AF4D04042704720F000403A
:10487000C10DC0F3160040F400007F2901DA0020CA
:104880007047962903DCC1F19601C84070479639FC
:1048900088407047C1F30A5210B5C1F3130140F2CA
:1048A000FF3341F480119A4201DA002010BD40F23A
:1048B00033439A42A2F2334203DC524200F041F801
:1048C00010BD904010BD00F0004230F000400AD012
:1048D000C10D01F56071C0F3160042EA0151C20832
:1048E00040071143704700200146704701F0004324
:1048F00030B421F0004150EA010206D00A0DA2F5C1
:104900006072C1F31301002A02DC30BC0020704742
:10491000440F44EAC104C100E01830BC00EBC250AF
:1049200000F031B8202A04DB203A00FA02F100201E
:1049300070479140C2F1200320FA03F319439040DD
:104940007047202A04DB203A21FA02F00021704748
:1049500021FA02F3D040C2F12002914008431946E7
:104960007047202A06DBCB17203A41FA02F043EACF
:10497000E07306E041FA02F3D040C2F12002914018
:104980000843194670470029A8BF7047401C4900DA
:1049900008BF20F00100704710B4B0FA80FC00FAA4
:1049A0000CF050EA010404BF10BC704749B1CCF1CF
:1049B000200421FA04F411FA0CF118BF012121435B
:1049C0000843A3EB0C01CB1D4FEA00614FEA102016
:1049D00042BF002010BC704700EBC35010440029B8
:1049E000A4BF10BC7047401C490008BF20F0010064
:1049F00010BC704710B5141E73F1000408DA401C97
:104A000041F1000192185B411A4301D120F00100ED
:104A100010BD2DE9F04D92469B4611B1B1FA81F2DD
:104A200002E0B0FA80F220329046FFF77BFF0446A6
:104A30000F4640EA0A0041EA0B0153465A46084332
:104A400013D0114653EA010019D0C8F14002504674
:104A5000FFF777FF05460E46504659464246FFF798
:104A600061FF084305D0012004E020463946BDE837
:104A7000F08D0020054346EAE0762C4337430A9840
:104A80006305E40AA0EB08000022FD0A44EA47544B
:104A90000A3002D500200146E9E7010510196941F5
:104AA000DDE9084500196941BDE8F04DA2E70000C5
:104AB0001CB509480090094801900546009C06E095
:104AC000E06840F0010394E8070098471034AC42D6
:104AD000F6D3FFF751FB0000300901085009010827
:104AE00070B58C1810F8015B15F0070301D110F8B0
:104AF000013B2A1106D110F8012B03E010F8016BDD
:104B000001F8016B5B1EF9D12B0705D40023521E5F
:104B10000DD401F8013BFAE710F8013BCB1A921CC7
:104B200003E013F8015B01F8015B521EF9D5A142C5
:104B3000D8D3002070BD000080B582B041F2705023
:104B4000C2F20000019040F24731C2F200014FF47E
:104B50008062009208F0C8F8009A0198103040F284
:104B60004771C2F2000108F0BFF8019943F6000056
:104B7000C4F20100086202B080BD000080B582B0BE
:104B80000190019800790146009140B1FFE700983B
:104B9000012826D0FFE70098022852D06BE0019848
:104BA000C06880470198407950B9FFE7019901201A
:104BB000087140F28021C2F20001052008705AE01D
:104BC0000198407901280AD1FFE701990120087175
:104BD00040F28021C2F20001642008704BE0FFE740
:104BE00049E001988068804740F28021C2F20001CC
:104BF000087801380870000610BBFFE70199022011
:104C000008710198407950B9FFE7019902200871B5
:104C100040F28021C2F20001052008702BE00198CB
:104C2000407901280AD1FFE701990220087140F27A
:104C30008021C2F20001642008701CE0FFE7FFE75A
:104C400019E00198C068804740F28021C2F200015B
:104C5000087801380870000660B9FFE70199002064
:104C60000871019A0221517140F28021C2F20001C3
:104C7000087000E0FFE702B080BD0000FFE7FEE73C
:104C800080B582B040F60040C4F2010001904FF4BC
:104C9000236107F0D9F801984FF4E47107F0CAF8DE
:104CA00002B080BD7047000080B582B08DF807006B
:104CB0009DF80700014600910A2800F2AD81009995
:104CC000DFE811F00B0014006700BA00E2000A01EF
:104CD00032015A018B019601A00140F24131C2F22A
:104CE00000010F2008704870887096E141F2303062
:104CF000C2F2000090F80A0168B9FFE741F23030D3
:104D0000C2F20000406CFFF798FD40F28421C2F22D
:104D10000001088016E041F23030C2F2000090F845
:104D20000A0101280DD1FFE741F23030C2F2000044
:104D3000C06CFFF782FD40F28421C2F200010880BE
:104D4000FFE7FFE740F28420C2F20000018845F649
:104D50002942C0F28F22A1FB021240F24131C2F27D
:104D600000010A70038849F69A12C1F69912A3FB52
:104D700002C3A3FB02EC0CEB8C0CA3EB4C034B70BB
:104D80000088A0FB023202EB8202A0EB4200887096
:104D900043E141F23030C2F2000090F80A0168B9F4
:104DA000FFE741F23030C2F20000806DFFF745FDB1
:104DB00040F28421C2F20001088016E041F2303056
:104DC000C2F2000090F80A0101280DD1FFE741F27C
:104DD0003030C2F20000006EFFF72FFD40F2842158
:104DE000C2F200010880FFE7FFE740F28420C2F230
:104DF0000000018845F62942C0F28F22A1FB021271
:104E000040F24131C2F200010A70038849F69A1259
:104E1000C1F69912A3FB02C3A3FB02EC0CEB8C0CB2
:104E2000A3EB4C034B700088A0FB023202EB820222
:104E3000A0EB42008870F0E041F23030C2F2000096
:104E400090F80A0138B9FFE740F24131C2F200019F
:104E50000A20487010E041F23030C2F2000090F8B1
:104E60000A01012807D1FFE740F24131C2F20001F7
:104E70000C204870FFE7FFE740F24131C2F2000129
:104E80000F2008708870C8E041F23030C2F2000094
:104E900090F80C0101280BD1FFE740F24131C2F23A
:104EA000000113200870002048700E20887012E066
:104EB00041F23030C2F2000090F80C0150B9FFE727
:104EC00040F24131C2F20001002008700C2048700D
:104ED0008870FFE7FFE7A0E041F23030C2F2000047
:104EE00090F80E0101280BD1FFE740F24131C2F2E8
:104EF000000113200870002048700E20887012E016
:104F000041F23030C2F2000090F80E0150B9FFE7D4
:104F100040F24131C2F20001002008700C204870BC
:104F20008870FFE7FFE778E041F23030C2F200001E
:104F300090F8100158B9FFE740F24131C2F2000188
:104F400013200870002048700E20887013E041F292
:104F50003030C2F2000090F8100101280AD1FFE7BA
:104F600040F24131C2F20001002008700C2048706C
:104F70008870FFE7FFE750E041F23030C2F20000F6
:104F8000D0F88000FFF759FC014640F28220C2F2BF
:104F900000000180018845F62942C0F28F22A1FB62
:104FA000021240F24131C2F200010A70038849F650
:104FB0009A12C1F69912A3FB02C3A3FB02EC0CEBFD
:104FC0008C0CA3EB4C034B700088A0FB023202EB6D
:104FD0008202A0EB420088701FE040F24131C2F231
:104FE000000101200870002048700220887014E041
:104FF00040F24131C2F200010120087000224A70E3
:1050000088700AE040F24131C2F200010F200870BE
:1050100014224A70887000E0FFE741F23030C2F29B
:10502000000090F8160105F021FA02B080BD0000E2
:1050300080B584B08DF80F008DF80E108DF80D201E
:105040009DF80E0001460291042800F20E8102999B
:10505000DFE811F005007500E200F200FB0041F20C
:105060003030C2F20000016B406BFFF7BDFB50B166
:10507000FFE741F23030C2F20000816BC06BFFF7F6
:10508000B3FBA8BBFFE741F23030C2F2000090F85A
:105090000A0168B9FFE741F23030C2F20000006B4C
:1050A000FFF7CBFB40F28A21C2F20001088016E034
:1050B00041F23030C2F2000090F80A0101280DD10F
:1050C000FFE741F23030C2F20000806BFFF7B5FB22
:1050D00040F28A21C2F200010880FFE7FFE741F2B7
:1050E0003031C2F20001086B4863886BC863FFE788
:1050F00040F28A20C2F20000018845F62942C0F23F
:105100008F22A1FB021240F24431C2F200010A7068
:10511000038849F69A12C1F69912A3FB02C3A3FBB6
:1051200002EC0CEB8C0CA3EB4C034B700088A0FB47
:10513000023202EB8202A0EB4200887096E040F25D
:105140000100C2F2000001780139017000780028E6
:105150003BDCFFE741F23030C2F2000090F80A0178
:1051600068B9FFE741F23030C2F200000069FFF792
:1051700064FB40F28A21C2F20001088024E041F27F
:105180003030C2F2000090F80A0101281BD1FFE77D
:1051900041F23030C2F2000000690021C4F2101167
:1051A000FFF7F2F80021C4F2A001FFF71FF94FF05A
:1051B0008441FFF791F8FFF740FB40F28A21C2F2E9
:1051C00000010880FFE7FFE7FFE740F28A20C2F214
:1051D0000000018845F62942C0F28F22A1FB02128D
:1051E00040F24431C2F200010A70038849F69A1273
:1051F000C1F69912A3FB02C3A3FB02EC0CEB8C0CCF
:10520000A3EB4C034B700088A0FB023202EB82023E
:10521000A0EB4200887029E040F24431C2F2000164
:105220000B2008701420487041F23030C2F20000A8
:1052300090F80601887019E040F24431C2F2000192
:105240000F2008704870887010E040F24431C2F2BC
:1052500000010A2008700D20487041F23030C2F27F
:10526000000090F8E900887000E0FFE79DF80F006B
:1052700001460191042800F20E810199DFE811F046
:1052800005007500E200F200FB0041F23030C2F28E
:105290000000016A406AFFF7A7FA50B1FFE741F248
:1052A0003030C2F20000816AC06AFFF79DFAA8BBE5
:1052B000FFE741F23030C2F2000090F80A0168B90D
:1052C000FFE741F23030C2F20000006AFFF7B5FAA2
:1052D00040F28821C2F20001088016E041F230302D
:1052E000C2F2000090F80A0101280DD1FFE741F257
:1052F0003030C2F20000806AFFF79FFA40F2882146
:10530000C2F200010880FFE7FFE741F23031C2F24C
:105310000001086A4862886AC862FFE740F2882094
:10532000C2F20000018845F62942C0F28F22A1FB9B
:10533000021240F23E31C2F200010A70038849F6BF
:105340009A12C1F69912A3FB02C3A3FB02EC0CEB69
:105350008C0CA3EB4C034B700088A0FB023202EBD9
:105360008202A0EB4200887096E040F20000C2F298
:105370000000017801390170007800283BDCFFE76C
:1053800041F23030C2F2000090F80A0168B9FFE73C
:1053900041F23030C2F200000068FFF74EFA40F2EE
:1053A0008821C2F20001088024E041F23030C2F2CC
:1053B000000090F80A0101281BD1FFE741F23030CC
:1053C000C2F2000000680021C4F21011FEF7DCFFF9
:1053D0000021C4F2A001FFF709F84FF08441FEF765
:1053E0007BFFFFF72AFA40F28821C2F20001088011
:1053F000FFE7FFE7FFE740F28820C2F200000188E4
:1054000045F62942C0F28F22A1FB021240F23E3142
:10541000C2F200010A70038849F69A12C1F6991285
:10542000A3FB02C3A3FB02EC0CEB8C0CA3EB4C0321
:105430004B700088A0FB023202EB8202A0EB42001C
:10544000887029E040F23E31C2F200010B20087062
:105450001420487041F23030C2F2000090F804018C
:10546000887019E040F23E31C2F200010F2008704E
:105470004870887010E040F23E31C2F200010A200C
:1054800008700D20487041F23030C2F2000090F8F0
:10549000E800887000E0FFE79DF80D0001460091EC
:1054A000042800F2A4800099DFE801F00345878812
:1054B000910041F23030C2F20000D0F8B810D0F8BC
:1054C000BC00FFF791F9A8BBFFE741F23030C2F210
:1054D0000000D0F8B810C0F8BC10D0F8B800FFF742
:1054E000ACF9014640F28620C2F20000018001883A
:1054F00045F62942C0F28F22A1FB021240F23B3155
:10550000C2F200010A70038849F69A12C1F6991294
:10551000A3FB02C3A3FB02EC0CEB8C0CA3EB4C0330
:105520004B700088A0FB023202EB8202A0EB42002B
:105530008870FFE75CE041F23030C2F20000D0F842
:10554000C410D0F8C800FFF74FF9A8BBFFE741F23D
:105550003030C2F20000D0F8C410C0F8C810D0F843
:10556000C400FFF76AF9014640F28620C2F200004B
:105570000180018845F62942C0F28F22A1FB021268
:1055800040F23B31C2F200010A70038849F69A12D8
:10559000C1F69912A3FB02C3A3FB02EC0CEB8C0C2B
:1055A000A3EB4C034B700088A0FB023202EB82029B
:1055B000A0EB42008870FFE71AE019E040F23B31AF
:1055C000C2F200010F2008704870887010E040F2AD
:1055D0003B31C2F200010A2008700D20487041F2F0
:1055E0003030C2F2000090F8E800887000E0FFE779
:1055F00004F0ACFD41F23030C2F20000D0F8EC0013
:10560000C0B3FFE741F23030C2F20000D0F8EC1036
:105610000139C0F8EC1090F8F800C00740B9FFE776
:1056200041F23031C2F20001002081F81201FFE79F
:1056300041F23030C2F20000D0F8EC00002818DC53
:10564000FFE741F23030C2F200000021C0F8EC1058
:10565000012180F8121190F8F800C00740B1FFE76F
:1056600041F23031C2F20001002081F8F800FFE77A
:10567000FFE7FFE741F23030C2F20000D0F8F0005F
:10568000C0B3FFE741F23030C2F20000D0F8F010B2
:105690000139C0F8F01090F8F900C00740B9FFE7F1
:1056A00041F23031C2F20001002081F81401FFE71D
:1056B00041F23030C2F20000D0F8F000002818DCCF
:1056C000FFE741F23030C2F200000021C0F8F010D4
:1056D000012180F8141190F8F900C00740B1FFE7EC
:1056E00041F23031C2F20001002081F8F900FFE7F9
:1056F000FFE7FFE741F23030C2F20000D0F8F400DB
:10570000E0B1FFE741F23030C2F20000D0F8F4100F
:105710000139C0F8F410002180F81311D0F8F4001A
:1057200000280ADCFFE741F23031C2F2000100201C
:10573000C1F8F40081F81301FFE7FFE704B080BD72
:1057400080B582B040F60040C4F2010001904FF4F1
:10575000036106F079FB01984FF4727106F06AFB61
:1057600002B080BD80B586B004908DF80F10002087
:105770008DF80E000498408E4FF6FE71884205DCCD
:10578000FFE70499488E01304886FFE79DF90F0036
:10579000033001460291062834D80299DFE801F06F
:1057A0002B32143204322400049800F0F5F80499E6
:1057B00081F83400049890F834100120012908BFC2
:1057C00009208DF80E001EE0049800F0E5F8049919
:1057D00081F83400049890F834100220012908BFA1
:1057E0000A208DF80E000EE003208DF80E000498BC
:1057F00000F0FCF807E004208DF80E00049800F09B
:10580000F5F800E0FFE7049890F82700B0FA80F080
:1058100040098DF80D00049890F82D10002001909B
:1058200049B9FFE7049890F827000138B0FA80F0F2
:1058300040090190FFE7019800F001008DF80C008D
:10584000049991F8270081F82D00049890F8300011
:1058500068B1FFE79DF80C0020B1FFE7049800F065
:10586000C5F8FFE79DF80E008DF817008FE004984B
:10587000408D012816DBFFE70499488D01384885E3
:105880000498408D68B9FFE7049890F82C0001282F
:1058900007D1FFE705208DF80E00049800F0A6F868
:1058A000FFE7FFE79DF80D0000283FD0FFE70499D0
:1058B000088D013008850499088D098B884219D11B
:1058C000FFE70498408D01280EDBFFE7049890F86D
:1058D0002C00012808D1FFE706208DF80E0004995E
:1058E000012081F8300004E00499012081F82C00A7
:1058F000FFE7FFE70499088D498B884215DBFFE736
:105900000499C88D0130C8850498C28DC18BB2FB43
:10591000F1F000FB112038B9FFE704990020C88599
:1059200008208DF80E00FFE7FFE72BE09DF80C0044
:1059300038B3FFE70499088D098B88421DDBFFE728
:105940000499088D498B88420FDAFFE7049890F894
:105950002C00012808D1FFE70498408D20B9FFE70B
:105960000499888B4885FFE706E007208DF80E0034
:10597000049800F03BF8FFE7FFE704990020088552
:10598000FFE7FFE79DF80E008DF81700FFE79DF891
:10599000170006B080BD000082B000900099488ECC
:1059A000098C884207DAFFE7009900204886012029
:1059B0008DF8070005E00099002048868DF8070063
:1059C000FFE79DF8070002B07047000080B582B085
:1059D0000190ADF802100198BDF8021006F0F2FA3D
:1059E0000138B0FA80F0400902B080BD81B000906B
:1059F00000990020088500994885009981F82C00BD
:105A00000099C885009981F8300001B07047000006
:105A100080B582B0019000208DF8030001990868DC
:105A20008988FFF7D3FF40F28C21C2F20001087091
:105A3000019988688989FFF7C9FF40F28D21C2F278
:105A40000001087001990869898AFFF7BFFF0146C4
:105A500040F28E20C2F2000001700178019A82F8B3
:105A600027100078019981F826000198807DA8BB55
:105A7000FFE740F28C20C2F200000078019991F813
:105A80002410884229D0FFE740F28C20C2F20000A7
:105A9000007888B9FFE740F28D20C2F2000000785C
:105AA000012804D1FFE701208DF8030003E0FF2067
:105AB0008DF80300FFE7FFE740F28C20C2F2000000
:105AC0000078019981F8240040F28D20C2F2000094
:105AD0000078019981F82500FFE7CBE040F28C20A7
:105AE000C2F200000078019991F82410884200F079
:105AF000C080FFE740F28C20C2F20000007801284D
:105B000053D1FFE7019890F8250001280BD1FFE75A
:105B100040F28D20C2F20000007820B9FFE701209A
:105B20008DF8030040E0019890F8250060B9FFE788
:105B300040F28D20C2F200000078012804D1FFE776
:105B4000FF208DF803002EE0019890F8250040F228
:105B50008D21C2F20001097888420BD1FFE740F2A3
:105B60008D20C2F20000007820B9FFE701208DF8F7
:105B7000030017E0019890F8250040F28D21C2F251
:105B80000001097888420CD1FFE740F28D20C2F273
:105B900000000078012804D1FFE7FF208DF8030002
:105BA000FFE7FFE7FFE7FFE752E0019890F82500E5
:105BB00001280BD1FFE740F28D20C2F200000078EF
:105BC00020B9FFE7FF208DF8030040E0019890F82E
:105BD000250060B9FFE740F28D20C2F20000007896
:105BE000012804D1FFE701208DF803002EE0019881
:105BF00090F8250040F28D21C2F200010978884218
:105C00000BD1FFE740F28D20C2F20000007820B9EE
:105C1000FFE7FF208DF8030017E0019890F82500BA
:105C200040F28D21C2F20001097888420CD1FFE7D1
:105C300040F28D20C2F200000078012804D1FFE775
:105C400001208DF80300FFE7FFE7FFE7FFE7FFE72D
:105C500040F28C20C2F200000078019981F8240003
:105C600040F28D20C2F200000078019981F82500F1
:105C7000FFE7FFE740F28E20C2F200000078E8B9AB
:105C8000FFE79DF9030020B9FFE702208DF803002C
:105C900013E09DF90300012804D1FFE703208DF8EC
:105CA000030009E09DF90300013020B9FFE7FD2062
:105CB0008DF80300FFE7FFE7FFE7FFE79DF903002B
:105CC00002B080BD80B586B041F20000C2F2000093
:105CD00080690390FFE700F01BFA04900498039991
:105CE00088422CD2FFE7EFF31080059005980290D0
:105CF00072B641F20000C2F2000080690190019882
:105D0000039988420ED1FFE7049841F20001C2F2E4
:105D100000018861086901300861BFF35F8F0120CD
:105D2000009002E000200090FFE7029810B9FFE722
:105D300062B6FFE7009808B9FFE701E00CE0FFE773
:105D4000049A41F20000C2F20000183003A903F0E7
:105D500061F90028BFD0FFE7049806B080BD0000BD
:105D600080B58CB00A90099108920793072005909E
:105D7000FFE70598002863D0FFE701F049F8049099
:105D8000049800F03F0140F68030C2F2000000EBC2
:105D90000110069004994FF4700000EA81300190E0
:105DA0000A9801990843099A4FF0805101EAD201FB
:105DB0000843089A4FF0005101EA92010843079AFC
:105DC0004FF0804101EA5201084340F00060039027
:105DD00006980C30039901F04DF803909DF80F00E0
:105DE0004007002827D5FFE7039880F00040039084
:105DF000039800F000400290099820F000400299BA
:105E0000084306990860089820F00040029908436A
:105E100006994860079820F00040029908430699C7
:105E2000886006980C30039901F0AAFC01F018F87C
:105E300001200B9009E0FFE705980138059098E7ED
:105E400001F004F800200B90FFE70B980CB080BD28
:105E500087B00590049103920498FE2804D8FFE7C8
:105E60000398FF2803D3FFE70020069036E00020C8
:105E700002900190FFE7019803282CD8FFE70598CE
:105E80000199C840C007F0B1FFE704980090FFE710
:105E900000980399884215D8FFE7009901F007029E
:105EA000012000FA02F3029800EBD10240F6807163
:105EB000C2F20001885C18438854FFE70098013063
:105EC0000090E5E7FFE7029820300290FFE7019895
:105ED00001300190CFE701200690FFE7069807B058
:105EE0007047000080B58AB00990089141F2000126
:105EF000C2F2000101910020087040F68070C2F2E9
:105F000000008021FEF7C9F940F6D800C0F6010074
:105F1000182103F091FC01460198ADF81A10006AAF
:105F200042F26B71CEF2A51188420FD0FFE741F229
:105F30000001C2F2000142F26B70CEF2A5100862BD
:105F4000BDF81A0048800120C8611CE041F2000041
:105F5000C2F200004088BDF81A1088420AD0FFE75C
:105F6000BDF81A0041F20001C2F200014880012090
:105F7000C86107E041F20001C2F20001C8690130C6
:105F8000C861FFE7FFE741F20000C2F20000C0690C
:105F9000012812D1FFE741F20001C2F20001002006
:105FA000487048608860C86040F68030C2F20000E7
:105FB0004FF48061FEF771F920E000200290FFE7C6
:105FC00002983F2819D8FFE7029940F68030C2F2C4
:105FD000000000EB011007900798C07B40070028E5
:105FE00006D5FFE70799C86820F04060C860FFE762
:105FF000FFE7029801300290E2E7FFE741F200007C
:10600000C2F20000C069012817D1FFE700F088F84C
:106010000490049820B1FFE700F07EF8059002E0BC
:1060200000200590FFE7059841F20001C2F200014F
:10603000486100208861086116E000F071F8049062
:10604000049820B1FFE700F067F8059002E0002017
:106050000590FFE7059841F20001C2F20001486196
:10606000002088610861FFE7049838B3FFE70998CA
:106070000021FE220092FFF7EBFE0F20EF221146D7
:10608000FFF7E6FE009A04201146FFF7E1FEFFF756
:1060900019FE0390039941F20000C2F20000436927
:1060A000C2694FF60070C0F20030FFF759FE089841
:1060B00018B1FFE700F006F8FFE7FFE704980AB021
:1060C00080BD000080B584B041F20000C2F2000043
:1060D000007818B1FFE70120039015E041F20001BC
:1060E000C2F20001012001900870FFF7EBFD029061
:1060F00002994FF60170C0F2003000231A46FFF7F4
:106100002FFE01980390FFE7039804B080BD0000C4
:1061100080B505F047FE80BD80B506F0E3FC80BD8C
:106120000120704780B582B040F60040C4F2010003
:1061300001904FF4076105F087FE01984FF46271FA
:1061400005F078FE02B080BDB0B581B00090009936
:106150000020086000990023C4F2BE330B62009A4D
:106160000021C4F233419162009A1061009A1363D6
:10617000009A91630099A1F8900000990864009931
:1061800048640099C864009A012182F80011009ABD
:1061900082F80401009A82F8FC00009AC2F880009C
:1061A000009A82F80A01009A82F80C11009A82F88B
:1061B0000E01009A82F81001009A82F81201009AEA
:1061C00082F81401009A82F81301009A82F8E8001C
:1061D000009A82F8E900009AD066009A5067009A07
:1061E00040F2000EC4F2A03EC2F894E0009A40F2E1
:1061F000000CC4F2AF3CC2F898C0009AC2F89C30C0
:10620000009C0022C4F22022C4F8AC20009C002292
:10621000C4F24822C4F8B020009D0024C4F27024C7
:10622000C5F8B440009CC4F8A0E0DDF800E0CEF86A
:10623000A4C0DDF800C0CCF8A830009BC3F8C800AB
:10624000009BC3F8C400009B83F81701009B98666D
:10625000009BD867009BC3F8B820009AC2F8BC0026
:10626000009AC2F8C000009AC2F8EC00009B4FF4FC
:106270007A72C3F8F020009AC2F8F400009A82F80B
:10628000F800009A82F8F900009A82F8FA00009A61
:1062900082F81501009A82F81601009A82F8191105
:1062A000009981F81A01009981F81B01009981F881
:1062B000180101B0B0BD000080B586B040F2BC202E
:1062C000C2F20000007801460591032800F29E8585
:1062D0000599DFE811F004003E01DB025E0541F2A2
:1062E0003030C2F2000090F81801C007002840F0DA
:1062F0002781FFE74FF20040C0F60100142103F0B0
:10630000AFFE4FF6FF71884231D0FFE74FF60040F5
:10631000C0F60100142103F0A3FE4FF6FF7188427E
:1063200025D0FFE74FF22640C0F6010004F012FE30
:1063300040F29021C2F20001049108804FF62640FD
:10634000C0F6010004F006FE0246049840F29421D3
:10635000C2F200010A8000880988884203DDFFE755
:1063600004F0C2FF02E005F08DF8FFE722E04FF2F3
:106370000040C0F60100142103F072FE4FF6FF71D9
:10638000884203D0FFE704F0AFFF12E04FF6004071
:10639000C0F60100142103F063FE4FF6FF7188423E
:1063A00003D0FFE705F06EF802E005F003FCFFE71D
:1063B000FFE7FFE702F012FF41F23030C2F20000C7
:1063C0000390012180F81811006AFEF736FA0146A1
:1063D000039840F29222C2F200021180006BFEF795
:1063E0002CFA0146039840F2BE22C2F2000211804C
:1063F000D0F8B800FEF721FA0146039840F2B42223
:10640000C2F200021180D0F89400FEF716FA01469D
:10641000039840F2A022C2F200021180D0F8A0003E
:10642000FEF70BFA0146039840F2A422C2F20002E2
:106430001180D0F8AC00FEF700FA0146039840F254
:10644000A222C2F200021180D0F89800FEF7F5F9FE
:106450000146039840F2A622C2F200021180D0F851
:10646000A400FEF7EAF90146039840F2AA22C2F21C
:1064700000021180D0F8B000FEF7DFF90146039862
:1064800040F2A822C2F200021180D0F89C00FEF770
:10649000D4F90146039840F2AC22C2F20002118006
:1064A000D0F8A800FEF7C9F90146039840F2B022DF
:1064B000C2F200021180D0F8B400FEF7BEF9014626
:1064C000039840F2AE22C2F20002118090F80A1145
:1064D00040F2BA22C2F20002117090F80C1140F2A0
:1064E000B922C2F200021170006CFEF7A6F9014653
:1064F000039840F29C22C2F200021180406DFEF728
:106500009CF90146039840F2B622C2F200021180C3
:1065100090F80E1140F2B222C2F20002117090F80F
:10652000101140F29E22C2F200021170D0F88000D9
:10653000FEF783F940F2B821C2F20001087006E0CC
:1065400040F2BC21C2F2000101200870FFE700F018
:106550005DBC40F29220C2F200000088FEF752F9C2
:1065600041F23031C2F20001096AFEF73DF900281C
:1065700000F03881FFE740F2BE20C2F20000008840
:10658000FEF740F941F23031C2F20001096BFEF72B
:106590002BF9002800F02681FFE740F2B420C2F278
:1065A00000000088FEF72EF941F23031C2F20001FE
:1065B000D1F8B810FEF718F9002800F01381FFE7B2
:1065C00040F2A020C2F200000088FEF71BF941F261
:1065D0003031C2F20001D1F89410FEF705F900281D
:1065E00000F00081FFE740F2A420C2F20000008822
:1065F000FEF708F941F23031C2F20001D1F8A010E3
:10660000FEF7F2F8002800F0ED80FFE740F2A2204C
:10661000C2F200000088FEF7F5F841F23031C2F214
:106620000001D1F8AC10FEF7DFF8002800F0DA80A6
:10663000FFE740F2A620C2F200000088FEF7E2F871
:1066400041F23031C2F20001D1F89810FEF7CCF8D7
:10665000002800F0C780FFE740F2AA20C2F2000045
:106660000088FEF7CFF841F23031C2F20001D1F8D4
:10667000A410FEF7B9F8002800F0B480FFE740F25C
:10668000A820C2F200000088FEF7BCF841F23031C9
:10669000C2F20001D1F8B010FEF7A6F8002800F011
:1066A000A180FFE740F2AC20C2F200000088FEF7B4
:1066B000A9F841F23031C2F20001D1F89C10FEF786
:1066C00093F8002800F08E80FFE740F2B020C2F27D
:1066D00000000088FEF796F841F23031C2F2000166
:1066E000D1F8A810FEF780F800287BD0FFE740F231
:1066F000AE20C2F200000088FEF784F841F230318B
:10670000C2F20001D1F8B410FEF76EF8002869D08B
:10671000FFE740F2BA20C2F20000007841F23031C7
:10672000C2F2000191F80A1188425BD1FFE740F202
:10673000B920C2F20000007841F23031C2F200010B
:1067400091F80C1188424DD1FFE740F29C20C2F233
:1067500000000088FEF756F841F23031C2F2000125
:10676000096CFEF741F8E8B3FFE740F2B620C2F249
:1067700000000088FEF746F841F23031C2F2000115
:10678000496DFEF731F868B3FFE740F2B220C2F27C
:106790000000007841F23031C2F2000191F80E1190
:1067A00088421FD1FFE740F29E20C2F2000000782D
:1067B00041F23031C2F2000191F81011884211D13A
:1067C000FFE740F2B820C2F200000078FEF71AF8A6
:1067D00041F23031C2F20001D1F88010FEF704F826
:1067E000C8B9FFE740F29620C2F2000001880131EB
:1067F0000180008814280DDBFFE740F2BB21C2F2C4
:1068000000010120087040F29621C2F20001002030
:106810000880FFE706E040F29621C2F20001002066
:106820000880FFE740F2BB20C2F200000078012898
:106830002BD1FFE740F2BB21C2F20001002008701B
:1068400040F64C31C2F200010120087004F050FB08
:1068500040F29820C2F200000078C00738B1FFE78C
:106860004FF20040C0F6010004F016FB06E04FF6C0
:106870000040C0F6010004F00FFBFFE740F2BC212E
:10688000C2F2000102200870FFE7BFE240F2982048
:10689000C2F200000078C007002800F0DA80FFE7AD
:1068A00041F23030C2F200000290006AFDF7C5FFED
:1068B00001464FF20040C0F6010004F05DFA029874
:1068C000D0F8B800FDF7B9FF01464FF20240C0F61C
:1068D000010004F051FA0298D0F89400FDF7ADFFE2
:1068E00001464FF20440C0F6010004F045FA029858
:1068F000D0F8AC00FDF7A1FF01464FF20640C0F60C
:10690000010004F039FA0298D0F89800FDF795FFDD
:1069100001464FF20840C0F6010004F02DFA02983B
:10692000D0F8B000FDF789FF01464FF20A40C0F6EB
:10693000010004F021FA0298D0F89C00FDF77DFFD9
:1069400001464FF20C40C0F6010004F015FA02981F
:10695000D0F8B400FDF771FF01464FF20E40C0F6CB
:10696000010004F009FA0298006BFDF766FF01468A
:106970004FF21040C0F6010004F0FEF90298D0F882
:10698000A000FDF75AFF01464FF21240C0F6010089
:1069900004F0F2F90298D0F8A400FDF74EFF01468A
:1069A0004FF21440C0F6010004F0E6F90298D0F866
:1069B000A800FDF742FF01464FF21640C0F6010065
:1069C00004F0DAF9029890F80A114FF21840C0F674
:1069D000010004F0D1F9029890F80C114FF21A401E
:1069E000C0F6010004F0C8F90298006CFDF725FF1D
:1069F00001464FF21C40C0F6010004F0BDF90298B8
:106A0000406DFDF71AFF01464FF21E40C0F601002F
:106A100004F0B2F9029890F80E114FF22040C0F63F
:106A2000010004F0A9F9029890F810114FF22240E9
:106A3000C0F6010004F0A0F90298D0F88000FDF73C
:106A4000FCFE01464FF22440C0F6010004F094F928
:106A5000D8E041F23030C2F200000190006AFDF748
:106A6000ECFE01464FF60040C0F6010004F084F948
:106A70000198D0F8B800FDF7E0FE01464FF602405D
:106A8000C0F6010004F078F90198D0F89400FDF701
:106A9000D4FE01464FF60440C0F6010004F06CF944
:106AA0000198D0F8AC00FDF7C8FE01464FF606404D
:106AB000C0F6010004F060F90198D0F89800FDF7E5
:106AC000BCFE01464FF60840C0F6010004F054F940
:106AD0000198D0F8B000FDF7B0FE01464FF60A402D
:106AE000C0F6010004F048F90198D0F89C00FDF7C9
:106AF000A4FE01464FF60C40C0F6010004F03CF93C
:106B00000198D0F8B400FDF798FE01464FF60E400C
:106B1000C0F6010004F030F90198006BFDF78DFE1E
:106B200001464FF61040C0F6010004F025F9019827
:106B3000D0F8A000FDF781FE01464FF61240C0F6E6
:106B4000010004F019F90198D0F8A400FDF775FED2
:106B500001464FF61440C0F6010004F00DF901980B
:106B6000D0F8A800FDF769FE01464FF61640C0F6C2
:106B7000010004F001F9019890F80A114FF618404D
:106B8000C0F6010004F0F8F8019890F80C114FF6E7
:106B90001A40C0F6010004F0EFF80198006CFDF710
:106BA0004CFE01464FF61C40C0F6010004F0E4F82C
:106BB0000198406DFDF741FE01464FF61E40C0F6BC
:106BC000010004F0D9F8019890F80E114FF620401A
:106BD000C0F6010004F0D0F8019890F810114FF6BB
:106BE0002240C0F6010004F0C7F80198D0F88000F8
:106BF000FDF723FE01464FF62440C0F6010004F0E5
:106C0000BBF8FFE741F23030C2F200000090006AAA
:106C1000FDF713FE0146009840F29222C2F20002F4
:106C20001180006BFDF709FE0146009840F2BE227C
:106C3000C2F200021180D0F8B800FDF7FEFD014657
:106C4000009840F2B422C2F200021180D0F8940001
:106C5000FDF7F3FD0146009840F2A022C2F20002C7
:106C60001180D0F8A000FDF7E8FD0146009840F241
:106C7000A422C2F200021180D0F8AC00FDF7DDFDC5
:106C80000146009840F2A222C2F200021180D0F820
:106C90009800FDF7D2FD0146009840F2A622C2F20C
:106CA00000021180D0F8A400FDF7C7FD014600984E
:106CB00040F2AA22C2F200021180D0F8B000FDF723
:106CC000BCFD0146009840F2A822C2F200021180E9
:106CD000D0F89C00FDF7B1FD0146009840F2AC22CF
:106CE000C2F200021180D0F8A800FDF7A6FD01460F
:106CF000009840F2B022C2F200021180D0F8B40035
:106D0000FDF79BFD0146009840F2AE22C2F2000260
:106D1000118090F80A1140F2BA22C2F200021170FA
:106D200090F80C1140F2B922C2F200021170006C0E
:106D3000FDF783FD0146009840F29C22C2F200025A
:106D40001180406DFDF779FD0146009840F2B622B2
:106D5000C2F20002118090F80E1140F2B222C2F28B
:106D60000002117090F8101140F29E22C2F200024F
:106D70001170D0F88000FDF760FD40F2B821C2F23A
:106D80000001087040F2BC21C2F20001032008702B
:106D90003CE040F29820C2F200000078C00760B1E9
:106DA000FFE740F29A20C2F2000001884FF226402D
:106DB000C0F6010003F0E0FF0BE040F29A20C2F2BF
:106DC000000001884FF62640C0F6010003F0D4FF12
:106DD000FFE703F0F5FF40F29A21C2F200010888B4
:106DE0000130088040F29821C2F200010878013099
:106DF000087040F64C31C2F200010020087040F2E9
:106E0000BC21C2F2000101200870FFE706B080BD7E
:106E100080B541F20000C2F20000043002F02AF90D
:106E200080BD000080B582B040F60040C4F2010091
:106E3000019040F6480105F007F801984FF46C7195
:106E400004F0F8FF02B080BDFFE7FEE780B541F235
:106E50000000C2F200000C3002F00CF980BD00000E
:106E600080B541F20000C2F20000083002F002F9E1
:106E700080BD000089B007900691079800680590D2
:106E8000FFE79DF817004007002803D5FFE7002023
:106E9000089032E00698059901F00041084340F05F
:106EA00080600490FFE7079B049803900599DDF844
:106EB0000CC053E8000F084503D143E800C2002A84
:106EC000F7D10090401AB0FA80F04009BFF35F8F0D
:106ED0000146019118B9FFE700980590FFE7019876
:106EE00000F001008DF80B009DF80B00C007002892
:106EF000C7D0FFE704980890FFE7089809B07047EB
:106F0000FFE7FEE77047000088B007900691059202
:106F1000079800F0070004900498C0F107000528C6
:106F200003D3FFE70420019004E00498C0F10700B8
:106F30000190FFE70198039004980430062803D8D5
:106F4000FFE70020009003E0049803380090FFE77B
:106F50000098029006980399012202FA01F1013982
:106F60000840029B984005999A40013A1140084315
:106F700008B0704788B0079006910592079800F016
:106F8000070004900498C0F10700052803D3FFE729
:106F90000420019004E00498C0F107000190FFE78D
:106FA0000198039004980430062803D8FFE70020D6
:106FB000009003E0049803380090FFE700980290E7
:106FC00006980399012202FA01F101390840029B57
:106FD000984005999A40013A1140084308B070471B
:106FE00080B582B040F60040C4F2010001904FF439
:106FF000066104F029FF01984FF4667104F01AFF4E
:1070000002B080BD81B00090009900200862009914
:10701000C86100994861009908610099C86001B091
:107020007047000081B0009000990020C86101B055
:107030007047000084B0DDF810C003900291019207
:10704000009302980399086001980399486000989A
:10705000039988600399002008620399C861039925
:107060004861039908610399C860049803994862CC
:1070700004980399886204B07047000080B588B016
:1070800007900691059206980599FDF777F90799FB
:107090004861079840690021C4F2C821FDF796FBBA
:1070A00098B9FFE7079840690021CCF2C821FDF7A5
:1070B00071FB50B9FFE70798416907980490C069D0
:1070C000FDF70AF90499C86103E007990020C86137
:1070D000FFE70798C0694CF60001C4F22F71FDF775
:1070E00059FB38B9FFE707994CF60000C4F22F703E
:1070F000C861FFE70798C0690021FDF767FB20B969
:10710000FFE707990020C861FFE7079840690799E2
:107110000969FDF733F907998861079801680191BA
:107120004069009007994868C969FDF72DF90799EA
:10713000496A00F0A7FC0099024601980292FDF707
:1071400023F90299FDF7C8F80390079988688969BF
:10715000FDF71AF90399FDF7BFF807990862079838
:107160004069079908610798006A0799896AFDF7DD
:1071700003FB28B9FFE70798806A07990862FFE7D1
:107180000798006A0799896A81F00041FDF710FBB2
:1071900020B9FFE7079900200862FFE70798006A17
:1071A00008B080BD7047000080B582B001900198A2
:1071B000411C002008F028FD019981F80101019887
:1071C00090F80101162872D1FFE701984078D12884
:1071D00008D1FFE70198807DF02803D1FFE7012067
:1071E00020B95FE0012000285CD1FFE70199481C2D
:1071F00001F501710122102302F0ACFA019800F5AB
:107200000170042102F05AFB009002F079FB019812
:10721000807C9DF80310884243D1FFE70198C07C31
:107220009DF8021088423CD1FFE70198007D9DF84F
:107230000110884235D1FFE70198407D9DF800108C
:1072400088422ED1FFE701988078012810D1FFE70E
:107250000198C07801280BD1FFE70198407938B92F
:10726000FFE740F2C911C2F200010020087017E0E8
:1072700001988078022810D1FFE70198C078012892
:107280000BD1FFE70198407938B9FFE740F2C91107
:10729000C2F200010120087001E000BFFFE7FFE734
:1072A000FFE7FFE70199002081F80101FFE702B045
:1072B00080BD00007047000080B584B041F2E4500A
:1072C000C2F200000068804700F02AFA09F0E2F8F4
:1072D00041F23030C2F2000090F8FC0060B9FFE7E4
:1072E00041F23030C2F20000039003F067FB0399D3
:1072F000012081F8190117E040F20200C2F20000FB
:10730000017801390170007868B9FFE740F20201A5
:10731000C2F200010520087041F23030C2F20000D4
:1073200003F04CFBFFE7FFE705F020F805F064FFF2
:1073300005F0A6FF40F20600C2F200000178013914
:107340000170007840BBFFE740F60040C4F2000047
:10735000029000220192114607F0D4FD642002F051
:10736000ABFE02F0ABF905F0F1FD41F23030C2F2B4
:107370000000006FFDF77AFA01990246029807F0C3
:10738000C1FD0298012107F00BFE40F20601C2F296
:1073900000010A200870FFE740F20400C2F200007A
:1073A0000188013901800088A8B9FFE741F2E05166
:1073B000C2F20001086841F23032C2F20002C2F8A3
:1073C000C0000020086040F20401C2F200014FF446
:1073D0007A700880FFE740F2C020C2F20000007817
:1073E000C00700285FD1FFE7102003F0DFFD014652
:1073F00040F2C820C2F2000001800088FDF710FAB8
:107400004BF65202C8F21E5245F2EB13CCF20A03BD
:10741000FDF7D1F8002200920023C3F63073FDF788
:10742000CAF845F62942CCF28F2242F6F503C3F69C
:10743000F473FDF719F84EF23312CFF6972245F2A6
:107440007933CBF67173FDF728F9009A0023C4F263
:107450003903FDF709F8FDF749FA014641F23030EA
:10746000C2F20000C167C06F0021C4F24821FDF7DD
:10747000ADF9B8B9FFE741F23030C2F20000C06F99
:107480000021FDF779F968B9FFE741F23031C2F226
:107490000001C86F086040F2C021C2F20001012063
:1074A0000870FFE7FFE704B080BD000041F21C0157
:1074B000C4F20201086840F08050086047F25002B0
:1074C000C4F20002107840F004001070086820F048
:1074D0008050086041F20001C4F20201086840F0E7
:1074E00001000860FFE741F20000C4F202000068FA
:1074F000C0F34000012801D0FFE7F4E741F20401A6
:10750000C4F20201086820F003000860FFE741F2BE
:107510000400C4F2020000688008800708B1FFE799
:10752000F5E741F20001C4F2020108684FF6FF726C
:10753000CFF6F2621040086041F20401C4F2020189
:107540000020086041F22C01C4F2020141F61070E3
:10755000086041F23001C4F202014FF4801008606B
:1075600041F20801C4F202014FF41F0008604EF618
:107570000851CEF200014FF0006008607047000033
:1075800080B582B04FF08040022107F057FD90B1E6
:10759000FFE741F2E050C2F20000019000684FF0B6
:1075A0007E51FCF799FE019908604FF0804002215E
:1075B00007F004FDFFE702B080BD000080B582B097
:1075C00040F20040C4F20000012107F001FD002854
:1075D00042D0FFE741F23030C2F2000090F81801CB
:1075E000C00738B1FFE741F23030C2F2000000F0CE
:1075F000C1FD06E041F23031C2F200010020886690
:10760000FFE741F23030C2F20000806E0021FDF74A
:10761000DDF838B9FFE741F23031C2F20001002055
:107620008866FFE741F23030C2F20000806EFDF75D
:107630001DF9024640F20040C4F200000090002113
:1076400007F060FC00980121019107F0A9FC009867
:10765000019907F0B3FCFFE702B080BD80B582B0AE
:1076600043F60C00C4F2010000684009C007F0B105
:10767000FFE743F60000C4F20100202108F0A2F960
:10768000A0B1FFE743F60000C4F2010008F060F982
:10769000C1B241F27050C2F20000009005F08EFBC2
:1076A00000990420087301204873FFE7FFE743F6C1
:1076B0000C00C4F2010000688009C00768B3FFE74E
:1076C00043F60000C4F20100402108F07BF918B332
:1076D000FFE743F60000C4F20100402108F05EF924
:1076E00041F27050C2F2000010300DF1070105F0B8
:1076F00041FB48B9FFE79DF8071043F60000C4F2CC
:10770000010008F02DF906E041F27051C2F20001CB
:1077100000204877FFE7FFE7FFE702B080BD0000E9
:1077200041F27050C2F20000407B012817D1FFE700
:1077300041F27050C2F20000007B40B1FFE741F21D
:107740007051C2F20001087B0138087306E041F273
:107750007051C2F2000102204873FFE7FFE741F2D7
:107760007050C2F20000007F40B1FFE741F270515B
:10777000C2F20001087F01380877FFE77047000078
:1077800089B008900791079820F0806006900898CB
:1077900001900699059105990291BFF35F8F0068EA
:1077A0000390FFE70399019BDDF808C053E8000F41
:1077B000084503D143E800C2002AF7D10090411ADE
:1077C000B1FA81F1490901290390EBD1FFE7009853
:1077D000049009B070470000FFE7FEE72DE9F04193
:1077E00088B01C4615460E46074613981299119A02
:1077F000109BDDF83CC0DDF838E00797ADF81A6063
:10780000ADF81850ADF81640ADF814E0ADF812C060
:10781000ADF81030ADF80E20ADF80C10ADF80A0040
:107820000799D12081F802019DF81A00079981F883
:1078300003019DF81800079981F804019DF81700CD
:10784000079981F80501BDF81600079981F806012E
:107850009DF81500079981F80701BDF814000799F4
:1078600081F808019DF81300079981F80901BDF816
:107870001200079981F80A019DF81100079981F813
:107880000B01BDF81000079981F80C019DF80F005D
:10789000079981F80D01BDF80E00079981F80E01D6
:1078A0009DF80D00079981F80F01BDF80C000799AC
:1078B00081F810019DF80B00079981F81101BDF8BE
:1078C0000A00079981F81201079901F5817001F505
:1078D00001710122102301F03DFF079800F50170AE
:1078E000042101F0EBFF40F2C421C2F2000101913A
:1078F000086002F005F80198C178079A82F8131120
:107900004188079A82F814110168090A079A82F8D7
:1079100015110068079981F816010799F02081F880
:107920001701079800F581710020162208F0F0F980
:1079300008B0BDE8F081000081B08DF803009DF92A
:10794000030000280ED4FFE79DF9031001F01F0289
:10795000012090404A094EF20011CEF2000141F898
:107960002200FFE701B070474EF60C50CEF2000047
:107970000068C0F3022070474EF60C50CEF20000B3
:107980000068C0F30220704782B08DF807000091B4
:107990009DF9070000280AD4FFE7009800019DF92F
:1079A00007104EF20042CEF2000288540BE000981D
:1079B00000019DF8071001F00F014EF61452CEF2AF
:1079C00000028854FFE702B07047000082B08DF8D3
:1079D000070000919DF9070000280AD4FFE70098EE
:1079E00000019DF907104EF20042CEF200028854C9
:1079F0000BE0009800019DF8071001F00F014EF612
:107A00001452CEF200028854FFE702B07047000023
:107A100083B00290029800F0070000904EF60C51DF
:107A2000CEF200010868019001984FF6FF02104065
:107A300001900198009A40EA02200022C0F2FA5216
:107A4000104301900198086003B07047BFF34F8F57
:107A50004EF60C51CEF20001086800F4E0600422FA
:107A6000C0F2FA5210430860BFF34F8FFFE700BF28
:107A7000FDE7000080B5012004F04CFB80BD000054
:107A80007047000080B582B0019000910198009984
:107A9000FCF772FE18B9FFE700980190FFE7019824
:107AA000009981F00041FCF783FE28B9FFE70098B8
:107AB00080F000400190FFE7019802B080BD000017
:107AC00082B001900091009802780199486802F014
:107AD000010220F4807040EA022048600098427859
:107AE0000199886802F0010220F0020040EA420099
:107AF0008860009882780199886802F0010220F479
:107B0000006040EAC22088600098C078421E019957
:107B1000C86A02F00F0220F4700040EA0250C86206
:107B200002B0704781B00090009900200870009961
:107B300048700099887000990120C87001B07047A2
:107B400081B000900099886840F00800886001B01A
:107B50007047000082B0009000988068C008C0079D
:107B600020B1FFE701208DF8070003E000208DF829
:107B70000700FFE79DF8070002B0704781B0009052
:107B80000099886840F00400886001B070470000E8
:107B900082B00090009880688008C00720B1FFE79D
:107BA00001208DF8070003E000208DF80700FFE7B3
:107BB0009DF8070002B0704782B001908DF8031065
:107BC0009DF803200199886862F30000886002B084
:107BD0007047000082B001908DF8031000208DF8EE
:107BE0000200019800689DF80310084204D1FFE7E5
:107BF00000208DF8020003E001208DF80200FFE76D
:107C00009DF8020002B0704783B002908DF8071013
:107C10008DF806208DF805309DF8070009281CDC3A
:107C2000FFE70298006900909DF8070000EB400113
:107C3000072000FA01F10098884300909DF80500A4
:107C40009DF8071001EB410100FA01F1009808438B
:107C500000900098029908611EE00298C0680090A8
:107C60009DF8070000EB4000A0F11E01072000FA7C
:107C700001F10098884300909DF805009DF80710D9
:107C800001EB41011E3900FA01F100980843009010
:107C900000980299C860FFE79DF806000D281FDBD9
:107CA000FFE70298C06A00909DF8060000EB800094
:107CB000A0F141011F2000FA01F1009888430090D3
:107CC0009DF807009DF8061001EB8101413900FA8B
:107CD00001F100980843009000980299C86242E0C0
:107CE0009DF8060007281FDBFFE70298006B009055
:107CF0009DF8060000EB8000A0F123011F2000FA90
:107D000001F10098884300909DF807009DF8061047
:107D100001EB8101233900FA01F10098084300903A
:107D20000098029908631DE00298406B00909DF84E
:107D3000060000EB8000411F1F2000FA01F10098AF
:107D4000884300909DF807009DF8061001EB810123
:107D5000053900FA01F10098084300900098029953
:107D60004863FFE7FFE703B07047000081B0009071
:107D70000098C06C80B201B07047000082B00190E2
:107D80008DF803108DF802209DF80300082811DB00
:107D9000FFE70199886840F0007088609DF8030053
:107DA00000F007020199886820F4602040EA424010
:107DB000886010E00199886820F0007088609DF864
:107DC000030000F007020199886820F4602040EA6F
:107DD00042408860FFE79DF802200199886802F020
:107DE000010220F4801040EA0250886002B070471F
:107DF00082B001908DF803109DF803200199486826
:107E000002F0010220F4006040EAC220486002B0A3
:107E10007047000082B001908DF803109DF8032098
:107E20000199886802F0010220F4800040EA825043
:107E3000886002B07047000081B08DF803009DF8A3
:107E4000032042F20841C4F20101086802F0010275
:107E500020F4000040EAC250086001B07047000002
:107E600080B586B040F23810C2F2000000780146BA
:107E70000591042800F2FC800599DFE801F0037DFC
:107E80003FBBF80041F23030C2F200004FF47A718B
:107E9000C0F8F410002180F81311D0F8B8004FF0AA
:107EA0007E51FCF719FA0021C4F24831FCF764FC5A
:107EB00068B9FFE741F23031C2F200010020C4F29C
:107EC0004830C1F8B8000020C1F8BC000EE041F213
:107ED0003030C2F200000490D0F8B8004FF07E516C
:107EE000FCF7FAF90499C1F8B800FFE741F2303124
:107EF000C2F20001002081F8E800BAE041F230301F
:107F0000C2F200004FF47A71C0F8F410002180F83A
:107F10001311D0F8B8000021C4F2A001FCF7DCF97D
:107F20000021C4F24831FCF727FC68B9FFE741F2B1
:107F30003031C2F200010020C4F24830C1F8B8006C
:107F40000020C1F8BC000FE041F23030C2F2000066
:107F50000390D0F8B8000021C4F2A001FCF7BCF9EE
:107F60000399C1F8B800FFE741F23031C2F20001D5
:107F7000002081F8E8007CE041F23030C2F20000DD
:107F80004FF47A71C0F8F410002180F81311D0F882
:107F9000B8000021CBF68071FCF79EF90021C4F2F5
:107FA000A001FCF705FC68B9FFE741F23031C2F2ED
:107FB00000010020C4F2A000C1F8B8000020C1F800
:107FC000BC000FE041F23030C2F200000290D0F865
:107FD000B8000021CBF68071FCF77EF90299C1F858
:107FE000B800FFE741F23031C2F20001002081F811
:107FF000E8003EE041F23030C2F200004FF47A7106
:10800000C0F8F410002180F81311D0F8B800002156
:10801000C4F2A0010191FCF7B1F90199FCF7C8FB8A
:1080200068B9FFE741F23031C2F200010020C4F22A
:10803000A000C1F8B8000020C1F8BC000FE041F278
:108040003030C2F200000090D0F8B8000021CCF22D
:10805000A001FCF741F90099C1F8B800FFE741F22F
:108060003031C2F20001002081F8E80001E0FFE7B2
:10807000FFE740F23811C2F200010420087006B098
:1080800080BD000082B08DF807009DF80700013820
:1080900001460091092869D80099DFE801F0051C24
:1080A000656661626463334A41F23030C2F20000B7
:1080B00090F81501C00738B9FFE740F23811C2F255
:1080C000000100200870FFE740F2D411C2F2000165
:1080D000002048714BE041F23030C2F2000090F8CD
:1080E0001501C00738B9FFE740F23811C2F20001AC
:1080F00001200870FFE740F2D411C2F20001002015
:10810000487134E041F23030C2F2000090F81501BD
:10811000C00738B9FFE740F23811C2F2000102206F
:108120000870FFE740F2D411C2F20001002048714C
:108130001DE041F23030C2F2000090F81501C00796
:1081400038B9FFE740F23811C2F20001032008708D
:10815000FFE740F2D411C2F200010020487106E0AE
:1081600005E004E003E002E001E000E0FFE702B028
:108170007047000080B58CB00B9040F20030C2F226
:1081800000000078C00708B3FFE740F2CC20C2F23D
:10819000000080680A9040F2F000C2F2000000681F
:1081A000FCF739FB01460A98FCF710FB68B9FFE7BA
:1081B00040F2F000C2F200000068FCF72CFB40F235
:1081C000CC21C2F200018860FFE70CE040F2EC0035
:1081D000C2F200000068FCF71EFB40F2CC21C2F2A4
:1081E00000018860FFE70B98006A40F2FC21C2F2B0
:1081F0000001086040F2F820C2F20000006809683F
:10820000FCF7F2FA20BBFFE740F2CC20C2F20000FC
:108210000890C0694FF07C51FCF7B6F80899C86126
:1082200040F2FC20C2F2000009900068FCF705FB58
:1082300004F0E2F8FCF7E6FA014609980B9AC2F856
:10824000D810006840F2F821C2F200010860FFE790
:1082500040F20830C2F2000004F0DEFA8008FCF7B9
:10826000DAFA0B9908600B990868096CFCF786F834
:1082700040F20431C2F2000108600B9890F800014E
:1082800038B1FFE70B9890F81001012840F02A81DF
:10829000FFE70B9890F81A01C007002800F0218131
:1082A000FFE740F20430C2F200000068079040F29D
:1082B000FC20C2F2000000680021C4F2C821FCF7D3
:1082C0000BF801460798FCF781FA002840F0C180BE
:1082D000FFE740F20430C2F200000068069040F26E
:1082E000FC20C2F2000000680021CCF2C821FBF79C
:1082F000F3FF01460698FCF74DFA002840F0A980EC
:10830000FFE740F20430C2F200000068059040F23E
:10831000FC20C2F2000000680021C4F2A001FBF7BB
:10832000DBFF01460598FCF751FA00286CD1FFE706
:1083300040F20430C2F200000068049040F2FC20D9
:10834000C2F2000000680021CCF2A001FBF7C4FFDC
:1083500001460498FCF71EFA002855D1FFE741F2C8
:108360003031C2F20001022081F81B0140F20230DC
:10837000C2F2000001880131018000880F2842DB31
:10838000FFE740F2CC20C2F20000806844F2000116
:10839000CCF29C51FBF7A0FF039040F2F000C2F238
:1083A00000000068FCF737FA01460398FCF70EFA64
:1083B00068B9FFE740F2F000C2F200000068FCF785
:1083C0002AFA40F2CC21C2F2000188600EE040F2AD
:1083D000CC20C2F200000290806844F20001CCF28E
:1083E0009C51FBF779FF02998860FFE740F2023168
:1083F000C2F200010020088040F20031C2F2000108
:1084000001200870FFE711E040F20031C2F20001E4
:108410000020087040F20231C2F20001088041F2EF
:108420003031C2F2000181F81B01FFE740F2FC206D
:10843000C2F2000040F20431C2F200010A68016891
:1084400040F2CC20C2F20000FEF718FE0B998866BD
:1084500046E040F20430C2F200000068019040F2B1
:10846000FC20C2F2000000680021C4F2C821FBF722
:1084700033FF01460198FCF77FF958B9FFE70B99E4
:108480000020886641F23031C2F20001012081F8FB
:108490001B0124E040F20430C2F2000000680090AA
:1084A00040F2FC20C2F2000000680021CCF2C8219A
:1084B000FBF712FF01460098FCF77AF970B9FFE765
:1084C0000B994BF60000C4F20870886641F2303117
:1084D000C2F20001002081F81B01FFE7FFE7FFE780
:1084E000FFE71FE00B9890F80001012819D1FFE782
:1084F0000B9890F81001A0B9FFE740F20031C2F2EA
:1085000000010020087040F20231C2F20001088030
:108510000B99886640F2CC20C2F20000FEF772FD93
:10852000FFE7FFE70B98806E0021FCF74FF920B9B9
:10853000FFE70B9900208866FFE70B9890F804018D
:10854000A0B1FFE740F20031C2F200010020087044
:1085500040F20231C2F2000108800B99886640F2B5
:10856000CC20C2F20000FEF74DFDFFE70CB080BD4D
:1085700010B59EB040F22C10C2F200000078014607
:108580001D91062800F2B2831D99DFE811F0070063
:108590004C01A300EA01AE038E02080340F2D4109E
:1085A000C2F200000021417141F23030C2F20000FD
:1085B0004FF47A72C0F8EC2080F8121190F80A019A
:1085C000D8BBFFE741F23030C2F20000006A002160
:1085D000C4F2FA31FCF7DEF858B9FFE741F2303166
:1085E000C2F20001002048620020C4F2FA300862A2
:1085F0000CE041F23030C2F200001C90006A4FF0F3
:108600007E51FBF769FE1C990862FFE741F23030AA
:10861000C2F200001B90006A0021C4F21011FBF7A7
:10862000B3FE0021C4F2A001FBF7E0FE4FF084414D
:10863000FBF752FE1B99886244E041F23030C2F2EF
:10864000000090F80A0101283BD1FFE741F23030E9
:10865000C2F20000806A0021C4F26941FCF79AF876
:1086600058B9FFE741F23031C2F200010020C86280
:108670000020C4F2694088620CE041F23030C2F25E
:1086800000001A90806A4FF07E51FBF725FE1A9980
:108690008862FFE741F23030C2F200001990806A30
:1086A0004FF04241FBF718FE0021C4F2A001FBF796
:1086B0006BFE0021C4F21011FBF798FE19990862B5
:1086C000FFE7FFE741F23031C2F20001002081F8FC
:1086D000E8000CE340F2D410C2F200000021417126
:1086E00041F23030C2F200004FF47A72C0F8EC2050
:1086F00080F8121190F80A01002841D1FFE741F2F9
:108700003030C2F20000006A0021C4F22011FBF7F1
:10871000E3FD0021C4F2FA31FCF73CF858B9FFE759
:1087200041F23031C2F20001002048620020C4F260
:10873000FA3008620DE041F23030C2F200001890C9
:10874000006A0021C4F22011FBF7C6FD18990862E7
:10875000FFE741F23030C2F200001790006A0021BA
:10876000C4F21011FBF710FE0021C4F2A001FBF7C8
:108770003DFE4FF08441FBF7AFFD179988624AE058
:1087800041F23030C2F2000090F80A01012841D1D4
:10879000FFE741F23030C2F20000806A0021C4F2EB
:1087A0004821FBF799FD0021C4F26941FBF7F2FF74
:1087B00058B9FFE741F23031C2F200010020C8622F
:1087C0000020C4F2694088620DE041F23030C2F20C
:1087D00000001690806A0021C4F24821FBF77CFD5E
:1087E00016998862FFE741F23030C2F2000015901E
:1087F000806A4FF04241FBF76FFD0021C4F2A001F7
:10880000FBF7C2FD0021C4F21011FBF7EFFD159933
:108810000862FFE7FFE741F23031C2F200010020B9
:1088200081F8E80063E240F2D410C2F200000021B7
:10883000417141F23030C2F200004FF47A72C0F858
:10884000EC2080F8121190F80A01E0BBFFE741F23A
:108850003030C2F20000006A0021C4F2C821FBF7E8
:10886000B5FF58B9FFE741F23031C2F200010020F4
:1088700048620020C4F2C82008620DE041F23030A6
:10888000C2F200001490006A0021CBF68071FBF761
:1088900023FD14990862FFE741F23030C2F2000074
:1088A0001390006A0021C4F21011FBF76DFD002146
:1088B000C4F2A001FBF79AFD4FF08441FBF70CFDD9
:1088C0001399886245E041F23030C2F2000090F81E
:1088D0000A0101283CD1FFE741F23030C2F200002A
:1088E000806A0021C4F25431FBF770FF58B9FFE7EA
:1088F00041F23031C2F200010020C8620020C4F20F
:10890000543088620DE041F23030C2F20000129023
:10891000806A0021CBF68071FBF7DEFC1299886239
:10892000FFE741F23030C2F200001190806A4FF050
:108930004241FBF7D1FC0021C4F2A001FBF724FD6A
:108940000021C4F21011FBF751FD11990862FFE7F5
:10895000FFE741F23031C2F20001002081F8E80067
:10896000C5E140F2D410C2F200000021417141F291
:108970003030C2F200004FF47A72C0F8EC2080F878
:10898000121190F80A01002841D1FFE741F230307E
:10899000C2F20000006A0021CCF22011FBF79CFC1F
:1089A0000021C4F2C821FBF711FF58B9FFE741F2DB
:1089B0003031C2F20001002048620020C4F2C82019
:1089C00008620DE041F23030C2F200001090006AFF
:1089D0000021CCF22011FBF77FFC10990862FFE721
:1089E00041F23030C2F200000F90006A0021C4F260
:1089F0001011FBF7C9FC0021C4F2A001FBF7F6FC43
:108A00004FF08441FBF768FC0F99886245E041F222
:108A10003030C2F2000090F80A0101283CD1FFE793
:108A200041F23030C2F20000806A0021C4F27D3190
:108A3000FBF7CCFE58B9FFE741F23031C2F200013A
:108A40000020C8620020C4F2543088620DE041F278
:108A50003030C2F200000E90806A0021CCF2242156
:108A6000FBF73AFC0E998862FFE741F23030C2F220
:108A700000000D90806A4FF04241FBF72DFC002171
:108A8000C4F2A001FBF780FC0021C4F21011FBF737
:108A9000ADFC0D990862FFE7FFE741F23031C2F209
:108AA0000001002081F8E80021E141F23031C2F2FA
:108AB00000010C91002081F81501086A0A6C0B92E4
:108AC000496CFBF75BFC01460B98FBF705FC014684
:108AD0000C980164006C0021C4F2C821FBF75AFE17
:108AE00048B9FFE741F23031C2F200010020C4F280
:108AF000C8200864FFE741F23030C2F20000006C89
:108B00000021CCF2C821FBF761FE48B9FFE741F232
:108B10003031C2F200010020CCF2C8200864FFE727
:108B200041F23031C2F200010A91086B4A6D09929C
:108B3000896DFBF723FC01460998FBF7CDFB014645
:108B40000A984165406D0021C4F2C821FBF722FE5E
:108B500048B9FFE741F23031C2F200010020C4F20F
:108B6000C8204865FFE741F23030C2F20000406D96
:108B70000021CCF2C821FBF729FE48B9FFE741F2FA
:108B80003031C2F200010020CCF2C8204865FFE776
:108B900040F2D411C2F2000101204871A7E041F275
:108BA0003030C2F200000890012280F81721002422
:108BB000C4F2BE34046204630023C4F22023C0F86C
:108BC000B830002101644165C0F8944040F2000EC5
:108BD000C4F2C83EC0F898E040F2000CC4F2D23CA7
:108BE000C0F89CC0C0F8A040C0F8A4E0C0F8A8C07D
:108BF000C0F8AC300023C4F24823C0F8B0300023E2
:108C0000C4F27023C0F8B43080F8E81080F8E9109E
:108C1000C0F8801080F80A1180F80C2180F80E212D
:108C200080F810114FF47A71C0F8EC10C0F8F01011
:108C300090F80A0138BBFFE741F23030C2F2000081
:108C40000790006B0021C4F210110491FBF79CFB0C
:108C50000021C4F2A0010591FBF7C8FB4FF084414D
:108C60000691FBF739FB0499024607988263006A74
:108C7000FBF78AFB0599FBF7B9FB0699FBF72CFB81
:108C80000799886230E041F23030C2F2000090F87B
:108C90000A01012827D1FFE741F23030C2F200007B
:108CA0000390806B4FF084410091FBF767FB00213C
:108CB000C4F2A0010191FBF767FB0021C4F210117F
:108CC0000291FBF793FB0099024603980263806AC6
:108CD000FBF754FB0199FBF757FB0299FBF786FB67
:108CE00003990862FFE7FFE7FFE7FFE7FFE740F2CE
:108CF0002C11C2F20001042008701EB010BD00004B
:108D000083B08DF80B009DF80B00013801460191EE
:108D1000092800F219810199DFE811F00A003F00EB
:108D200014011501A600CD000D01CE0078008F00C2
:108D300041F23030C2F2000090F81501C007F0B1E6
:108D4000FFE741F23030C2F2000090F81611013115
:108D500080F8161190F816010B2808DBFFE741F2A6
:108D60003031C2F20001002081F81601FFE740F225
:108D70003411C2F2000142F21070086006E040F2C5
:108D80002C11C2F2000100200870FFE740F2D4115C
:108D9000C2F2000100204871D7E041F23030C2F247
:108DA000000090F81501C00710B3FFE741F2303022
:108DB000C2F2000090F8160140B9FFE741F23031ED
:108DC000C2F200010A2081F8160109E041F23031B7
:108DD000C2F2000191F81601013881F81601FFE78F
:108DE00040F23411C2F2000142F21070086006E055
:108DF00040F22C11C2F2000101200870FFE740F29E
:108E0000D411C2F20001002048719EE041F23030DE
:108E1000C2F2000090F81501C00738B9FFE740F230
:108E20002C11C2F2000102200870FFE740F2D411B9
:108E3000C2F200010020487187E041F23030C2F2F6
:108E4000000090F81501C00738B9FFE740F22C1177
:108E5000C2F2000103200870FFE740F2D411C2F211
:108E600000010020487170E041F23030C2F2000091
:108E700090F8160138B9FFE740F22C11C2F2000158
:108E80000520087010E041F23030C2F2000090F886
:108E900016010A2807D1FFE740F22C11C2F20001A7
:108EA00006200870FFE7FFE740F2D411C2F200018C
:108EB0000020487149E048E040F23930C2F2000039
:108EC0000078C00780BBFFE740F23931C2F20001F1
:108ED0000120087041F23030C2F2000090F8150114
:108EE000C00790B9FFE741F23031C2F20001012022
:108EF00081F81501002081F8160140F23411C2F208
:108F0000000142F2107008600DE041F23031C2F20F
:108F10000001002081F8160140F22C11C2F200017C
:108F200005200870FFE7FFE740F2D411C2F200010C
:108F30000120487109E040F23931C2F200010020FD
:108F4000087002E001E000E0FFE741F23030C2F2D9
:108F5000000090F81501C00770B9FFE741F2303109
:108F6000C2F200010091086A4864886AC864086B0C
:108F70008865886B08664AE09DF80B00D8B9FFE762
:108F800040F23410C2F2000001680139016000684B
:108F9000B0F1FF3F0EDCFFE740F23411C2F20001F6
:108FA00042F21070086040F22C11C2F2000105205C
:108FB0000870FFE7FFE741F23030C2F2000090F89E
:108FC0001701C00710B3FFE740F23010C2F20000F3
:108FD0000168013901600068B0F1FF3F15DCFFE76F
:108FE00040F23011C2F200014FF49670086040F276
:108FF0002C11C2F200010520087041F23031C2F29A
:109000000001002081F81701FFE7FFE7FFE703B049
:109010007047000088B0079006910592079B06985C
:109020000090059904910168DDF810C0BFF35F8FCF
:1090300053E8000F084503D143E800C2002AF7D1E6
:109040000190401AB0FA80F04009BFF35F8F0146EB
:10905000029120B9FFE7019800990860FFE70298A4
:1090600000F001008DF80F009DF80F0000F00100E6
:1090700008B0704787B006900698019001210591CD
:109080000599029100680390FFE70399019B0298FC
:1090900001EB000C53E8000F084503D143E800C280
:1090A000002AF7D10090411AB1FA81F1490901294A
:1090B0000390EAD1FFE700980490049807B0704746
:1090C00080B541F23030C2F2000090F80C01012866
:1090D00007D1FFE740F2D410C2F20000FBF74EFDCB
:1090E0000FE041F23030C2F2000090F80C0138B9C4
:1090F000FFE740F2D410C2F20000C0688047FFE7EB
:10910000FFE780BD80B541F20000C4F201000821F4
:1091100002F090FE80BD000080B541F20000C4F274
:109120000100082102F090FE80BD000080B541F2F0
:109130003030C2F2000090F80C01012803D1FFE7A3
:10914000FFF7BEFF0FE041F23030C2F2000090F8AE
:109150000C0138B9FFE740F2D410C2F20000C06839
:109160008047FFE7FFE741F23030C2F2000090F89D
:10917000040140B9FFE741F23030C2F2000090F83C
:109180000601C0B1FFE740F23A32C2F200021078A5
:10919000411C117032280DD1FFE740F23A31C2F282
:1091A00000010020087040F2D411C2F20001012039
:1091B0004871FFE7FFE780BD80B582B040F6004010
:1091C000C4F2010001904FF4036102F03DFE0198EA
:1091D0004FF4727102F02EFE02B080BD80B541F2F4
:1091E0003030C2F20000006A0021C4F2FA31FBF70D
:1091F000EDFA60B9FFE741F23030C2F20000006AD8
:109200000021C4F2C821FBF7D3FA48B9FFE741F2C5
:109210003031C2F200010020C4F2BE300862FFE724
:1092200041F23030C2F20000006B0021C4F2E131A3
:10923000FBF7CCFA60B9FFE741F23030C2F2000030
:10924000006B0021C4F24831FBF7B2FA48B9FFE7DE
:1092500041F23031C2F200010020C4F2BE30086396
:10926000FFE741F23030C2F20000D0F8B800002130
:10927000C4F24831FBF7AAFA68B9FFE741F230308F
:10928000C2F20000D0F8B8000021C4F2A001FBF740
:109290008FFA50B9FFE741F23031C2F200010020ED
:1092A000C4F2A020C1F8B800FFE741F23030C2F2AA
:1092B0000000D0F894000021C4F2FA31FBF786FADE
:1092C00068B9FFE741F23030C2F20000D0F89400F4
:1092D0000021C4F2C821FBF76BFA50B9FFE741F255
:1092E0003031C2F200010020C4F2A030C1F8940075
:1092F000FFE741F23030C2F20000D0F898000021C0
:10930000C4F2FA31FBF762FA68B9FFE741F2303094
:10931000C2F20000D0F898000021C4F2C821FBF787
:1093200047FA50B9FFE741F23031C2F200010020A4
:10933000C4F2AF30C1F89800FFE741F23030C2F21A
:109340000000D0F89C000021C4F2FA31FBF73EFA8D
:1093500068B9FFE741F23030C2F20000D0F89C005B
:109360000021C4F2C821FBF723FA50B9FFE741F20C
:109370003031C2F200010020C4F2BE30C1F89C00BE
:10938000FFE741F23030C2F20000D0F8A000002127
:10939000C4F2E131FBF71AFA68B9FFE741F2303065
:1093A000C2F20000D0F8A0000021C4F24831FBF75F
:1093B000FFF950B9FFE741F23031C2F2000100205D
:1093C000C4F2A030C1F8A000FFE741F23030C2F291
:1093D0000000D0F8A4000021C4F2E131FBF7F6F957
:1093E00068B9FFE741F23030C2F20000D0F8A400C3
:1093F0000021C4F24831FBF7DBF950B9FFE741F235
:109400003031C2F200010020C4F2AF30C1F8A40034
:10941000FFE741F23030C2F20000D0F8A80000218E
:10942000C4F2E131FBF7D2F968B9FFE741F230301D
:10943000C2F20000D0F8A8000021C4F24831FBF7C6
:10944000B7F950B9FFE741F23031C2F20001002014
:10945000C4F2BE30C1F8A800FFE741F23030C2F2DA
:109460000000D0F8AC000021C4F24831FBF7AEF99F
:1094700068B9FFE741F23030C2F20000D0F8AC002A
:109480000021C4F2A001FBF793F950B9FFE741F2C4
:109490003031C2F200010020C4F24820C1F8AC0013
:1094A000FFE741F23030C2F20000D0F8B0000021F6
:1094B000C4F24831FBF78AF968B9FFE741F230306E
:1094C000C2F20000D0F8B0000021C4F2A001FBF706
:1094D0006FF950B9FFE741F23031C2F200010020CC
:1094E000C4F27020C1F8B000FFE741F23030C2F2A0
:1094F0000000D0F8B4000021C4F24831FBF766F94F
:1095000068B9FFE741F23030C2F20000D0F8B40091
:109510000021C4F2A001FBF74BF950B9FFE741F27B
:109520003031C2F200010020C4F2A020C1F8B40022
:10953000FFE741F23030C2F2000090F80A0188B132
:10954000FFE741F23030C2F2000090F80A01012832
:1095500008D0FFE741F23031C2F20001002081F86B
:109560000A01FFE741F23030C2F2000090F80C012E
:1095700088B1FFE741F23030C2F2000090F80C01F0
:10958000012808D0FFE741F23031C2F2000101208A
:1095900081F80C01FFE741F23030C2F20000006CAC
:1095A0000021C4F2C821FBF711F960B9FFE741F2CD
:1095B0003030C2F20000006C0021CCF2C821FBF771
:1095C000F7F838B9FFE741F23031C2F2000100206C
:1095D0000864FFE741F23030C2F20000406D002124
:1095E000C4F2C821FBF7F2F860B9FFE741F230306E
:1095F000C2F20000406D0021CCF2C821FBF7D8F880
:1096000038B9FFE741F23031C2F20001002048656D
:10961000FFE741F23030C2F2000090F80E0101285D
:1096200010D0FFE741F23030C2F2000090F80E0196
:1096300040B1FFE741F23031C2F20001002081F871
:109640000E01FFE741F23030C2F2000090F8100145
:10965000012810D0FFE741F23030C2F2000090F84C
:10966000100140B1FFE741F23031C2F200010020A9
:1096700081F81001FFE741F23030C2F20000D0F86B
:1096800080004CF20001C4F27941FBF79FF858B911
:10969000FFE741F23030C2F20000D0F88000002134
:1096A000FBF786F840B9FFE741F23031C2F2000122
:1096B0000020C1F88000FFE780BD000080B50320D6
:1096C00001F074FCFBF7A7F8014641F23030C2F21A
:1096D0000000816790F80801C8B9FFE741F2303017
:1096E000C2F20000806F4CF20001C4F20F51FBF790
:1096F00043F858B9FFE741F23031C2F200010420CB
:1097000081F80601022081F81401FFE7FFE780BD20
:1097100080B584B003F0D6F90391029003F0C8FA43
:1097200098B1FFE703F0CEF90391029003F0E0F95E
:10973000019008460199029B039AC91850410131D2
:1097400040F1000002910390FFE70298039904B0F2
:1097500080BD00008BB0099008910792069309988C
:1097600018B1FFE7089818B9FFE700200A905FE0FA
:1097700007980699884203D9FFE700200A9057E02E
:1097800006980799401A01300590099807990844EE
:109790000490002002900390FFE703980599B0EB36
:1097A000910F11D2FFE70498006800BA0899029A55
:1097B000531C029341F82200049804300490FFE700
:1097C000039801300390E8E79DF81400800760B328
:1097D000FFE700200190059901F003018DF80310C7
:1097E0008DF80200FFE79DF802009DF80310884203
:1097F00013DAFFE704989DF80220805C1821A1EBA2
:10980000C20100FA01F1019808430190FFE79DF8B9
:10981000020001308DF80200E5E701980899029AEC
:10982000531C029341F82200FFE702980A90FFE7D9
:109830000A980BB07047000084B0039002914FF675
:10984000FF70ADF80600FFE7029890B3FFE70398BA
:10985000411C03910178BDF8060080EA0120ADF8B3
:10986000060008200090FFE70098F0B1FFE7BDF880
:109870000600000400280DD5FFE7BDF806004000F3
:10988000ADF80600BDF8060041F221014840ADF8F0
:10989000060005E0BDF806004000ADF80600FFE751
:1098A000FFE7009801380090DEE702980138029047
:1098B000CAE7BDF8060004B07047000083B002900C
:1098C0000191002000900090FFE7009801998842E4
:1098D0000ED2FFE70298009950F8210043F20001F0
:1098E000C4F202010860FFE7009801300090ECE745
:1098F00043F20000C4F20200006803B070470000A9
:1099000043F20801C4F20201086840F00100086057
:109910007047000081B00090009843F21001C4F23B
:109920000201086001B0704781B08DF803009DF816
:10993000032043F20801C4F20201086802F00302A6
:1099400020F0180040EAC200086001B07047000033
:1099500081B00090009843F21401C4F20201086043
:1099600001B0704781B08DF803009DF8032043F2E9
:109970000801C4F20201086802F0030220F060004E
:1099800040EA4210086001B07047000081B08DF8D5
:1099900003009DF8032043F20801C4F202010868A5
:1099A00002F0010220F0800040EAC210086001B01D
:1099B0007047000081B08DF803009DF8030000F0AF
:1099C000030241F20401C4F20201086820F440409D
:1099D00040EA823008609DF803200868920862F32C
:1099E0001C70086001B0704781B08DF803009DF8CD
:1099F000032041F20401C4F20201086802F00F02E0
:109A000020F0F00040EA0210086001B0704700004A
:109A100081B08DF803009DF8032041F20401C4F2E7
:109A20000201086802F0070220F4E06040EA022028
:109A3000086001B07047000081B08DF803009DF808
:109A4000032041F20401C4F20201086802F0070297
:109A500020F4605040EAC220086001B07047000066
:109A600081B08DF803009DF80300012809D1FFE7BC
:109A700041F25401C4F20201086840F0300008606D
:109A800008E041F25401C4F20201086820F03000FD
:109A90000860FFE701B0704782B08DF807008DF8CD
:109AA00006109DF8070001460091042844D800994B
:109AB000DFE801F0030E1D2C37009DF8062041F26F
:109AC0000001C4F20201086862F30000086034E09B
:109AD0009DF8062041F20001C4F20201086802F07C
