:020000040800F2
:10400000481800208941000801540008F9530008AD
:10401000FD530008794900082D6A000800000000DF
:104020000000000000000000000000001D55000816
:10403000954900080000000019550008AD4100082E
:10404000A3410008A3410008A3410008A3410008C0
:10405000A3410008A3410008A3410008A3410008B0
:10406000A3410008A3410008A3410008A3410008A0
:10407000A3410008A3410008A3410008A341000890
:10408000A3410008A3410008A3410008A341000880
:10409000A3410008A3410008A3410008A341000870
:1040A000A3410008A3410008A3410008A341000860
:1040B000D964000811650008A3410008A341000865
:1040C000A3410008A3410008A3410008A341000840
:1040D000A341000871690008A3410008A34100083A
:1040E000A3410008A3410008A3410008000000000C
:1040F00000000000000000000000000000000000C0
:1041000000000000A3410008A341000800000000D7
:10411000A3410008A34100080000000000000000C7
:10412000A3410008A3410008A3410008A3410008DF
:10413000000000000000000000000000000000007F
:10414000000000000000000000000000A341000883
:104150000000000000000000A3410008A341000887
:10416000000000000000000000000000A341000863
:10417000DFF810D000F072F900F028FA004800478C
:1041800009A3000848180020064880470648004751
:10419000FEE7FEE7FEE7FEE7FEE7FEE7FEE7FEE7F7
:1041A000FEE7FEE7316400087141000830B410B545
:1041B0000348804730BCAE4630BC024800477047D9
:1041C00015C10008215500082DE9F05F05460020C3
:1041D00092469B4688460646814640241BE0284678
:1041E00041464746224600F060F953465A46C01AF7
:1041F000914110D311461846224600F047F92D1A76
:1042000067EB01084F4622460120002100F03EF9ED
:1042100017EB00094E41201EA4F10104DFDC4846E3
:1042200031462A464346BDE8F09F2DE9FE4F8046C1
:1042300081EA0300C00F0C46009021F0004123F0FA
:104240000045B8EB0200A94105D240462146904600
:104250001C460B46024623F00040104347D0270D72
:10426000C7F30A00C3F30A510290401A0190402894
:104270006BDAC3F3130040F4801B0098924620B120
:104280000023D2EB030A63EB0B0B01985946C0F1F4
:104290004002504600F0FAF806460D465046594690
:1042A000019A00F012F910EB08006141002487EA3E
:1042B000115284EAE7731A4340D0009A62B3019A1C
:1042C000012A4FEA075215DC001B61EB02014FF097
:1042D000004202EA0752CDE90042001C41F580117C
:1042E00032462B4600F012F903B0BDE8F08F40468D
:1042F0002146F9E7001B61EB0201001C41F5801328
:1043000000185B412018A2F5001747EB030140EAB3
:10431000D570B6196D4111E06D084FEA360645EAD1
:10432000C0754FEA0752001B61EB0201001C41F50A
:10433000801149084FEA30000019514132462B469E
:1043400003B0BDE8F04F00F0D2B800980122400061
:104350000023D0EB020263EBE073009821464FEAA2
:10436000E074B8EB000061EB0401E9E783F000437F
:104370005BE781F0004158E72DE9FE4F81EA030435
:1043800004F0004421F0004100944FF0000B23F0B2
:10439000004350EA01045ED052EA03045BD0C3F349
:1043A0000A54C1F30A552C44A4F2F3340194A0FB3F
:1043B0000254C1F3130141F48011C3F3130343F416
:1043C000801301FB024400FB034E840A970A44EA6F
:1043D000815447EA8357A4FB076802958D0A05FBC1
:1043E00007854FEA932C04FB0C542705029D4FEAE6
:1043F000065847EA1637B5EB08056EEB070C870E33
:10440000920E47EA811742EA8312A7FB0201B6EB3C
:104410000B0164EB00042B0D43EA0C335E1844EBF4
:104420001C50DA465146E7FB0201C5F313044FEA7C
:104430000B3343EA14534FEA0432019C43EA060368
:10444000A4F10C040294009CCDE900B400F05EF8E5
:1044500003B0BDE8F08F00200146F9E71CB509481C
:104460000090094801900546009C06E0E06840F095
:10447000010394E8070098471034AC42F6D3FFF7E5
:104480007BFE000028C6000848C60008202A04DB7E
:10449000203A00FA02F1002070479140C2F1200357
:1044A00020FA03F3194390407047202A04DB203A96
:1044B00021FA02F00021704721FA02F3D040C2F144
:1044C00020029140084319467047202A06DBCB178B
:1044D000203A41FA02F043EAE07306E041FA02F3BF
:1044E000D040C2F12002914008431946704710B5F0
:1044F000141E73F1000408DA401C41F10001921807
:104500005B411A4301D120F0010010BD2DE9F04DAF
:1045100092469B4611B1B1FA81F202E0B0FA80F204
:1045200020329046FFF7B2FF04460F4640EA0A00E9
:1045300041EA0B0153465A46084313D0114653EA49
:10454000010019D0C8F140025046FFF7AEFF054602
:104550000E46504659464246FFF798FF084305D09D
:10456000012004E020463946BDE8F08D00200543D7
:1045700046EAE0762C4337430A986305E40AA0EB49
:1045800008000022FD0A44EA47540A3002D5002000
:104590000146E9E7010510196941DDE908450019FF
:1045A0006941BDE8F04DA2E7D2B201E000F8012B6D
:1045B000491EFBD270470022F6E710B513460A46A3
:1045C00004461946FFF7F0FF204610BD7CB50748AA
:1045D0000090074801900546009C04E020460168D1
:1045E00008448047241DAC42F8D17CBD48C6000871
:1045F0004CC60008F0B480EA0102D40F4200B2EBCE
:10460000410F02D20246084611464A0042D0C30D6D
:10461000DDB2C1F3C752AD1A202D35DAC1F3160150
:1046200041F4000204B15242C5F1200602FA06F13B
:104630002A411044B3EBD05F23D0C4B1012DA0EBCD
:10464000C35009DCF0BC4FF0004202EAC352DBB2B7
:1046500000F5000000F037B9400000F1807000EB79
:10466000C350A0F1807040EAD170490009E04908C8
:1046700041EAC071A0EBC35000F50000400800EB18
:10468000C350F0BC00F016B96142012202EB4101B7
:10469000001BF6E7F0BC704781F00041AAE780F00C
:1046A0000040A7E780EA010210B502F00043400095
:1046B00022D04A001FD0010E01EB1261C0F3560058
:1046C000C2F3560240F4000042F40002A0FB0220B4
:1046D00000047F39140400D0401C50EA124001D479
:1046E0004000491EC2B20C0604EBD010401C40082A
:1046F000802A02D003E0002010BD20F00100002934
:1047000000DA0020184310BD002801DBC0F1004092
:10471000002901DBC1F10041814201D8012070472D
:1047200000207047002801DBC0F10040002901DBB8
:10473000C1F10041814201D2012070470020704741
:10474000002801DBC0F10040002901DBC1F100417C
:10475000814201D30120704700207047002801DB0F
:10476000C0F10040002901DBC1F10041814201D9C3
:104770000120704700207047002801DBC0F1004095
:10478000002901DBC1F10041814201D101207047C4
:1047900000207047C10F80EAE0700844CA079623E2
:1047A000002100F090B896230022114600F08BB84B
:1047B0000EB540F2334102910021CDE900110A46C5
:1047C0000B46FFF7A3FE03B000BD00F0004220F04F
:1047D0000040C10DC0F3160040F400007F2901DA4B
:1047E00000207047962903DCC1F19601C84001E022
:1047F00096398840002AF4D04042704720F00040AB
:10480000C10DC0F3160040F400007F2901DA00203A
:104810007047962903DCC1F19601C840704796396C
:1048200088407047C1F30A5210B5C1F3130140F23A
:10483000FF3341F480119A4201DA002010BD40F2AA
:1048400033439A42A2F2334203DC5242FFF72DFE79
:1048500010BD904010BD00F0004230F000400AD082
:10486000C10D01F56071C0F3160042EA0151C208A2
:1048700040071143704700200146704701F0004394
:1048800030B421F0004150EA010206D00A0DA2F531
:104890006072C1F31301002A02DC30BC00207047B3
:1048A000440F44EAC104C100E01830BC00EBC25020
:1048B000AFF300800029A8BF7047401C490008BF23
:1048C00020F00100704710B4B0FA80FC00FA0CF040
:1048D00050EA010404BF10BC704749B1CCF1200478
:1048E00021FA04F411FA0CF118BF01212143084305
:1048F000A3EB0C01CB1D4FEA00614FEA102042BF31
:10490000002010BC704700EBC35010440029A4BF26
:1049100010BC7047401C490008BF20F0010010BCCB
:10492000704770B58C1810F8015B15F0070301D1C2
:1049300010F8013B2A1106D110F8012B03E010F802
:10494000016B01F8016B5B1EF9D12B0705D4002325
:10495000521E0DD401F8013BFAE710F8013BCB1AC7
:10496000921C03E013F8015B01F8015B521EF9D5BC
:10497000A142D8D3002070BDFEE7000040F61040F1
:10498000C4F201004FF4236101604FF4E47141600F
:10499000704700007047000040F61040C4F201006C
:1049A0004FF4036101604FF4727141607047000081
:1049B000438E4FF6FF72934201F103011CBF5A1C54
:1049C000428606294FF0000C34D8DFE801F00433AA
:1049D0001C330E332A0000214FF0040CC18580F8EF
:1049E0003010816280F82C1024E0018C00234FF0FD
:1049F000010C8A42438638BF012380F8343038BF27
:104A00004FF0090C16E0018C00234FF0020C8A4293
:104A1000438638BF012380F8343038BF4FF00A0C8A
:104A200008E00021C18580F83010816280F82C10E8
:104A30004FF0030C70B5024612F8303F12F8094CE3
:104A400012F8035CE6B286F001012943B1FA81F164
:104A50004D0902F8034C53B1002D6BD00021C185E4
:104A600080F83010816280F82C10604670BD438D54
:104A700023B3591E0B04418513D04FF0000E0EBB1B
:104A8000018D048B4B1C99B2A142038535D1BEF137
:104A9000000F2ED190F82C30012B2AD14FF0060CAC
:104AA00029E090F82C10012908D100214FF0050CC5
:104AB000C18580F83010816280F82C104FF0010E13
:104AC000002EDDD0B5B3014631F8282F31F8103C67
:104AD0009A422DD3438B9A4222D290F82C208EF00A
:104AE0000103013A18BF01221A4321D1828B42856A
:104AF0001EE000F12C0201231370428B914219D366
:104B0000C18DC28B01318BB2B3FBF2F606FB1232C0
:104B1000002A0CBF4FF0080C0A46C285604670BDE3
:104B200000224FF0070CC28580F830200A600A711D
:104B300000200880604670BD2DE9F0470168868836
:104B40008968826801EA060784899268B91BB1FA0C
:104B500081F102EA040503694FEA5119291BB1FAF0
:104B600081F2818A9B684FEA521C03EA010EAEEB88
:104B70000102B2FA82F25309827D80F82730002ABE
:104B800090F8242080F8263024D04A452FD0B5EB69
:104B9000040A18BF4FF0010A2B1B90F82580B3FAC6
:104BA00083F35B09B8F1010218BF0122B74242EA60
:104BB00003061FD166B1B8F1000F08BFA5423DD072
:104BC000A8EB0C02B2FA82F2520912EA0A0F3DD0A7
:104BD00001221EE04A450AD04FF0FF32A54208BF2D
:104BE0000122B74280F8249080F825C017D1022016
:104BF00000221DE066B1B8F1000F08BFA54221D028
:104C0000A8EB0C02B2FA82F2520912EA0A0F27D07C
:104C1000FF224FF0000C80F8249080F825C0D3B21A
:104C20006FF00200012B08BF0320002B08BF0220F9
:104C30008E4518BF024650B2BDE8F087FF224FF004
:104C4000010CE8E74FF0010C0122E4E788EA0C02CE
:104C500085EA04031A43B2FA82F252095242DAE7B1
:104C600088EA0C0285EA04031A43B2FA82F2520976
:104C7000D1E700002DE9F0434FF0805707EAD10754
:104C80004FF0005606EA92064FF08045384305EA99
:104C90005305304340F6007E40EA0509C2F2000E9B
:104CA0005EE8014F601C4EE80107002FF8D140F686
:104CB000802804F03F00C2F2000808EB001C6046A8
:104CC0004FF4700650F80C5F06EA84376C0171D41B
:104CD00005F000443E1950E8004F46EA0906AC4290
:104CE00046F0406608D140E800653DB9BFF35F8FEC
:104CF00001253DB13FE300BFBFF32F8F0025002DFD
:104D000040F03983650155D404F000457E1950E820
:104D1000005F46EA0906A54246F0406608D140E831
:104D200000643CB9BFF35F8F01243CB123E300BFB3
:104D3000BFF32F8F0024002C40F01D836C0139D469
:104D400005F000443E1950E8004F46EA0906AC421F
:104D500046F0406608D140E800653DB9BFF35F8F7B
:104D600001253DB107E300BFBFF32F8F0025002DC4
:104D700040F0018365011DD404F000457E1950E820
:104D8000005F46EA0906A54246F040660AD140E8BF
:104D900000644CB9BFF35F8F0124002C3FF496AF41
:104DA000E9E200BFBFF32F8F0024002C3FF48EAF49
:104DB000E1E200BF5EE8014F601C4EE80107002FF2
:104DC000F8D104F03F0008EB001C60464FF4700679
:104DD00050F80C5F06EA84376C0167D405F0004494
:104DE0003E1950E8004F46EA0906AC4246F04066DC
:104DF00006D140E800652DB9BFF35F8F012502E0C1
:104E0000BFF32F8F0025002D40F0B58265014DD4F2
:104E100004F000457E1950E8005F46EA0906A54205
:104E200046F0406606D140E800642CB9BFF35F8FBE
:104E3000012402E0BFF32F8F0024002C40F09B825E
:104E40006C0133D405F000443E1950E8004F46EAA7
:104E50000906AC4246F0406606D140E800652DB92F
:104E6000BFF35F8F012502E0BFF32F8F0025002DD8
:104E700040F08182650119D404F000457E1950E8A4
:104E8000005F46EA0906A54246F0406606D140E8C2
:104E900000642CB9BFF35F8F012402E0BFF32F8FB2
:104EA0000024002C3FF498AF65E200BF5EE8014F9C
:104EB000601C4EE80107002FF8D104F03F0008EB1A
:104EC000001C60464FF4700650F80C5F06EA843709
:104ED0006C0167D405F000443E1950E8004F46EAE3
:104EE0000906AC4246F0406606D140E800652DB99F
:104EF000BFF35F8F012502E0BFF32F8F0025002D48
:104F000040F0398265014DD404F000457E1950E827
:104F1000005F46EA0906A54246F0406606D140E831
:104F200000642CB9BFF35F8F012402E0BFF32F8F21
:104F30000024002C40F01F826C0133D405F00044A3
:104F40003E1950E8004F46EA0906AC4246F040667A
:104F500006D140E800652DB9BFF35F8F012502E05F
:104F6000BFF32F8F0025002D40F00582650119D475
:104F700004F000457E1950E8005F46EA0906A542A4
:104F800046F0406606D140E800642CB9BFF35F8F5D
:104F9000012402E0BFF32F8F0024002C3FF498AFD0
:104FA000E9E100BF5EE8014F601C4EE80107002FF9
:104FB000F8D104F03F0008EB001C60464FF4700687
:104FC00050F80C5F06EA84376C0167D405F00044A2
:104FD0003E1950E8004F46EA0906AC4246F04066EA
:104FE00006D140E800652DB9BFF35F8F012502E0CF
:104FF000BFF32F8F0025002D40F0BD8165014DD4FA
:1050000004F000457E1950E8005F46EA0906A54213
:1050100046F0406606D140E800642CB9BFF35F8FCC
:10502000012402E0BFF32F8F0024002C40F0A38165
:105030006C0133D405F000443E1950E8004F46EAB5
:105040000906AC4246F0406606D140E800652DB93D
:10505000BFF35F8F012502E0BFF32F8F0025002DE6
:1050600040F08981650119D404F000457E1950E8AB
:10507000005F46EA0906A54246F0406606D140E8D0
:1050800000642CB9BFF35F8F012402E0BFF32F8FC0
:105090000024002C3FF498AF6DE100BF5EE8014FA3
:1050A000601C4EE80107002FF8D104F03F0008EB28
:1050B000001C60464FF4700650F80C5F06EA843717
:1050C0006C0165D405F000443E1950E8004F46EAF3
:1050D0000906AC4246F0406606D140E800652DB9AD
:1050E000BFF35F8F012502E0BFF32F8F0025002D56
:1050F00040F0418165014BD404F000457E1950E831
:10510000005F46EA0906A54246F0406606D140E83F
:1051100000642CB9BFF35F8F012402E0BFF32F8F2F
:105120000024002C40F027816C0131D405F00044AC
:105130003E1950E8004F46EA0906AC4246F0406688
:1051400006D140E800652DB9BFF35F8F012502E06D
:10515000BFF32F8F0025002D40F00D81650117D47E
:1051600004F000457E1950E8005F46EA0906A542B2
:1051700046F0406606D140E800642CB9BFF35F8F6B
:10518000012402E0BFF32F8F0024002C98D0F2E01E
:105190005EE8014F601C4EE80107002FF8D104F0D3
:1051A0003F0008EB001C60464FF4700650F80C5F9F
:1051B00006EA84376C0165D405F000443E1950E8D6
:1051C000004F46EA0906AC4246F0406606D140E888
:1051D00000652DB9BFF35F8F012502E0BFF32F8F6C
:1051E0000025002D40F0C78065014BD404F0004538
:1051F0007E1950E8005F46EA0906A54246F040667F
:1052000006D140E800642CB9BFF35F8F012402E0AF
:10521000BFF32F8F0024002C40F0AD806C0131D4FF
:1052200005F000443E1950E8004F46EA0906AC423A
:1052300046F0406606D140E800652DB9BFF35F8FA8
:10524000012502E0BFF32F8F0025002D40F0938051
:10525000650117D404F000457E1950E8005F46EA66
:105260000906A54246F0406606D140E800642CB924
:10527000BFF35F8F012402E0BFF32F8F0024002CC7
:1052800098D078E05EE8010F471C4EE80176002ECA
:10529000F8D100F03F0708EB071C4FF4700404EA54
:1052A0008038604650F80C7F0EF10C057C0100F14F
:1052B000888007F0004408EB040650E8004F46EAF7
:1052C0000906BC4246F0406606D140E800672FB9A7
:1052D000BFF35F8F012702E0BFF32F8F0027002F5E
:1052E00049D166016DD404F00046464450E8007F81
:1052F00046EA0906A74246F0406606D140E8006447
:105300002CB9BFF35F8F012402E0BFF32F8F00247D
:105310008CBB7C0155D407F0004408EB040650E830
:10532000004F46EA0906BC4246F0406606D140E816
:1053300000672FB9BFF35F8F012702E0BFF32F8F04
:105340000027C7B966013CD404F00046464450E843
:10535000007F46EA0906A74246F0406606D140E8CB
:1053600000642CB9BFF35F8F012402E0BFF32F8FDD
:105370000024002C9AD086F0004404F0004521F06F
:105380000041294422F0004223F000432A442B44E8
:105390008CE80E0024F080610EF10805BFF35F8FEA
:1053A00050E8002F40E80012002AF9D1012000BF88
:1053B00055E8001F013145E80012002AF8D1BDE888
:1053C000F0830020F4E7000040F61040C4F2010032
:1053D0004FF4076101604FF4627141607047000053
:1053E00040F61040C4F2010040F6480101604FF45D
:1053F0006C71416070470000FEE70000FEE70000AE
:105400007047000040F61040C4F201004FF40661FE
:1054100001604FF4667141607047000070B582B062
:10542000044608461146FFF737F9606160690021BC
:10543000C4F2C821FFF792F930B960690021CCF2BB
:10544000C821FFF76FF908B1002003E06169E06946
:10545000FFF7D0F8E0614CF60005E069C4F22F7563
:105460002946FFF75FF9002808BFE561E0690021E0
:105470000025FFF773F9002808BFE561D4E900565D
:1054800060692169FFF708F9A06160692946FFF7A3
:1054900009F9E169054608463146FFF703F9616AF3
:1054A0000190009101980099FFF72EF9002804BFA0
:1054B000009801900198009981F00041FFF740F9B0
:1054C00018B9009880F00040019001982946FFF734
:1054D00091F8A168A26905461046FFF7E3F8014676
:1054E0002846FFF787F8206260692061206AA16A78
:1054F000FFF70AF9002804BFA06A2062206AA16AA7
:1055000081F00041FFF71CF9002804BF0020206251
:10551000206A02B070BD00007047000070470000B4
:105520002DE9F04F81B040F20400C2F200000168A2
:1055300041F200284A1E0029C2F2000802600EDC77
:105540004FF4FA71016098F8FA0098F8FB1080F0B7
:10555000010088F8FA0081F0010088F8FB0041F2B0
:105560003040C2F200000068804741F21440C2F2AD
:105570000000017801290AD141F21041C2F2000174
:105580000A78002A07BF02210170501E087041F2FC
:105590000040C2F20000017800291CBF01390170EF
:1055A00041F22840C2F2000001680131016098F820
:1055B000FC0068B140F20800C2F200000178013935
:1055C0000A06017009D10521017002F0BDFB04E05B
:1055D00002F0BAFB012088F8190198F8150141F68C
:1055E000104940F6144540F610464FF600074FF6B6
:1055F000004BC4F20109C4F20105C4F20106CFF662
:10560000FF77CFF6FF7BE8B198F816410A2C00F23D
:105610004D81DFE814F00B00BB00A500AE00910047
:10562000C400CB00B600FA009900ED0040F228213A
:10563000C2F200010F20087040F22921C2F20001DD
:1056400008702EE198F8140198F812A198F81371D7
:10565000042800F23A82DFE800F0035237462900BE
:10566000D8E90C402146FFF787F820B1D8E90E10A1
:10567000FFF782F8A0B998F80A11204619B101295C
:1056800008D1D8F83800FFF7A0F840F28611C2F22E
:1056900000010880D8F83800C8F83440C8F83C0049
:1056A00040F28610C2F200000088EAE140F22B20AE
:1056B000C2F200000A21017040F22C2198F8E900A2
:1056C000C2F200010D220CE040F22B20C2F20000D9
:1056D0000B21017040F22C2198F80601C2F2000162
:1056E00014220A70ECE140F22B21C2F200010F20DB
:1056F000087040F22C21C2F200010870E0E140F293
:105700000100C2F20000017840F2861401390170F4
:105710000806C2F2000440F0B38198F80A0101289B
:1057200000F09B81002840F0AB81D8F81000D8F839
:105730005410FEF7B1FFA0E198F80C0100284AD000
:1057400001283AD00424B1E040F22821C2F200013D
:105750000120087040F22921C2F20001002252E02B
:1057600098F80A01002864D001285CD1D8F86000BC
:1057700071E098F80A0100285ED0012862D10C205F
:105780005BE0D8F88000FFF720F86BE098F80A019A
:1057900000285ED0012846D1D8F84C005BE098F88C
:1057A0000E01C0B1012808D005247FE098F810014F
:1057B000012810D0002840F04E8140F22820C2F28B
:1057C00000001321017040F22920C2F200000021E4
:1057D00001700E2065E040F22820C2F20000002196
:1057E000017040F22921C2F200010C20087058E03B
:1057F00040F22821C2F200010F20087040F2292156
:10580000C2F2000114220A704BE040F22820C2F2DA
:1058100000000121017040F22920C2F200000021A5
:10582000017004203DE040F28210C2F200000088C6
:1058300018E0D8F858000EE00A2040F22921C2F200
:105840000001087040F22821C2F200010F20087008
:1058500027E0D8F84400FEF7B8FF40F28211C2F208
:105860000001088081B28A0841F27B435A4340F22A
:105870002823520CC2F200031A704CF6CD42514359
:10588000C90C41F69A124A43120C02EB820240F212
:105890002923A1EB4202C2F200031A70F62211FB87
:1058A000020040F22A21C2F200010870042049F8E7
:1058B00007004FF480504FF400614FF48062C5F848
:1058C000FC03C5F8FC13C5F8FC234FF4004246F86E
:1058D0000B208022C9F800204022C9F8002046F899
:1058E0000B0040F6F83046F80B10306040F62F20E1
:1058F000C2F200000078DFE800F0055E2F40227859
:10590000854B920040F22820C2F2000000784CF251
:105910006851C0F6000151F82000804798F8160140
:10592000042100F0FE00082804BF4FF40060286046
:105930004FF60400CFF6FF7049F8001086E040F6FD
:10594000F81030604FF4007028604FF60440CFF636
:10595000FF704FF4004178E040F22A20C2F20000CC
:1059600000784CF26851C0F6000151F820008047E1
:105970004FF40060C5F8000468E040F6F8103060AD
:105980004FF4007028604FF48060C5F800045DE0BB
:105990004FF420600A2C08BF40F6C83030604FF446
:1059A000FC7008BF302028604FF60440CFF6FF702F
:1059B0004FF4805149E040F22920C2F20000007803
:1059C0004CF26851C0F6000151F82000804798F869
:1059D000160100F0FE00082804BF4FF400602860A4
:1059E0004FF48050C5F8000430E040F6F810306005
:1059F0004FF40070286041F61440C4F20100802189
:105A0000016023E04FF4066030604FF46670286058
:105A100041F61440C4F201004021016016E00A2C56
:105A200006D14FF4206030604FF4FC70286006E02F
:105A30004CF26850C0F6000050F8240080474FF642
:105A40000440CFF6FF704FF40061315040F62F2034
:105A5000C2F2000052E2062428E7D8F81000D8F875
:105A60005410FEF719FE46F26761C3F6E671FEF7C1
:105A700019FE4FF08441FEF7BDFDFEF7A6FE208023
:105A8000208881B28A0841F27B435A4340F22B239B
:105A9000520CC2F200031A704CF6CD425143C90CAD
:105AA00041F69A124A43120C02EB820240F22C2376
:105AB000A1EB4202C2F200031A70F62211FB0200AF
:105AC00040F22D21C2F200010870BAF1040F00F279
:105AD000A580DFE80AF0035237462900D8E90840DC
:105AE0002146FEF749FE20B1D8E90A10FEF744FE30
:105AF000A0B998F80A11204619B1012908D1D8F89F
:105B00002800FEF762FE40F28411C2F20001088014
:105B1000D8F82800C8F82440C8F82C0040F28410B7
:105B2000C2F20000008855E040F22520C2F20000D9
:105B30000A21017040F2262198F8E800C2F2000123
:105B40000D220CE040F22520C2F200000B21017072
:105B500040F2262198F80401C2F2000114220A70D2
:105B600057E040F22521C2F200010F20087040F2F8
:105B70002621C2F2000108704BE040F20000C2F2A0
:105B80000000017840F28414013901700806C2F265
:105B900000041ED198F80A01012807D0C8B9D8F826
:105BA0000000D8F84010FEF777FD0FE0D8F80000AD
:105BB000D8F84010FEF770FD46F26761C3F6E67153
:105BC000FEF770FD4FF08441FEF714FDFEF7FDFD7A
:105BD0002080208881B28A0841F27B435A4340F2F8
:105BE0002523520CC2F200031A704CF6CD425143E9
:105BF000C90C41F69A124A43120C02EB820240F29F
:105C00002623A1EB4202C2F200031A70F62211FB16
:105C1000020040F22721C2F200010870042F58D878
:105C2000DFE807F00319570D4400D8E92E4021465C
:105C3000FEF7A2FD00284CD1C8F8BC4013E040F2AA
:105C40002221C2F200010F20087040F22321C2F28B
:105C50000001087038E0D8E931402146FEF78CFD9C
:105C6000B8BBC8F8C8402046FEF7AFFD81B28A082D
:105C700041F27B435A4340F22223520CC2F200030A
:105C80001A704CF6CD425143C90C41F69A124A4360
:105C9000120C02EB820240F22323A1EB4202C2F279
:105CA00000031A70F62211FB02000DE040F22220E0
:105CB000C2F200000A21017040F2232198F8E800A6
:105CC000C2F200010D220A7040F22421C2F200014A
:105CD00008704FF600010420CFF6FF7149F801006B
:105CE0004FF480504FF400614FF48062C5F8FC031C
:105CF000C5F8FC13C5F8FC234FF4004246F80B200E
:105D00008022C9F800204022C9F8002046F80B0084
:105D100040F6F83046F80B10306040F62E20C2F204
:105D200000000078DFE800F005722C501981935FC5
:105D3000A60040F22B20C2F2000000784CF268511D
:105D4000C0F6000151F8200080474FF60400CFF65E
:105D5000FF70042149F80010CCE040F22320C2F289
:105D6000000000784CF26851C0F6000151F82000A4
:105D700080474FF60440CFF6FF704FF40041B8E083
:105D800040F22D20C2F2000000784CF26851C0F6BB
:105D9000000151F82000804798F80201002840F0E7
:105DA0008B8098F8FE00012840F0868098F8060164
:105DB000002840F0818098F81C01022878D0012842
:105DC0007AD000287CD07EE040F22220C2F200008F
:105DD00000784CF26851C0F6000151F8200080476D
:105DE0004FF4806071E040F22620C2F2000000789B
:105DF0004CF26851C0F6000151F8200080474FF680
:105E00000440CFF6FF704FF4805172E040F22C2036
:105E1000C2F2000000784CF26851C0F6000151F85F
:105E2000200080474FF480504FE040F22420C2F21F
:105E3000000000784CF26851C0F6000151F82000D3
:105E4000804741F61440C4F20100802110E040F286
:105E50002520C2F2000000784CF26851C0F6000123
:105E600051F82000804741F61440C4F2010040215F
:105E700001603FE040F22720C2F2000000784CF2BF
:105E80006851C0F6000151F82000804798F80001E1
:105E900010BB98F8FC0001281ED198F80401D8B96D
:105EA00098F81B01022813D0012815D0C0B11AE0C0
:105EB00098F8FB00012803D14FF40060306002E045
:105EC0004FF4006028604FF40060C5F8000411E052
:105ED00098F8FA00012803D14FF40060306002E026
:105EE0004FF4006028604FF60440CFF6FF704FF487
:105EF0000061315040F62E20C2F2000001783923B3
:105F00004A1CD1B25943490A01EBC10398F80A115E
:105F1000D21A0129027004D031B90120C5F8000459
:105F200002E00120C5F8FC03D5F8F403400410D4C6
:105F300041F2BC30C2F2000001780131CAB2152A28
:105F4000017012D300210170032088F8FE000120A7
:105F500009E056F8080C400607D541F2BC31C2F200
:105F600000010020087088F80901D8F8100000210D
:105F7000C4F24831FEF7D6FB98F8026104460028C7
:105F800018BF0124002E4FD0012E6ED141F2BE3039
:105F9000C2F20000037841F2BD32C2F200020021D9
:105FA000002B11706CD0D8F888502846FEF7E4FB1F
:105FB000002840F0938141F2C030C2F20000018815
:105FC00040F2A23301318AB29A424FF0010288F8BE
:105FD000FE2001805BD341F2C237C2F2000739785C
:105FE0004FF00009A0F80090481CC1B20629387093
:105FF0003BD32846FEF72FFC49F69A1249F699132F
:10600000C9F69912CBF6B973FEF70FF9FEF736FC15
:1060100000210546FEF778FB002818BF0025C8F8C8
:10602000885087F8009020E041F2BD31C2F20001B3
:106030000B7841F2BE32C2F2000200201070A3B908
:1060400001220A70D8F8801088F8FE20C8F888105D
:1060500041F2C031C2F20001088041F2C231C2F205
:1060600000010870FA20C8F8F00098F8FE00022835
:106070000DD141F2C330C2F20000012101700DE0E8
:106080000122027088F8FE10032088F8140141F202
:10609000C330C2F200000078012825D1D8F88C0066
:1060A0004FF07E51FEF7A6FA48F20001C4F2BB4160
:1060B000C8F88C00FEF736FB38B198F8F9000028D4
:1060C00018BF042088F814010EE041F2C331C2F277
:1060D00000010020012E0870C8F88C0004D188F857
:1060E000FE000CB10320EDE740F20C09C2F20009FA
:1060F00099F800000138010689F8000040F0298174
:1061000040F6004AC4F2000A0020CAF8340040F207
:10611000081040F64022C2F20000C2F200020068FD
:10612000116864235B29A0FB0310ACBF12685A22DC
:10613000D317571A83410DDA8C1A60EBE27503F01E
:10614000A1FD24184D4100BF03F09CFD001B71EB25
:106150000500F9DB42F20040C4F2010001690322AC
:1061600041F460610161416B62F304014163816844
:1061700041F4800181600168890709D401688907B9
:106180005CBF01685FEA817102D401688907F2D5BA
:10619000C06C84B22046FEF706FB98F80811C8F8D8
:1061A000780049B940F6FD00844205D3042088F800
:1061B0000601022088F81401D8F81000D8F854100D
:1061C000D8F83050FEF768FA41F2B836C2F200064D
:1061D0003168044608462946FEF7CEFA41F2B43B40
:1061E000C2F2000B40B941F28830C2F20000002137
:1061F000C16135608BF8001041F2C430C2F200007A
:1062000005F076FA8008FEF7CEFA98F8061198F8AD
:10621000FE200029C8F8100008BF012A10D0032A68
:1062200000D022B90020C8F870008BF800000029C7
:1062300000F080800020C8F870008BF800007DE03E
:10624000D8F830500021C4F2F0112846FEF7D2F9F8
:10625000064620463146FEF781FA00210746CCF279
:10626000F0112846FEF7C6F9002F46D10146204618
:10627000FEF758FA002840D1022088F81C0141F2AC
:106280008830C2F2000029462246FFF7C7F89BF883
:106290000010C8F8700000294CD10021C4F2201170
:1062A0002846FEF7A7F901462046FEF757FA0021D7
:1062B0000646CCF220112846FEF79CF9D6BB0146D3
:1062C0002046FEF72FFAA8BB01208BF8000040F211
:1062D0000C10C2F20000002101702BE098F8FE00C3
:1062E00000283FF4D1AE01287FF4C1AE0020002C7D
:1062F00088F8FE007FF4C8AEC9E620463146FEF7B6
:1063000003FA41F28832C2F200020021D16138B9A9
:106310000120C8F870108BF8001088F81C0109E003
:1063200045F20000C4F25050C8F870008BF800101D
:1063300088F81C11D8F87000FEF760FACAF834002B
:10634000DAF8000040F00100CAF800000A2089F8DD
:10635000000040F20A00C2F20000018801390A047C
:1063600001800BD141F22C41C2F200010A68C8F849
:10637000C02000220A604FF47A71018040F2B21509
:10638000C2F20005287800284FD142F20040C4F242
:106390000100C168102241F4E011C160416B62F359
:1063A00004014163816841F48001816001688907CB
:1063B00009D4016889075CBF01685FEA817102D472
:1063C00001688907F2D5C06C40F2B811C2F2000131
:1063D00008800888FEF7ECF943F6E30244F63863D8
:1063E000CEF28E32C3F6C873FDF7C6FF4EF63622E4
:1063F00040F6F553C1F63B32CCF27103FDF715FFC1
:10640000FEF73CFA0021C4F248210446C8F87C009B
:10641000FEF7A4F948B920460021FEF775F90028D7
:1064200002BFC8F800400120287001B0BDE8F08F1D
:1064300041F20000C4F20200C16941F08051C16123
:1064400047F25001C4F200010A7842F004020A70D7
:10645000C16921F08051C161016841F00101016011
:106460000168890709D4016889075CBF01685FEA90
:10647000817102D401688907F2D5416821F00301D6
:10648000416000BF416811F00C0F0BD0416811F062
:106490000C0F07D0416811F00C0F03D0416811F0C8
:1064A0000C0FEFD101684FF6FF72CFF6F262114088
:1064B00001600021416041F61071C1624FF480110A
:1064C00001634FF41F0181604EF60850CEF20000C8
:1064D0004FF0006101607047B0B51024C4F20004B1
:1064E0002068800744BF54F8040C5FEA807000D431
:1064F000B0BD41F22C45C2F2000528684FF07E5134
:10650000FEF778F828606FF002002060B0BD000050
:106510002DE9F04F83B040F20049C4F20009D9F8E8
:106520001000C00700F0DD8141F2002AC2F2000A2B
:106530009AF81801012840F0C28140F2EC10C2F232
:10654000000000784BF60004C4F2087440F2BC1B53
:106550000128C2F2000B25460DD144F20005DBF8FC
:106560000800C4F29C552946FEF7F8F8002808BF39
:10657000CBF8085001E0CBF8085040F2E810DAF808
:106580002080C2F2000000684146FEF7F5F80028BE
:1065900040F0BA80DBF81C004FF07C51FEF782F827
:1065A000CBF81C004046FEF710F900278DF80B7061
:1065B000ADF808708DF80770DAF8B850002106467B
:1065C000C4F2A0112846FEF79FF848BBB0084A283D
:1065D0008DF8077060D86420ADF8080000208DF8B1
:1065E0000B009DF80B0013287CD84CF2D450C0F659
:1065F000000000BFBDF808109DF807201144B1420B
:1066000074D2BDF808100A31ADF808109DF80B10CF
:1066100001318DF80B109DF80B101429EAD365E0B9
:106620000021C4F2A0112846FEF798F800284FF088
:10663000000761D1284600210025FEF765F80028F3
:106640005AD1B0084A288DF8075000F266816420BC
:106650000027ADF808008DF80B709DF80B0013288B
:106660004AD84CF2FD50C0F60000BDF808109DF865
:1066700007201144B14239D2BDF808100A31ADF8F3
:1066800008109DF80B1001318DF80B109DF80B10C0
:106690001429EAD300272FE04FF49670ADF80800D4
:1066A00014208DF80B009DF80B0027281AD84CF207
:1066B000D450C0F6000000BFBDF808109DF80720B8
:1066C0001144B14212D2BDF808100A31ADF80810D9
:1066D0009DF80B1001318DF80B109DF80B10282937
:1066E000EAD303E04CF2D450C0F600009DF80B1042
:1066F0004056FEF74FF8074640F2E810C2F200009D
:10670000CAF8D870C0F8008040F2F010C2F2000061
:1067100004F0EEFF8008FEF746F8DAF84010CAF8F9
:106720000000FDF7B9FF9AF80011064619B19AF872
:106730001001012869D19AF81A01012840F09580CA
:106740000021C4F2C8214046FDF754FF07463046F9
:106750003946FEF703F800210546CCF2C821404631
:10676000FDF748FF002D05466BD130462946FDF761
:10677000D9FF002865D10021C4F2A0014046FDF7F1
:1067800039FF01463046FDF7E9FF00210446CCF20F
:10679000A0014046FDF72EFF002C40F0A5800146E9
:1067A0003046FDF7BFFF002840F09E8040F2EE1516
:1067B000C2F20005298802208AF81B01481C81B218
:1067C0000F292880C0F09D80DBF8080044F200010A
:1067D000CCF29C51FDF70EFF44F20001C4F29C5133
:1067E0000446FDF791FF00284FF0000040F2EC1145
:1067F0001CBF44F20004C4F29C5428800120C2F261
:106800000001CBF8084008707BE0012908BF002890
:106810002BD140F2EC110020C2F20001087040F2CE
:10682000EE11C2F200010880CAF86800CBF820001F
:10683000CBF81C00CBF81400CBF81000CBF80C0000
:1068400013E030463946FDF75FFF18B901208AF89A
:106850001B0111E030462946FDF772FF28B90020E0
:10686000CAF868408AF81B0109E0DAF86840204657
:106870000021FDF773FF10B90024CAF868409AF8A8
:106880000401B8B140F2EC110020C2F2000108701E
:1068900040F2EE11C2F200010880CAF86800CBF89D
:1068A0002000CBF81C00CBF81400CBF81000CBF87C
:1068B0000C0004E020460021FDF750FF10B9002431
:1068C000CAF868402046FDF799FFC9F83400D9F8A6
:1068D000000040F00100C9F800006FF00100C9F8A5
:1068E000100003B0BDE8F08F40F2EC110020C2F2BE
:1068F0000001087040F2EE11C2F2000108808AF82F
:106900001B0140F2BC10C2F2000041463246FEF7C5
:1069100085FD0446CAF86800A9E74FF49670ADF803
:10692000080014208DF80B009DF80B0027281AD8BA
:106930004CF2FD50C0F60000BDF808109DF807208D
:106940001144B142BFF4D2AEBDF808100A31ADF81F
:1069500008109DF80B1001318DF80B109DF80B10ED
:106960002829E9D3C2E64CF2FD50C0F60000BDE68E
:1069700080B543F60000C4F20100C168890644BF37
:1069800001685FEA816107D4C168490644BF0168B4
:106990005FEA416128D480BD41F2F83CC2F2000CAC
:1069A000D0F804E0BCF8003041F2FC31C2F2000142
:1069B0005A1C09886FF39F228A4208D041F20C4189
:1069C000C2F20001096801F803E0ACF8002041F2CE
:1069D0001041C2F2000104220A7041F21441C2F2D5
:1069E000000101220A70CFE76FF04001016041F21F
:1069F0001841C2F200010B8841F21C41C2F20001B1
:106A00000A88934206D141F20440C2F200000021FC
:106A1000017080BD41F22443C2F200031B689B5CFD
:106A200001326FF39F220A80436080BDFEE70000C1
:106A30004EF60C50BFF34F8FCEF2000001680422D7
:106A400001F4E061C0F2FA5211430160BFF34F8FCD
:106A500000BF00BF00BF00BFFAE70000B0B54EF6B0
:106A60000451CEF200014FF00072EFF3108072B6C5
:106A70000A6080F3108840F21000C2F20000006843
:106A80004DF68361C4F21B31A0FB011244F6D351D1
:106A9000C1F26201A0FB0101900C40F20812C2F2A7
:106AA00000021060880940F20411C2F2000108607F
:106AB000EFF3108472B603F0E5F840F63825C2F221
:106AC0000005C5E90001BFF34F8FBFF36F8F03F0DF
:106AD000D9F8D5E90012401A40F64021C2F200016F
:106AE000086041F23830C2F20000002184F31088BF
:106AF000C0E9001141F24030C2F20000C0E90011CB
:106B000041F24830C2F20000C0E9001141F22030E9
:106B1000C2F20000C0E9001141F23030C2F20000C0
:106B2000C0E9001141F22830C2F20000C0E90011B2
:106B3000B0BD000041F21400C4F201000821016060
:106B40007047000041F21000C4F20100082101600A
:106B500070470000B0B541F20024C2F2000494F87E
:106B60000C01C8B101284ED141F25835C2F20005DE
:106B70002878022829D0012811D0002843D1FFF716
:106B8000D9FF40F20C10C2F200000078012832D088
:106B9000C8BB012028702CE0FFF7CCFF33E0FFF7E3
:106BA000D1FF40F28010C2F20000017801390A06DC
:106BB000017028D140F20C10C2F2000000780221CE
:106BC0002970B0B1012818D01DE0FFF7B3FF40F2E3
:106BD0008010C2F20000017801390A06017012D15A
:106BE00040F20C110020C2F20001022228700A704B
:106BF00004E0052002E001202870642040F28011AA
:106C0000C2F20001087094F8060194F80411C0B2B1
:106C1000084311D040F22120C2F2000001784A1C42
:106C20003229027018BFB0BD0021017040F20C1073
:106C3000C2F2000001210170B0BD000040F610401A
:106C4000C4F201004FF4036101604FF472714160BE
:106C50007047000041F20401C4F202010B6841F2E6
:106C60000022C0F27A02C3F38103F0B5DFE803F03B
:106C70002C02370202600B684CF2BC57C3F30313BB
:106C8000C0F60007FB5C4CF2CC57DA4042600B6860
:106C9000C0F60007C3F30223FB5C22FA03F3C360D0
:106CA0000B68C3F3C223FB5C0427DA4082600B68E5
:106CB000096807EA9363C1F38131194427A3595C3A
:106CC000B2FBF1F10161F0BD0B6D9B05D2D5CB6A32
:106CD0009B0144BF46F60042C0F2DC22CAE70B68C3
:106CE0008C6A1F0C002C1ED40C680B68A40CC3F318
:106CF00041731D0104F00F046E1C0F2C354618BFA4
:106D00000225002B18BF3546FB0705EB040304D012
:106D10000F68BF0301D45A43ACE740F60012C0F23B
:106D20003D025A43A6E78B6A8C6AC3F3031E8B6A43
:106D300040F6001CC0F23D0CC4F30824FD0703F02C
:106D4000070303D00D68AD0358BF94460CFB04F253
:106D50000EFA03F3B2FBF3F28CE700BF020406085D
:106D6000020C08102DE9F04381B040F24C04C2F24D
:106D700000042046FDF7E0FE01462046FDF718FE20
:106D8000411E41F2002840F284090929C2F200089C
:106D9000C2F2000958D8DFE801F0051D57575757D0
:106DA0001331471898F81511012942D198F8161196
:106DB0000131CAB20A2A88BF002188F8161115E0ED
:106DC00040F22021C2F200013CE098F81511A9BB65
:106DD000032131E098F8151101292CD198F81611EA
:106DE0004A1E002908BF0A2288F8162140F28C01A9
:106DF000C2F2000142F210720A601FE040F220214C
:106E0000C2F200010A78002A40F0ED8198F81531AD
:106E10000122002B0A7000F0DD81002188F8161194
:106E2000052189F80010DEE198F8151131B9022129
:106E300002E0002100E0012189F8001040F20C116D
:106E4000C2F2000100220A7098F8151131B370B92E
:106E500040F28C00C2F2000001684A1E0029026064
:106E600005DC42F210710160052089F8000098F8F5
:106E70001701012822D140F28800C2F20000016807
:106E80004A1E0029026019DC4FF49671016005204A
:106E900089F80000002088F817013FE0D8F82000AA
:106EA000D8F82810D8F83020D8F83830C8F844007E
:106EB000C8F84C10C8F85820C8F8603099F800009D
:106EC000062800F2CB81DFE810F00700E5007A0029
:106ED0000901C9012900A40040F20C10C2F200000F
:106EE0000021017098F80A01FA220128C8F8EC2064
:106EF00088F8121100F03C81002840F0AC81D8F8ED
:106F000020400021C4F2FA312046FDF70BFC002896
:106F100000F06F8120464FF07E51DCE0D8F8200071
:106F2000D8E910510022D8F8304088F81521FDF733
:106F3000B3FB01462846FDF75DFB0025C4F2C825DA
:106F400029460746FDF7FCFB0026CCF2C8260028A0
:106F50001CBF0027C4F2C82738463146FDF7D4FBD2
:106F600000281CBF0027CCF2C827D8F858102046AC
:106F7000C8F84070FDF790FBD8F854100246084658
:106F80001146FDF737FB29460446FDF7D9FB0028DB
:106F90001CBF0024C4F2C82420463146FDF7B4FBD0
:106FA000002840F20C10C2F200004FF001011CBF9B
:106FB0000024CCF2C824C8F8544001704EE140F2DD
:106FC0000C10C2F200000021017098F80A01FA22A8
:106FD0000128C8F8EC2088F8121100F0AD800028D4
:106FE00040F03981D8F820000021C4F22011FDF7CB
:106FF00001FB0021C4F2FA310446FDF793FB00289F
:1070000040F0928000240020C4F2FA34C8F8240032
:107010008AE0012000210027002688F81701C4F229
:10702000BE31C4F2C837C4F2D23688F80C0188F8F1
:107030000E01FA20C8F82010C8F8301000220025F0
:10704000C8E92517C8E927610021C8E93B000020ED
:10705000C4F220220023C4F24825C4F27021C4F2F5
:107060003340C8F8B820C8F84030C8F85430C8E9F0
:107070002976C8E92B25C8F8B410A8F8E830C8F874
:10708000803088F80A3188F81031C8F83800C8F81C
:107090002800E3E040F20C10C2F200000021017071
:1070A00098F80A01FA220128C8F8EC2088F8121191
:1070B0006CD0002840F0CF80D8F820400021C4F2E6
:1070C000C8212046FDF74AFB002800F099800021E6
:1070D000CBF680712046FDF78DFA97E040F20C1058
:1070E000C2F200000021017098F80A01FA2201287A
:1070F000C8F8EC2088F8121155D0002840F0AB8079
:10710000D8F820000021CCF22011FDF773FA0021FD
:10711000C4F2C8210446FDF721FB28B90020002451
:10712000C8F82400C4F2C82446F26761C8F82040B9
:10713000C3F6E67120466FE0D8F828000021C4F2BB
:107140004821FDF757FA0021C4F269410446FDF7D2
:10715000E9FA28B900240020C4F26944C8F82C00D8
:1071600043F6E401C8F82840C3F60E71204668E0F3
:10717000D8F828400021C4F269412046FDF7D2FA30
:10718000002852D020464FF07E5119E0D8F8284010
:107190000021C4F254312046FDF7E0FA98B10021F5
:1071A000CBF680710BE0D8F828400021C4F27D3185
:1071B0002046FDF7D3FA30B10021CCF2242120463D
:1071C000FDF718FA37E00020C8F82C000020C4F2C0
:1071D000543030E040F28C01A8F81521C2F20001D1
:1071E00042F210720A6040F20C11C2F20001012258
:1071F00029E60020C8F824000020C4F2FA3005E097
:107200000020C8F824000020C4F2C82046F26761BC
:10721000C3F6E671C8F82000FDF744FA4FF0844148
:10722000FDF7E8F9C8F8280015E00020C8F82C00A0
:107230000020C4F2694043F6E401C3F60E71C8F8B9
:107240002800FDF72FFA43F6E401CCF28E11FDF78A
:10725000D1F9C8F82000002088F8E80040F21014A6
:107260000420C2F2000489F800002046FDF764FC07
:1072700001462046FDF79CFB40F248170A28C2F25F
:10728000000757D8DFE800F062061356562C565612
:107290005633200098F81501012839D198F81601C5
:1072A0000138C0B206283FD80FF668212AE098F8C6
:1072B0001501012829D198F816010138C0B2062815
:1072C00032D80FF648211DE098F8150118B398F848
:1072D00016010138C0B2062826D80FF6202111E089
:1072E00098F81601E8B10A281ED106201AE098F88D
:1072F000150198B198F816010138C0B2062813D8C4
:107300000FF60021085C38700EE0012038700BE0A9
:107310000020387008E00320387005E00220387043
:1073200002E0052089F8000040F20C10C2F20000D3
:107330000021017098F8FE00022804D030B9022024
:1073400088F8FE0002E00020C8F88C003878132886
:1073500000F23B84DFE810F014005E01DD00110153
:1073600072009801CC0140014502B500280254008A
:107370008E00C0014800050136008301FD01750241
:1073800040F20C10C2F200000021017098F80A01CE
:10739000FA220128C8F8F02088F8141100F02F8391
:1073A000002840F00F84D8F830400021C4F2E131C9
:1073B0002046FDF7B7F9002800F0D18320464FF0B2
:1073C0007E5149E1D8F880404CF20005C4F279457D
:1073D00020462946FDF7A6F9064620464FF07E5185
:1073E000FDF708F9002E48E198F80E01002800F09A
:1073F0005282012840F0E983002088F80E01E4E37E
:1074000098F80A01012800F04A82002840F0DD8344
:10741000D8F858000021D8F83040CCF22011FDF700
:10742000E9F800210546CCF2C8212046FDF7E2F834
:10743000064628463146FDF767F95FE098F80A01ED
:10744000012800F04282002840F0BF83D8F8209045
:107450000021D8F84450C4F2C8214846FDF7CAF8C4
:10746000064628463146FDF75DF9044628464FF0AA
:107470007E5159E198F80A01012800F0398200286C
:1074800040F0A38346F267650121D8F83000C3F6C7
:10749000E675D8F8204088F80A112946FDF702F968
:1074A0004FF08441FDF7A6F8C8F838002046294679
:1074B000FDF7F8F84FF08441FDF79CF8C8F8280074
:1074C00083E398F80A01012800F03382002840F095
:1074D0007C83D8F858000021D8F83040C4F220113D
:1074E000FDF788F800210546C4F2C8212046FDF7C3
:1074F00081F8064628463146FDF722F946F26761D3
:107500000028C3F6E671204618BF3546C8F8585023
:107510008EE140F20C10C2F200000021017098F8D8
:107520000A01FA220128C8F8F02088F8141100F0A6
:107530002082002840F04683D8F830000021C4F2B1
:107540002011FDF757F80021C4F2E1310446FDF7A0
:10755000E9F8C8BB00240020C4F2E134C8F83400C4
:1075600032E098F81001002800F02182012840F054
:107570002C83002088F8100127E340F20C10C2F29F
:1075800000000021017098F80A01FA220128C8F8C9
:10759000F02088F8141100F00E82002840F01283C9
:1075A000D8F830000021CCF22011FDF723F800219B
:1075B000C4F248310446FDF7D1F828B90020002470
:1075C000C8F83400C4F2483446F26761C8F8304065
:1075D000C3F6E6712046D5E298F80A01012800F0CA
:1075E000F881002840F0F182D8F844000021D8F852
:1075F0002040CCF22011FCF7FDFF00210546CCF223
:10760000C8212046FCF7F6FF064628463146FDF71E
:107610007BF856E040F20C10C2F20000002101702D
:1076200098F80A01FA220128C8F8F02088F8141105
:1076300000F0F581002840F0C582D8F830400021E4
:10764000C4F248312046FDF789F8002800F08E8208
:107650000021CBF680712046FCF7CCFF8CE2D8F8F5
:10766000804000212046FDF779F800210546CBF641
:1076700080712046FCF7BEFF002D08BF2846C8F8E1
:107680008000C8F88800A0E298F80A01012800F0FC
:10769000DD81002840F09982D8F844000021D8F814
:1076A0002040C4F22011FCF7A5FF00210546C4F2DA
:1076B000C8212046FCF79EFF064628463146FDF7C6
:1076C0003FF846F267610028C3F6E671204618BF0E
:1076D0003546C8F8445033E098F80C01012800F012
:1076E000D581002840F07182012088F80C016CE2FD
:1076F00098F80A01012800F0CD81002840F0658249
:10770000D8F820900021D8F84450CCF2C82148463F
:10771000FCF770FF064628463146FDF71FF80021AA
:107720000446CBF680712846FCF764FF002C08BFA6
:10773000304646F26761C8F84400C3F6E671484631
:10774000FCF7B0FF4FF08441FCF754FFC8F84C0041
:107750003BE241F2F430C2F200000178D8F88040F8
:1077600001394AB2002A017000F392800A210170A7
:1077700040F20C10C2F200000021017048F200013A
:10778000C4F278412046FCF7CDFF00210546C4F243
:10779000A0012046FCF72EFF4CF20004C4F279440D
:1077A000002D18BF044671E098F80A01012800F086
:1077B0009A81002840F00982D8F830900021D8F84A
:1077C0005850CCF2C8214846FCF714FF064628461C
:1077D0003146FCF7C3FF00210446CBF680712846F2
:1077E0001AE098F80A01012800F09181002840F081
:1077F000EC81D8F830900021D8F85850C4F2C82154
:107800004846FCF7F7FE064628463146FCF78AFF55
:10781000044628464FF07E51FCF7ECFE002C08BFD2
:10782000304646F26761C8F85800C3F6E67148462C
:10783000FCF738FF4FF08441FCF7DCFEC8F860002D
:10784000C3E141F2F431C2F200010878D8F8804077
:10785000421E53B2002B0A701ADC0A220A7040F250
:107860000C11C2F2000100220A700021C4F2A00132
:107870002046FCF773FF00210546CCF2A00120460C
:10788000FCF7B8FE0446002D08BF2C46C8F880401F
:10789000C8F8884099E1012088F80E0195E1D8F8F0
:1078A00060000021D8F83840CCF22011FCF7A2FE8D
:1078B00000210546CCF254312046FCF79BFE0446DD
:1078C00028462146FCF720FF48E0D8F82800002190
:1078D000D8F84C40C4F25431FCF78CFE05462046E3
:1078E0002946FCF71FFF064620464FF07E51E4E094
:1078F00043F6E4050021D8F83800C3F60E75D8F831
:10790000284088F80A112946FCF7CCFE43F6E40625
:10791000CCF28E163146FCF76DFEC8F830002046DA
:107920002946FCF7BFFE3146FCF764FEC8F820008C
:107930004BE1D8F860000021D8F83840C4F220119B
:10794000FCF758FE00210546C4F254312046FCF7EE
:1079500051FE044628462146FCF7F2FE43F6E401B8
:10796000002818BF2546C3F60E712846C8F8605097
:10797000EAE0D8F838000021C4F24821FCF73AFECA
:1079800048F20001C4F252410446FCF7CBFE30B984
:1079900048F200040020C4F25244C8F83C0043F608
:1079A000E401C8F83840C3F60E71204600E101201A
:1079B00088F8100109E1D8F8384048F20001C4F213
:1079C000D8312046FCF7CAFEC8B30021CCF22421EE
:1079D00031E0D8F84C000021D8F82840CCF2201132
:1079E000FCF708FE00210546CCF254312046FCF796
:1079F00001FE044628462146FCF786FE3BE0D8F807
:107A0000384048F20001C4F252412046FCF78AFE99
:107A1000002800F0C08020464FF07E510CE0D8F8DE
:107A200038400021C4F2C4312046FCF797FE30B143
:107A30000021CBF680712046FCF7DCFDB2E000208F
:107A4000C8F83C000020C4F2C430ABE0D8F84C00C9
:107A50000021D8F82840C4F22011FCF7CBFD00210A
:107A60000546C4F254312046FCF7C4FD04462846BE
:107A70002146FCF765FE43F6E401002818BF2546C1
:107A8000C3F60E712846C8F84C5021E0002088F853
:107A90000C019AE0D8F828000021D8F84C40CCF22C
:107AA0005431FCF7A7FD054620462946FCF756FE53
:107AB00000210646CBF680712046FCF79BFD43F67D
:107AC000E401002E08BF2846C8F84C00C3F60E712A
:107AD000FCF7E8FD43F6E401CCF28E11FCF78AFDD9
:107AE000C8F8440071E0D8F838000021D8F86040A8
:107AF000CCF25431FCF77EFD054620462946FCF7C2
:107B00002DFE00210646CBF68071204611E0D8F804
:107B100038000021D8F86040C4F25431FCF76AFD07
:107B2000054620462946FCF7FDFD064620464FF057
:107B30007E51FCF75FFD43F6E401002E08BF2846A6
:107B4000C8F86000C3F60E71FCF7ACFD43F6E40123
:107B5000CCF28E11FCF74EFDC8F8580035E000203D
:107B6000C8F834000020C4F2E13005E00020C8F875
:107B700034000020C4F2483046F26761C3F6E67173
:107B8000C8F83000FCF78EFD4FF08441FCF732FD61
:107B9000C8F8380016E00020C8F83C0048F20000A1
:107BA000C4F2524043F6E401C3F60E71C8F838003F
:107BB000FCF778FD43F6E401CCF28E11FCF71AFDD8
:107BC000C8F83000002088F8E90040F214041420BE
:107BD000C2F2000438702046FCF7AEFF0146204692
:107BE000FCF7E6FE013840F298060928C2F20006CA
:107BF00020D8DFE800F0050F1F1F1F1F1F1F0A14EA
:107C000098F8150180B900200DE098F8150158B9D1
:107C1000022008E098F8150130B9012003E098F837
:107C2000150108B90320307040F20C10C2F20000B8
:107C3000002101703078032843D8DFE800F00247C4
:107C40000D26FA20C8F8F4000021D8F8B80088F80A
:107C500013114FF07E510AE0FA200021C8F8F40019
:107C6000D8F8B80088F813110021C4F2A001FCF77D
:107C7000C1FC0024C4F2F02421460546FCF76EFD49
:107C8000C8B10020C8F8BC0016E0FA200021C8F8EE
:107C9000F400D8F8B80088F813110021CCF2A00144
:107CA000FCF7A8FC0024C4F2A00421460546FCF71A
:107CB00047FD0028E5D02C460020C8F8B84088F8D9
:107CC000E8000420307001B0BDE8F083FA20002104
:107CD000C8F8F400D8F8B80088F813110021CBF6E2
:107CE0008071FCF787FC0024C4F2A00421460546FD
:107CF000FCF718FD0028DED0C3E700BF070C0C0D11
:107D00000E0F1300050C0C0D0E0F1200060C0C0DBF
:107D10000E0F110004080C0D0E0F100040F610405D
:107D2000C4F201004FF4006101604FF47E714160C4
:107D30007047000040F61040C4F20100702101605D
:107D400040F688314160704770B540F63020C2F28D
:107D50000000017879B13C21C4F20001FF220A60E1
:107D600041F20021C2F2000191F80411002918BF6C
:107D700070BD002107E041F20025C2F2000595F830
:107D8000041111B10121017070BD95F8FC000128AA
:107D900021D000286CD12C680021C4F2702120462B
:107DA000FCF7C0FC40F63125C2F200052E78002811
:107DB00040F08E800021C4F28C212046FCF7C0FCEC
:107DC000002840F08580002EDED13C20C4F2000067
:107DD0005021016070BD95F8000100284DD00128A8
:107DE00046D195F81001002844D1D5F8F40038B9EF
:107DF000012085F813010020C4F27F30C5F8C800C7
:107E000040F63120C2F200000178012905D195F831
:107E10001A11012972D1002101702C680021C4F2CD
:107E20007A312046FCF77EFC00285CD00021C4F2A9
:107E30008C212046FCF776FC00284ED10021C4F2AC
:107E40007A312046FCF77CFC002846D12046FCF71E
:107E500002FD49F69A1249F69913C9F69912C3F62A
:107E6000D973FCF789FAFCF709FDC5F8C40017E0DF
:107E700095F8100101287FF487AF40F63120C2F257
:107E800000000278002185F81311C5F8BC102AB94A
:107E900095F81A11012904BF00210170D5F8B80026
:107EA000FCF7D9FC43F23333C3F6F7734FF03332A8
:107EB000FCF762FA44F20003C4F254030022FCF718
:107EC000B4F9FCF7AFFC3C21C4F20001086070BDBE
:107ED000002E7FF459AF012028703C20C4F200002E
:107EE0000021016070BD0020C4F2C820C5F8C400A4
:107EF0003C20C4F20000E221016070BD2C6800212A
:107F0000C4F27A312046FCF70DFC88B10021C4F29E
:107F10008C212046FCF706FC0028DED10021C4F2AB
:107F20007A312046FCF7FEFB00287FF42DAFD4E722
:107F30000020C4F2C820C5F8C40070BD40F632214C
:107F4000C2F200010878002843F20000C4F20000E9
:107F500004D101220A704CF6CC4101604AF6AA21F4
:107F60000160704740F61040C4F201004FF409610F
:107F700001604FF45A7141607047000042F20C02F8
:107F8000C4F20202536843F0010353600180106899
:107F9000C00708D11068400758BF1068506820F02B
:107FA0000100506070470020CFF6F0701168C907DB
:107FB0001CBF11685FEAC171ECD01168C9071CBF12
:107FC00011685FEAC171E5D01168C9071CBF11686B
:107FD0005FEAC171DED01168C9071CBF11685FEA92
:107FE000C171D7D01168C9071CBF11685FEAC171A0
:107FF000D0D01168C9071CBF11685FEAC171C9D030
:108000001168C9071CBF11685FEAC171C2D011684D
:10801000C9071CBF11685FEAC171BBD01030C5D160
:10802000BCE7000042F20C01C4F202014A6842F0CF
:1080300002024A608860486840F040004860086872
:10804000C00708D10868400758BF0868486820F092
:108050000200486070474FF040400A68D2071CBFDA
:108060000A685FEAC272EDD00A68D2071CBF0A68CC
:108070005FEAC272E6D00A68D2071CBF0A685FEAEC
:10808000C272DFD00A68D2071CBF0A685FEAC272F8
:10809000D8D00A68D2071CBF0A685FEAC272D1D082
:1080A0000A68D2071CBF0A685FEAC272CAD00A68AF
:1080B000D2071CBF0A685FEAC272C3D00A68D2073F
:1080C0001CBF0A685FEAC272BCD01030C5D1BDE7E0
:1080D0002DE9F04F8FB040F2AF16C2F200063078B3
:1080E000DFE810F00400540656042A0641F2002886
:1080F000C2F2000898F81801002840F045864FF6B3
:1081000000414FF60000C0F60101CFF6FF700A589B
:108110004FF601008DF83920CFF6FF700B588DF81F
:1081200036309DF836009DF8397047EA0020ADF8EA
:108130003A00BDF83A00ADF83600BDF836704FF69B
:10814000FF70874200F00C814FF60207CFF6FF77F1
:10815000CF598DF838704FF60307CFF6FF77CF5918
:108160008DF839709DF839709DF8386046EA072718
:10817000ADF83A70BDF83A70ADF83670BDF83670AB
:10818000874200F0ED804FF60407CFF6FF77CF5916
:108190008DF838704FF60507CFF6FF77CF598DF879
:1081A00039709DF839709DF8386046EA0727ADF8B8
:1081B0003A70BDF83A70ADF83670BDF83670874247
:1081C00000F0CE804FF60607CFF6FF77CF598DF837
:1081D00038706FF4FF67CF598DF839709DF839709A
:1081E0009DF8386046EA0727ADF83A70BDF83A7056
:1081F000ADF83670BDF83670874200F0B1804FF6AA
:108200000807CFF6FF77CF598DF838704FF609077A
:10821000CFF6FF77CF598DF839709DF839709DF8FA
:10822000386046EA0727ADF83A70BDF83A70ADF805
:108230003670BDF83670874200F092804FF60A071C
:10824000CFF6FF77CF598DF838704FF60B07CFF682
:10825000FF77CF598DF839709DF839709DF83860E7
:1082600046EA0727ADF83A70BDF83A70ADF83670B7
:10827000BDF83670874273D04FF60C07CFF6FF7704
:10828000CF598DF838704FF60D07CFF6FF77CF59DD
:108290008DF839709DF839709DF8386046EA0727E7
:1082A000ADF83A70BDF83A70ADF83670BDF836707A
:1082B000874255D04FF60E07CFF6FF77CF598DF88E
:1082C00038706FF4FE67CF598DF839709DF83970AA
:1082D0009DF8386046EA0727ADF83A70BDF83A7065
:1082E000ADF83670BDF83670874239D04FF61007BA
:1082F000CFF6FF77CF598DF838704FF61107CFF6CC
:10830000FF77CF598DF839709DF839709DF8386036
:1083100046EA0727ADF83A70BDF83A70ADF8367006
:10832000BDF8367087421BD04FF61207CFF6FF77A5
:10833000CF598DF838704FF61307CFF6FF77CF5926
:108340008DF839709DF839709DF8386046EA072736
:10835000ADF83A70BDF83A70ADF83670BDF83670C9
:10836000BDF83670874200F0F5800E684FF6024780
:10837000C0F601078DF8396057F8016C8DF836604A
:108380009DF836609DF8395045EA0626ADF83A600A
:10839000BDF83A60ADF83660BDF83660864200F050
:1083A000D4803E68D7F801508DF838608DF8395088
:1083B0009DF839609DF8385045EA0626ADF83A60D8
:1083C000BDF83A60ADF83660BDF83660864200F020
:1083D000BC80D7F80260D7F803508DF838608DF86C
:1083E00039509DF839609DF8385045EA0626ADF8B9
:1083F0003A60BDF83A60ADF83660BDF83660864246
:1084000000F0A3807E68D7F805508DF838608DF8AD
:1084100039509DF839609DF8385045EA0626ADF888
:108420003A60BDF83A60ADF83660BDF83660864215
:1084300000F08B80D7F80660D7F807508DF83860C9
:108440008DF839509DF839609DF8385045EA062678
:10845000ADF83A60BDF83A60ADF83660BDF8366008
:10846000864272D0BE68D7F809508DF838608DF812
:1084700039509DF839609DF8385045EA0626ADF828
:108480003A60BDF83A60ADF83660BDF836608642B5
:108490005BD0D7F80A60D7F80B508DF838608DF8AC
:1084A00039509DF839609DF8385045EA0626ADF8F8
:1084B0003A60BDF83A60ADF83660BDF83660864285
:1084C00043D0FE68D7F80D508DF838608DF83950DC
:1084D0009DF839609DF8385045EA0626ADF83A60B7
:1084E000BDF83A60ADF83660BDF8366086422CD0F3
:1084F000D7F80E60D7F80F508DF838608DF83950E6
:108500009DF839609DF8385045EA0626ADF83A6086
:10851000BDF83A60ADF83660BDF83660864214D0DA
:108520003E69D7F811508DF838608DF839509DF8B4
:1085300039609DF8385045EA0626ADF83A60BDF836
:108540003A60ADF83660BDF83660BDF836608642F8
:1085500040F06A858DF839208DF836309DF8362048
:108560009DF8393043EA0222ADF83A20BDF83A20AE
:10857000ADF83620BDF83620824200F00C814FF66F
:108580000202CFF6FF728A588DF838204FF60302A8
:10859000CFF6FF728A588DF839209DF839209DF862
:1085A000383043EA0222ADF83A20BDF83A20ADF85F
:1085B0003620BDF83620824200F0ED804FF60402EE
:1085C000CFF6FF728A588DF838204FF60502CFF6A5
:1085D000FF728A588DF839209DF839209DF838307F
:1085E00043EA0222ADF83A20BDF83A20ADF8362031
:1085F000BDF83620824200F0CE804FF60602CFF65C
:10860000FF728A588DF838206FF4FF628A588DF80F
:1086100039209DF839209DF8383043EA0222ADF820
:108620003A20BDF83A20ADF83620BDF83620824217
:1086300000F0B1804FF60802CFF6FF728A588DF82D
:1086400038204FF60902CFF6FF728A588DF839208C
:108650009DF839209DF8383043EA0222ADF83A20DF
:10866000BDF83A20ADF83620BDF83620824200F041
:1086700092804FF60A02CFF6FF728A588DF83820A2
:108680004FF60B02CFF6FF728A588DF839209DF80D
:1086900039209DF8383043EA0222ADF83A20BDF87F
:1086A0003A20ADF83620BDF83620824273D04FF61E
:1086B0000C02CFF6FF728A588DF838204FF60D0263
:1086C000CFF6FF728A588DF839209DF839209DF831
:1086D000383043EA0222ADF83A20BDF83A20ADF82E
:1086E0003620BDF83620824255D04FF60E02CFF626
:1086F000FF728A588DF838206FF4FE628A588DF820
:1087000039209DF839209DF8383043EA0222ADF82F
:108710003A20BDF83A20ADF83620BDF83620824226
:1087200039D04FF61002CFF6FF728A588DF83820F4
:108730004FF61102CFF6FF728A588DF839209DF856
:1087400039209DF8383043EA0222ADF83A20BDF8CE
:108750003A20ADF83620BDF8362082421BD04FF6C5
:108760001202CFF6FF728A588DF838204FF61302A6
:10877000CFF6FF728A588DF839209DF839209DF880
:10878000383043EA0222ADF83A20BDF83A20ADF87D
:108790003620BDF83620BDF83620824240F06D8488
:1087A0000A684FF60241C0F601018DF8382051F8F1
:1087B000012C8DF839209DF839209DF8383043EA96
:1087C0000222ADF83A20BDF83A20ADF83620BDF8C7
:1087D0003620824200F0D4800A68D1F801308DF84A
:1087E00038208DF839309DF839209DF8383043EA2B
:1087F0000222ADF83A20BDF83A20ADF83620BDF897
:108800003620824200F0BC80D1F80220D1F803303B
:108810008DF838208DF839309DF839209DF83830A2
:1088200043EA0222ADF83A20BDF83A20ADF83620EE
:10883000BDF83620824200F0A3804A68D1F80530A6
:108840008DF838208DF839309DF839209DF8383072
:1088500043EA0222ADF83A20BDF83A20ADF83620BE
:10886000BDF83620824200F08B80D1F80620D1F886
:1088700007308DF838208DF839309DF839209DF873
:10888000383043EA0222ADF83A20BDF83A20ADF87C
:108890003620BDF83620824272D08A68D1F809307D
:1088A0008DF838208DF839309DF839209DF8383012
:1088B00043EA0222ADF83A20BDF83A20ADF836205E
:1088C000BDF8362082425BD0D1F80A20D1F80B30B7
:1088D0008DF838208DF839309DF839209DF83830E2
:1088E00043EA0222ADF83A20BDF83A20ADF836202E
:1088F000BDF83620824243D0CA68D1F80D308DF8D9
:1089000038208DF839309DF839209DF8383043EA09
:108910000222ADF83A20BDF83A20ADF83620BDF875
:10892000362082422CD0D1F80E20D1F80F308DF8AD
:1089300038208DF839309DF839209DF8383043EAD9
:108940000222ADF83A20BDF83A20ADF83620BDF845
:108950003620824214D00A69D1F811108DF83820DF
:108960008DF839109DF839109DF8382042EA012120
:10897000ADF83A10BDF83A10ADF83610BDF8361023
:10898000BDF83610814240F07B8301F027F979E38E
:1089900040F28C1041F2002AC2F20000C2F2000A3A
:1089A0000178DAF8200001F0010BFBF70EFF4FF61B
:1089B0000042C0F601028446A2F50060BBF1000F40
:1089C000A2F2FE7904BF4FF60040C0F6010004BFDA
:1089D0004FF60249C0F60109A2F2FC784FF60243B5
:1089E000BBF1000FA2F2FA77C0F6010308BF03F152
:1089F000020808BF1F1DA2F5FF66BBF1000FA2F21F
:108A0000F675A2F2F474A2F2F27108BF9E1D08BFBF
:108A100003F10805BBF1000F08BF03F10A0408BF0A
:108A200003F10C010291A2F5FE61BBF1000F08BF3A
:108A300003F10E010391A2F2EE7108BF03F11001E0
:108A40000491A2F2EC71BBF1000F08BF03F1120117
:108A50000591A2F2EA7108BF03F114010691A2F593
:108A6000FD61BBF1000F08BF03F116010791A2F2EF
:108A7000E67108BF03F118010891A2F2E471BBF19D
:108A8000000F08BF03F11A010991A2F2E27108BFB9
:108A900003F11C010A91A2F5FC61BBF1000F08BFB4
:108AA00003F11E010B91A2F2DE7108BF03F1200158
:108AB0000C91BBF1000FA2F2DC7B614608BF03F111
:108AC000220BFFF75BFADAF8B800FBF77EFE0146EF
:108AD0004846FFF753FADAF89400FBF776FE0146B2
:108AE0004046FFF74BFADAF8AC00FBF76EFE0146A2
:108AF0003846FFF743FADAF89800FBF766FE0146BE
:108B00003046FFF73BFADAF8B000FBF75EFE0146AD
:108B10002846FFF733FADAF89C00FBF756FE0146C9
:108B20002046FFF72BFADAF8B400FBF74EFE0146B9
:108B30000298FFF723FADAF83000FBF746FE014609
:108B40000398FFF71BFADAF8A000FBF73EFE014698
:108B50000498FFF713FADAF8A400FBF736FE014693
:108B60000598FFF70BFADAF8A800FBF72EFE01468E
:108B70000698FFF703FA9AF80A110798FFF7FEF92B
:108B80009AF80C110898FFF7F9F9DAF84000FBF7AA
:108B90001CFE01460998FFF7F1F9DAF85400FBF7DB
:108BA00014FE01460A98FFF7E9F99AF80E110B989E
:108BB000FFF7E4F99AF810110C98FFF7DFF9DAF8EB
:108BC0008000FBF702FE01465846FFF7D7F9DAF8B6
:108BD0002000DAF83050DAE92564FBF7F6FD40F2C0
:108BE0008811C2F2000108802846FBF7EEFD40F232
:108BF000B012DAF8B810C2F2000210800846FBF793
:108C0000E4FD40F2A811C2F2000108803046FBF7F3
:108C1000DCFD40F29412DAF8A010C2F200021080DB
:108C20000846FBF7D2FD40F29812DAF8AC10C2F217
:108C3000000210800846FBF7C8FD40F29611C2F210
:108C4000000108802046FBF7C0FD40F29A12DAF8D6
:108C5000A410C2F2000210800846FBF7B6FD40F2F5
:108C60009E12DAF8B010C2F2000210800846FBF73C
:108C7000ACFD40F29C12DAF89C10C2F200021080A7
:108C80000846FBF7A2FD40F2A012DAF8A810C2F2E3
:108C90000002DAF84060DAF85450DAF880401080C8
:108CA0000846FBF792FD40F2A412DAF8B410C2F2C3
:108CB000000210800846FBF788FD40F2A211C2F2C4
:108CC000000108809AF80A0140F2AE11C2F20001D8
:108CD00008709AF80C0140F2AD11C2F20001087060
:108CE0003046FBF772FD40F29011C2F2000108809D
:108CF0002846FBF76AFD40F2AA11C2F20001088083
:108D00009AF80E0140F2A611C2F2000108709AF81A
:108D1000100140F29211C2F2000108702046FBF7E8
:108D200054FD40F2AC11C2F20001087040F2AF11E4
:108D30000320C2F200018DE340F28C1440F28E1544
:108D4000C2F20004C2F200054FF6004022782988E2
:108D5000C0F60100A0F2DA704FF60243C0F601033C
:108D6000D20708BF03F12400FFF708F942F204001C
:108D7000C4F20200C16841F08001C16028882178F6
:108D800001302880481C2070012049E140F2881001
:108D9000C2F200000088FBF706FD41F20024C2F297
:108DA0000004216A024608461146FBF7E5FC00284C
:108DB00000F0088140F2B010C2F200000088FBF71A
:108DC000F2FC216B024608461146FBF7D5FC002851
:108DD00000F0F88040F2A810C2F200000088FBF713
:108DE000E2FCD4F8B810024608461146FBF7C4FC72
:108DF000002800F0E78040F29410C2F200000088E2
:108E0000FBF7D1FCD4F89410024608461146FBF754
:108E1000B3FC002800F0D68040F29810C2F20000A7
:108E20000088FBF7C0FCD4F8A010024608461146A3
:108E3000FBF7A2FC002800F0C58040F29610C2F2B9
:108E400000000088FBF7AFFCD4F8AC1002460846DF
:108E50001146FBF791FC002800F0B48040F29A1014
:108E6000C2F200000088FBF79EFCD4F8981002467E
:108E700008461146FBF780FC002800F0A38040F272
:108E80009E10C2F200000088FBF78DFCD4F8A410FD
:108E9000024608461146FBF76FFC002800F092805E
:108EA00040F29C10C2F200000088FBF77CFCD4F872
:108EB000B010024608461146FBF75EFC002800F0A1
:108EC000818040F2A010C2F200000088FBF76BFC2A
:108ED000D4F89C10024608461146FBF74DFC0028CA
:108EE00070D040F2A410C2F200000088FBF75BFCD7
:108EF000D4F8A810024608461146FBF73DFC0028AE
:108F000060D040F2A210C2F200000088FBF74BFCD8
:108F1000D4F8B410024608461146FBF72DFC002891
:108F200050D040F2AE10C2F20000007894F80A115E
:108F3000884247D140F2AD10C2F20000007894F8A8
:108F40000C1188423ED140F29010C2F2000000881D
:108F5000FBF729FC216C024608461146FBF70CFC86
:108F600080B340F2AA10C2F200000088FBF71BFC9D
:108F7000616D024608461146FBF7FEFB10B340F256
:108F8000A610C2F20000007894F80E11884219D1A0
:108F900040F29210C2F20000007894F8101188425A
:108FA00010D140F2AC10C2F200000078FBF7FBFBDE
:108FB000D4F88010024608461146FBF7DDFB002876
:108FC00040F04C8240F28A10C2F200000188013168
:108FD0008AB2142A018024D30021018042F20400C5
:108FE00040F22311C4F20200C4F26751016048F656
:108FF000AB11CCF6EF51016040F28C10C2F20000D0
:1090000001784FF60040C0F60100A0F50060C907E6
:1090100004BF4FF60040C0F60100FFF703F802203E
:1090200030700FB0BDE8F08F4FF62600CFF6FF701E
:1090300008588DF839006FF4FB6008588DF8360039
:109040009DF836009DF8391041EA0020ADF83A004D
:10905000BDF83A00796AD7F825208DF839108DF8D7
:1090600036209DF836109DF8392042EA0121ADF8EE
:109070003A10BDF83A10884202D900F07FFA01E0B8
:1090800000F014FCD8F820400021C4F2FA31204648
:10909000FBF764FB40F2000AC4F2BE3A30B900218B
:1090A000C4F2C8212046FBF74BFB10B95446C8F860
:1090B00020A00C94D8F830400021C4F2E1312046C1
:1090C000FBF74CFB30B90021C4F248312046FBF7D6
:1090D00037FB10B95446C8F830A0D8F8B860002162
:1090E000C4F2F02130460B94FBF738FB0024C4F2A5
:1090F000A02430B90021C4F2A0013046FBF720FBC8
:1091000010B92646C8F8B840D8F894700021C4F2C7
:10911000FA3138460A96FBF721FB0024C4F2A0344A
:1091200030B90021C4F2C8213846FBF709FB10B959
:109130002746C8F89440D8F898900021C4F2FA3134
:1091400048460997FBF70AFB0027C4F2AF3730B94E
:109150000021C4F2C8214846FBF7F2FA10B9B9461B
:10916000C8F89870D8F89C500021C4F2FA3128460B
:10917000FBF7F4FA30B90021C4F2C8212846FBF706
:10918000DFFA10B95546C8F89CA0D8F8A0600021B5
:10919000C4F2E1313046FBF7E1FA30B90021C4F204
:1091A00048313046FBF7CCFA10B92646C8F8A04043
:1091B000D8F8A4400021C4F2E1312046FBF7CEFAF2
:1091C00030B90021C4F248312046FBF7B9FA10B992
:1091D0003C46C8F8A470D8F8A8700021C4F2E13168
:1091E0003846FBF7BBFA30B90021C4F248313846A3
:1091F000FBF7A6FA10B95746C8F8A8A00795D8F803
:10920000AC500021C4F2F0212846FBF7A7FA30B990
:109210000021C4F2A0012846FBF792FA20B90025EC
:10922000C4F24825C8F8AC50D8F8B0A00021C4F268
:10923000F0215046FBF792FA30B90021C4F2A001A8
:109240005046FBF77DFA28B940F2000AC4F2702AB2
:10925000C8F8B0A0D8F8B4B00021C4F2F021584644
:10926000FBF77CFA30B90021C4F2A0015846FBF7A5
:1092700067FA28B940F2000BC4F2A02BC8F8B4B0CA
:1092800098F80A01CDF808B00497022824BF0020FE
:1092900088F80A0198F80C7101900594022F24BFF8
:1092A000012788F80C71D8F84040002124F00040D4
:1092B000C4F2C8210395FBF727FA002804BF002455
:1092C000C8F84040D8F85450002125F00040C4F2BE
:1092D000C8210696FBF718FA002804BF0025C8F835
:1092E000545098F80EB14046BBF1020F24BF4FF026
:1092F000000B88F80EB198F81081CDF82090B8F1E5
:10930000020F24BF4FF0000880F81081D0F8806071
:109310004CF200018146C4F279413046FBF71EFA57
:1093200020B930460021FBF70BFA10B90026C9F826
:109330008060012089F818010C98FBF746FA40F28A
:109340008811C2F2000108800B98FBF73EFA40F248
:10935000B011C2F2000108800A98FBF736FA40F219
:10936000A811C2F2000108800998FBF72EFA40F21A
:109370009411C2F2000108800698FBF726FA40F229
:109380009811C2F2000108800398FBF71EFA40F220
:109390009611C2F2000108800898FBF716FA40F215
:1093A0009A11C2F2000108800598FBF70EFA40F20C
:1093B0009E11C2F2000108805046FBF706FA40F207
:1093C0009C11C2F2000108800798FBF7FEF940F2F9
:1093D000A011C2F2000108800498FBF7F6F940F2F0
:1093E000A411C2F2000108800298FBF7EEF940F2E6
:1093F000A211C2F20001088040F2AE100199C2F23F
:109400000000017040F2AD10C2F20000077020466B
:10941000FBF7DBF940F29011C2F200010880284608
:10942000FBF7D3F940F2AA11C2F20001088040F222
:10943000A610C2F2000080F800B040F29210C2F212
:10944000000080F800803046FBF7BFF940F2AC1115
:10945000C2F2000108700FB0BDE8F08F40F28A1030
:10946000C2F20000002101800FB0BDE8F08F0000C3
:1094700042F20C00C4F20200416844F6383241F076
:109480000101416043F60001C0F60001C4F254122C
:109490000A600168C90708D10168490758BF016817
:1094A000416821F00101416070470021CFF6F07161
:1094B0000268D2071CBF02685FEAC272ECD0026881
:1094C000D2071CBF02685FEAC272E5D00268D20709
:1094D0001CBF02685FEAC272DED00268D2071CBFFE
:1094E00002685FEAC272D7D00268D2071CBF026866
:1094F0005FEAC272D0D00268D2071CBF02685FEA7E
:10950000C272C9D00268D2071CBF02685FEAC27289
:10951000C2D00268D2071CBF02685FEAC272BBD029
:109520001031C5D1BCE7000040F61040C4F2010084
:1095300040F6C80101604FF44C7141607047000073
:1095400041F20800C4F201000068012121EA501034
:109550007047000040F60840C4F201000068012195
:1095600021EA00007047000040F60840C4F2010004
:109570000068012121EA500070470000B0B582B0B8
:109580004FF20044C0F601042068D4F801108DF8B1
:1095900004008DF805109DF805009DF8041041EABF
:1095A0000020ADF80600BDF80600FBF7FCF841F21C
:1095B0000025C2F200052862D4F80200D4F8031096
:1095C0008DF804008DF805109DF805009DF8041035
:1095D00041EA0020ADF80600BDF80600FBF7E3F80D
:1095E000C5F8B8006068D4F805108DF804008DF84F
:1095F00005109DF805009DF8041041EA0020ADF823
:109600000600BDF80600FBF7CEF8C5F89400D4F8C4
:109610000600D4F807108DF804008DF805109DF8A9
:1096200005009DF8041041EA0020ADF80600BDF8E1
:109630000600FBF7B8F8C5F8AC00A068D4F809102C
:109640008DF804008DF805109DF805009DF80410B4
:1096500041EA0020ADF80600BDF80600FBF7A3F8CC
:10966000C5F89800D4F80A00D4F80B108DF804005F
:109670008DF805109DF805009DF8041041EA0020C2
:10968000ADF80600BDF80600FBF78DF8C5F8B00090
:10969000E068D4F80D108DF804008DF805109DF8E1
:1096A00005009DF8041041EA0020ADF80600BDF861
:1096B0000600FBF778F8C5F89C00D4F80E00D4F843
:1096C0000F108DF804008DF805109DF805009DF829
:1096D000041041EA0020ADF80600BDF80600FBF7D3
:1096E00062F8C5F8B4002069D4F811108DF80400B0
:1096F0008DF805109DF805009DF8041041EA002042
:10970000ADF80600BDF80600FBF74DF82863D4F865
:109710001200D4F813108DF804008DF805109DF890
:1097200005009DF8041041EA0020ADF80600BDF8E0
:109730000600FBF738F8C5F8A0006069D4F81510EA
:109740008DF804008DF805109DF805009DF80410B3
:1097500041EA0020ADF80600BDF80600FBF723F84B
:10976000C5F8A400D4F81600D4F817108DF804003A
:109770008DF805109DF805009DF8041041EA0020C1
:10978000ADF80600BDF80600FBF70DF8C5F8A80017
:10979000A069D4F819108DF804008DF805109DF813
:1097A00005009DF8041041EA0020ADF80600BDF860
:1097B000060085F80A01D4F81A00D4F81B108DF8B9
:1097C00004008DF805109DF805009DF8041041EA8D
:1097D0000020ADF80600BDF8060085F80C01E06930
:1097E000D4F81D108DF804008DF805109DF80500C3
:1097F0009DF8041041EA0020ADF80600BDF806000F
:10980000FAF7D1FF2864D4F81E00D4F81F108DF8A1
:1098100004008DF805109DF805009DF8041041EA3C
:109820000020ADF80600BDF80600FAF7BCFF686539
:10983000206AD4F821108DF804008DF805109DF8E9
:1098400005009DF8041041EA0020ADF80600BDF8BF
:10985000060085F80E01D4F82200D4F823108DF804
:1098600004008DF805109DF805009DF8041041EAEC
:109870000020ADF80600BDF8060085F81001606A0A
:10988000D4F825108DF804008DF805109DF805001A
:109890009DF8041041EA0020ADF80600BDF806006E
:1098A000FAF781FFC5F8800002B0B0BDB0B582B054
:1098B0004FF60044C0F601042068D4F801108DF87A
:1098C00004008DF805109DF805009DF8041041EA8C
:1098D0000020ADF80600BDF80600FAF764FF41F27B
:1098E0000025C2F200052862D4F80200D4F8031063
:1098F0008DF804008DF805109DF805009DF8041002
:1099000041EA0020ADF80600BDF80600FAF74BFF6B
:10991000C5F8B8006068D4F805108DF804008DF81B
:1099200005109DF805009DF8041041EA0020ADF8EF
:109930000600BDF80600FAF736FFC5F89400D4F823
:109940000600D4F807108DF804008DF805109DF876
:1099500005009DF8041041EA0020ADF80600BDF8AE
:109960000600FAF720FFC5F8AC00A068D4F809108B
:109970008DF804008DF805109DF805009DF8041081
:1099800041EA0020ADF80600BDF80600FAF70BFF2B
:10999000C5F89800D4F80A00D4F80B108DF804002C
:1099A0008DF805109DF805009DF8041041EA00208F
:1099B000ADF80600BDF80600FAF7F5FEC5F8B000F0
:1099C000E068D4F80D108DF804008DF805109DF8AE
:1099D00005009DF8041041EA0020ADF80600BDF82E
:1099E0000600FAF7E0FEC5F89C00D4F80E00D4F8A3
:1099F0000F108DF804008DF805109DF805009DF8F6
:109A0000041041EA0020ADF80600BDF80600FAF7A0
:109A1000CAFEC5F8B4002069D4F811108DF804000E
:109A20008DF805109DF805009DF8041041EA00200E
:109A3000ADF80600BDF80600FAF7B5FE2863D4F8C5
:109A40001200D4F813108DF804008DF805109DF85D
:109A500005009DF8041041EA0020ADF80600BDF8AD
:109A60000600FAF7A0FEC5F8A0006069D4F815104A
:109A70008DF804008DF805109DF805009DF8041080
:109A800041EA0020ADF80600BDF80600FAF78BFEAB
:109A9000C5F8A400D4F81600D4F817108DF8040007
:109AA0008DF805109DF805009DF8041041EA00208E
:109AB000ADF80600BDF80600FAF775FEC5F8A80077
:109AC000A069D4F819108DF804008DF805109DF8E0
:109AD00005009DF8041041EA0020ADF80600BDF82D
