:020000040800F2
:104000000819002089410008656E0008A56D0008A8
:10401000616E00086D4C0008817600080000000009
:10402000000000000000000000000000F571000822
:10403000914C000800000000F1700008AD4100083C
:10404000A3410008A3410008A3410008A3410008C0
:10405000A3410008A3410008A3410008A3410008B0
:10406000A3410008A3410008A3410008A3410008A0
:10407000A3410008A3410008A3410008A341000890
:10408000A3410008A3410008A3410008A341000880
:10409000A3410008A3410008A3410008A341000870
:1040A000A3410008A3410008A3410008A341000860
:1040B000A1740008CD740008A3410008A3410008C2
:1040C000A3410008A3410008A3410008A341000840
:1040D000A341000851750008A3410008A34100084E
:1040E000A3410008A3410008A3410008000000000C
:1040F00000000000000000000000000000000000C0
:1041000000000000A3410008A341000800000000D7
:10411000A3410008A34100080000000000000000C7
:10412000A3410008A3410008A3410008A3410008DF
:10413000000000000000000000000000000000007F
:10414000000000000000000000000000A341000883
:104150000000000000000000A3410008A341000887
:10416000000000000000000000000000A341000863
:10417000DFF810D000F0E2F900F0CAFA004800477A
:1041800025CC00080819002006488047064800474B
:10419000FEE7FEE7FEE7FEE7FEE7FEE7FEE7FEE7F7
:1041A000FEE7FEE7CD7300087141000830B410B59A
:1041B0000348804730BCAE4630BC024800477047D9
:1041C000DDD00008F97100082DE9F05F05460020F8
:1041D00092469B4688460646814640241BE0284678
:1041E00041464746224600F0D0F953465A46C01A87
:1041F000914110D311461846224600F0B7F92D1A06
:1042000067EB01084F4622460120002100F0AEF97D
:1042100017EB00094E41201EA4F10104DFDC4846E3
:1042200031462A464346BDE8F09F2DE9FE4F8046C1
:1042300081EA0300C00F0C46009021F0004123F0FA
:104240000045B8EB0200A94105D240462146904600
:104250001C460B46024623F00040104347D0270D72
:10426000C7F30A00C3F30A510290401A0190402894
:104270006BDAC3F3130040F4801B0098924620B120
:104280000023D2EB030A63EB0B0B01985946C0F1F4
:104290004002504600F06AF906460D46504659461F
:1042A000019A00F082F910EB08006141002487EACE
:1042B000115284EAE7731A4340D0009A62B3019A1C
:1042C000012A4FEA075215DC001B61EB02014FF097
:1042D000004202EA0752CDE90042001C41F580117C
:1042E00032462B4600F082F903B0BDE8F08F40461D
:1042F0002146F9E7001B61EB0201001C41F5801328
:1043000000185B412018A2F5001747EB030140EAB3
:10431000D570B6196D4111E06D084FEA360645EAD1
:10432000C0754FEA0752001B61EB0201001C41F50A
:10433000801149084FEA30000019514132462B469E
:1043400003B0BDE8F04F00F042B9009801224000F0
:104350000023D0EB020263EBE073009821464FEAA2
:10436000E074B8EB000061EB0401E9E783F000437F
:104370005BE781F0004158E72DE9FE4F81EA030435
:1043800004F0004421F0004100944FF0000B23F0B2
:10439000004350EA01045ED052EA03045BD0C3F349
:1043A0000A54C1F30A552C44A4F2F3340194A0FB3F
:1043B0000254C1F3130141F48011C3F3130343F416
:1043C000801301FB024400FB034E840A970A44EA6F
:1043D000815447EA8357A4FB076802958D0A05FBC1
:1043E00007854FEA932C04FB0C542705029D4FEAE6
:1043F000065847EA1637B5EB08056EEB070C870E33
:10440000920E47EA811742EA8312A7FB0201B6EB3C
:104410000B0164EB00042B0D43EA0C335E1844EBF4
:104420001C50DA465146E7FB0201C5F313044FEA7C
:104430000B3343EA14534FEA0432019C43EA060368
:10444000A4F10C040294009CCDE900B400F0CEF875
:1044500003B0BDE8F08F00200146F9E72DE9F04DEB
:1044600081EA030404F0004B21F0004514464FF0AC
:10447000000A23F0004150EA050220D054EA01026C
:104480001DD0C5F30A570246C5F31303C1F3130049
:10449000C1F30A5640F4801543F48013A7EB0608D5
:1044A000101BD64608F2FD3873EB050002D308F165
:1044B000010801E092185B41B8F1000F03DA002017
:1044C0000146BDE8F08D00204FF480110646844679
:1044D0000EE0171B73EB050705D3121B63EB0503F7
:1044E00006434CEA010C49084FEA300092185B4140
:1044F00050EA0107EDD152EA030012D082EA04002B
:1045000083EA0501084305D0101BAB4106D2012206
:10451000002306E000224FF0004302E06FF00102AA
:1045200053101AEB06004CEB085110EB0A0041EB5C
:104530000B01BDE8F04D00F04AB800001CB5094879
:104540000090094801900546009C06E0E06840F0B4
:10455000010394E8070098471034AC42F6D3FFF704
:104560000BFE0000780C0108980C0108202A04DBDF
:10457000203A00FA02F1002070479140C2F1200376
:1045800020FA03F3194390407047202A04DB203AB5
:1045900021FA02F00021704721FA02F3D040C2F163
:1045A00020029140084319467047202A06DBCB17AA
:1045B000203A41FA02F043EAE07306E041FA02F3DE
:1045C000D040C2F12002914008431946704710B50F
:1045D000141E73F1000408DA401C41F10001921826
:1045E0005B411A4301D120F0010010BD2DE9F04DCF
:1045F00092469B4611B1B1FA81F202E0B0FA80F224
:1046000020329046FFF7B2FF04460F4640EA0A0008
:1046100041EA0B0153465A46084313D0114653EA68
:10462000010019D0C8F140025046FFF7AEFF054621
:104630000E46504659464246FFF798FF084305D0BC
:10464000012004E020463946BDE8F08D00200543F6
:1046500046EAE0762C4337430A986305E40AA0EB68
:1046600008000022FD0A44EA47540A3002D500201F
:104670000146E9E7010510196941DDE9084500191E
:104680006941BDE8F04DA2E72DE9F0410024061B89
:10469000254671F1000605DA01240027D0EB07005A
:1046A00067EB0101161E73F1000605DA0027D2EB55
:1046B0000702012567EB0303FFF786FD86460E46DA
:1046C00017469C46AC4204D00025D0EB050E65EBA6
:1046D000010624B10020D2EB000760EB030C70460A
:1046E00031463A466346BDE8F081D2B201E000F8B7
:1046F000012B491EFBD270470022F6E710B5134686
:104700000A4604461946FFF7F0FF204610BD000098
:104710007CB507480090074801900546009C04E0DE
:104720002046016808448047241DAC42F8D17CBD76
:10473000980C01089C0C0108F0B480EA0102D40F27
:104740004200B2EB410F02D20246084611464A002F
:1047500042D0C30DDDB2C1F3C752AD1A202D35DAF8
:10476000C1F3160141F4000204B15242C5F1200622
:1047700002FA06F12A411044B3EBD05F23D0C4B152
:10478000012DA0EBC35009DCF0BC4FF0004202EA5F
:10479000C352DBB200F5000000F075B9400000F133
:1047A000807000EBC350A0F1807040EAD1704900E6
:1047B00009E0490841EAC071A0EBC35000F50000D0
:1047C000400800EBC350F0BC00F054B96142012234
:1047D00002EB4101001BF6E7F0BC704781F000419D
:1047E000AAE780F00040A7E780EA010210B502F0D6
:1047F0000043400022D04A001FD0010E01EB12619D
:10480000C0F35600C2F3560240F4000042F4000226
:10481000A0FB022000047F39140400D0401C50EAA1
:10482000124001D44000491EC2B20C0604EBD01065
:10483000401C4008802A02D003E0002010BD20F078
:104840000100002900DA0020184310BD30B480EACE
:10485000010202F0004530F0004221F0004013D088
:1048600090B1C30DD40DC2F31601C0F31600E41AC3
:1048700041F4000140F400027D34914201D3641CF4
:1048800000E04900002C02DA30BC002070474FF4F1
:1048900000000023914201D3891A034340084FEAE4
:1048A0004101F7D151B1914202D14FF0004105E0F1
:1048B00002D24FF0010101E06FF0010103EBC4509F
:1048C000284430BC00F0D6B8002801DBC0F100401D
:1048D000002901DBC1F10041814201D8012070476C
:1048E00000207047002801DBC0F10040002901DBF7
:1048F000C1F10041814201D2012070470020704780
:10490000002801DBC0F10040002901DBC1F10041BA
:10491000814201D30120704700207047002801DB4D
:10492000C0F10040002901DBC1F10041814201D901
:104930000120704700207047002801DBC0F10040D3
:10494000002901DBC1F10041814201D10120704702
:1049500000207047C10F80EAE0700844CA07962320
:10496000002100F090B896230022114600F08BB889
:104970000EB540F2334102910021CDE900110A4603
:104980000B46FFF733FE03B000BD00F0004220F0FD
:104990000040C10DC0F3160040F400007F2901DA89
:1049A00000207047962903DCC1F19601C84001E060
:1049B00096398840002AF4D04042704720F00040E9
:1049C000C10DC0F3160040F400007F2901DA002079
:1049D0007047962903DCC1F19601C84070479639AB
:1049E00088407047C1F30A5210B5C1F3130140F279
:1049F000FF3341F480119A4201DA002010BD40F2E9
:104A000033439A42A2F2334203DC5242FFF7BDFD28
:104A100010BD904010BD00F0004230F000400AD0C0
:104A2000C10D01F56071C0F3160042EA0151C208E0
:104A300040071143704700200146704701F00043D2
:104A400030B421F0004150EA010206D00A0DA2F56F
:104A50006072C1F31301002A02DC30BC00207047F1
:104A6000440F44EAC104C100E01830BC00EBC2505E
:104A7000AFF300800029A8BF7047401C490008BF61
:104A800020F00100704710B4B0FA80FC00FA0CF07E
:104A900050EA010404BF10BC704749B1CCF12004B6
:104AA00021FA04F411FA0CF118BF01212143084343
:104AB000A3EB0C01CB1D4FEA00614FEA102042BF6F
:104AC000002010BC704700EBC35010440029A4BF65
:104AD00010BC7047401C490008BF20F0010010BC0A
:104AE000704770B58C1810F8015B15F0070301D101
:104AF00010F8013B2A1106D110F8012B03E010F841
:104B0000016B01F8016B5B1EF9D12B0705D4002363
:104B1000521E0DD401F8013BFAE710F8013BCB1A05
:104B2000921C03E013F8015B01F8015B521EF9D5FA
:104B3000A142D8D3002070BD10B541F27844C2F232
:104B4000000440F24721C2F20001204608F072FB47
:104B500004F1100040F24761C2F2000108F06AFB64
:104B600043F60000C4F20100206210BD80B582B09F
:104B700040F20C10C2F2000001900198007930B1AF
:104B8000FFE7012825D0FFE7022852D06BE001980B
:104B9000C06880470198407950B9FFE7019801212A
:104BA000017140F28010C2F20000052101705AE04C
:104BB0000198407901280AD1FFE70198012101718C
:104BC00040F28010C2F20000642101704BE0FFE768
:104BD00049E001988068804740F28010C2F20000EE
:104BE000017801390170080610BBFFE70198022126
:104BF00001710198407950B9FFE7019802210171D4
:104C000040F28010C2F20000052101702BE00198F3
:104C1000407901280AD1FFE701980221017140F291
:104C20008010C2F20000642101701CE0FFE7FFE782
:104C300019E00198C068804740F28010C2F200007D
:104C4000017801390170080660B9FFE70198002179
:104C5000017101980222427140F28010C2F20000FC
:104C6000017000E0FFE702B080BD0000FFE7FEE753
:104C700010B540F60044C4F2010420464FF423610D
:104C800007F09EFB20464FF4E47107F08FFB10BD48
:104C90007047000080B582B08DF807009DF80700CE
:104CA0000A2800F21D82DFE810F00B001C007A00D9
:104CB000D80004013C017401AC01E401F7010902D0
:104CC00040F24120C2F200000F21017040F2422068
:104CD000C2F20000017040F24320C2F200000170F5
:104CE000FFE141F23020C2F2000090F80E0168B9F5
:104CF000FFE741F23020C2F20000406CFFF745FEB2
:104D000040F28411C2F20001088016E041F2302026
:104D1000C2F2000090F80E0101280DD1FFE741F228
:104D20003020C2F20000C06CFFF72FFE40F2841169
:104D3000C2F200010880FFE7FFE740F2841CC2F2E4
:104D4000000CBCF8001045F62942C0F28F22A1FBEE
:104D5000021240F24121C2F200010A70BCF80010B8
:104D600049F69A12C1F69912A1FB0213A3FB021095
:104D700000EB8000A3EB400040F24221C2F20001B0
:104D80000870BCF80000A0FB021202EB8201A0EB4D
:104D9000410040F24321C2F200010870A1E141F25A
:104DA0003020C2F2000090F80E0168B9FFE741F22E
:104DB0003020C2F20000806DFFF7E7FD40F2841161
:104DC000C2F20001088016E041F23020C2F2000079
:104DD00090F80E0101280DD1FFE741F23020C2F218
:104DE0000000006EFFF7D1FD40F28411C2F2000115
:104DF0000880FFE7FFE740F2841CC2F2000CBCF819
:104E0000001045F62942C0F28F22A1FB021240F2A7
:104E10004121C2F200010A70BCF8001049F69A1252
:104E2000C1F69912A1FB0213A3FB021000EB800054
:104E3000A3EB400040F24221C2F200010870BCF82E
:104E40000000A0FB021202EB8201A0EB410040F245
:104E50004321C2F20001087043E141F23020C2F266
:104E6000000090F80E0138B9FFE740F24220C2F28C
:104E700000000A21017010E041F23020C2F200006F
:104E800090F80E01012807D1FFE740F24220C2F25C
:104E900000000C210170FFE7FFE740F24120C2F261
:104EA00000000F21017040F24320C2F200000170A7
:104EB00017E141F23020C2F2000090F81001012801
:104EC00013D1FFE740F24120C2F20000132101702C
:104ED00040F24220C2F200000021017040F2432063
:104EE000C2F200000E2101701AE041F23020C2F23D
:104EF000000090F8100190B9FFE740F24120C2F2A3
:104F000000000021017040F24220C2F200000C219A
:104F1000017040F24320C2F200000170FFE7FFE79A
:104F2000DFE041F23020C2F2000090F812010128C7
:104F300013D1FFE740F24120C2F2000013210170BB
:104F400040F24220C2F200000021017040F24320F2
:104F5000C2F200000E2101701AE041F23020C2F2CC
:104F6000000090F8120190B9FFE740F24120C2F230
:104F700000000021017040F24220C2F200000C212A
:104F8000017040F24320C2F200000170FFE7FFE72A
:104F9000A7E041F23020C2F2000090F8140198B965
:104FA000FFE740F24120C2F200001321017040F2FD
:104FB0004220C2F200000021017040F24320C2F200
:104FC00000000E2101701BE041F23020C2F200000F
:104FD00090F81401012812D1FFE740F24120C2F2FB
:104FE00000000021017040F24220C2F200000C21BA
:104FF000017040F24320C2F200000170FFE7FFE7BA
:105000006FE041F23020C2F20000D0F88000FFF7DC
:10501000BCFC40F28211C2F200010880088845F60B
:105020002942C0F28F22A0FB020240F24120C2F2CC
:1050300000000270088849F69A1CC1F6991CA0FB72
:105040000C03A3FB0C0202EB8200A3EB400040F236
:105050004222C2F2000210700888A0FB0C1202EB80
:105060008201A0EB410040F24321C2F2000108702E
:1050700037E040F24120C2F200000121017040F20D
:105080004220C2F200000021017040F24320C2F22F
:1050900000000521017024E040F24120C2F200002E
:1050A0000121017040F24220C2F200000022027091
:1050B00040F24320C2F20000017012E040F24120B1
:1050C000C2F200000F21017040F24220C2F2000043
:1050D0001422027040F24320C2F20000017000E08E
:1050E000FFE741F23020C2F2000090F81A0105F00B
:1050F000F1FA02B080BD000080B582B08DF80700E3
:105100008DF806108DF805209DF80600042800F2A1
:105110004181DFE810F005008000FE001601270144
:1051200041F23020C2F20000016B406BFFF704FC3B
:1051300050B1FFE741F23020C2F20000816BC06B3A
:10514000FFF7FAFBA8BBFFE741F23020C2F20000F4
:1051500090F80E0168B9FFE741F23020C2F200007A
:10516000006BFFF712FC40F28A11C2F200010880C6
:1051700016E041F23020C2F2000090F80E01012842
:105180000DD1FFE741F23020C2F20000806BFFF743
:10519000FCFB40F28A11C2F200010880FFE7FFE742
:1051A00041F23020C2F20000016B4163816BC163A8
:1051B000FFE740F28A1CC2F2000CBCF8001045F672
:1051C0002942C0F28F22A1FB021240F24421C2F216
:1051D00000010A70BCF8001049F69A12C1F6991243
:1051E000A1FB0213A3FB021000EB8000A3EB400025
:1051F00040F24521C2F200010870BCF80000A0FB9B
:10520000021202EB8201A0EB410040F24621C2F201
:1052100000010870BFE040F20100C2F20000017816
:10522000013901700078002841DCFFE741F23020AD
:10523000C2F2000090F80E0180B9FFE741F2302180
:10524000C2F200010869496DFFF7C8FAFFF79DFB3C
:1052500040F28A11C2F20001088027E041F23020BA
:10526000C2F2000090F80E0101281ED1FFE741F2C2
:105270003021C2F200010869496DFFF7AFFA002141
:10528000C4F21011FFF7B0FA0021C4F2A001FFF739
:10529000DDFA4FF08441FFF74FFAFFF776FB40F25B
:1052A0008A11C2F200010880FFE7FFE7FFE740F242
:1052B0008A1CC2F2000CBCF8001045F62942C0F26C
:1052C0008F22A1FB021240F24421C2F200010A70B7
:1052D000BCF8001049F69A12C1F69912A1FB02130C
:1052E000A3FB021000EB8000A3EB400040F245213D
:1052F000C2F200010870BCF80000A0FB021202EB31
:105300008201A0EB410040F24621C2F20001087088
:1053100041E040F24420C2F200000B21017040F253
:105320004520C2F200001421017041F23020C2F287
:10533000000090F80A0140F24621C2F20001087014
:1053400029E040F24420C2F200000F21017040F237
:105350004520C2F20000017040F24620C2F2000077
:10536000017018E040F24420C2F200000A210170EE
:1053700040F24520C2F200000D21017041F23020C0
:10538000C2F2000090F8E90040F24621C2F20001AA
:10539000087000E0FFE79DF80700042800F2418153
:1053A000DFE810F005008000FE001601270141F241
:1053B0003020C2F20000016A406AFFF7BDFA50B126
:1053C000FFE741F23020C2F20000816AC06AFFF7B5
:1053D000B3FAA8BBFFE741F23020C2F2000090F818
:1053E0000E0168B9FFE741F23020C2F20000006A06
:1053F000FFF7CBFA40F28811C2F20001088016E0F4
:1054000041F23020C2F2000090F80E0101280DD1C7
:10541000FFE741F23020C2F20000806AFFF7B5FAE0
:1054200040F28811C2F200010880FFE7FFE741F275
:105430003020C2F20000016A4162816AC162FFE766
:1054400040F2881CC2F2000CBCF8001045F629425C
:10545000C0F28F22A1FB021240F23E21C2F20001F3
:105460000A70BCF8001049F69A12C1F69912A1FB15
:105470000213A3FB021000EB8000A3EB400040F2FC
:105480003F21C2F200010870BCF80000A0FB02122C
:1054900002EB8201A0EB410040F24021C2F2000188
:1054A0000870BFE040F20000C2F20000017801394C
:1054B00001700078002841DCFFE741F23020C2F2A1
:1054C000000090F80E0180B9FFE741F23021C2F2EE
:1054D00000010868096CFFF781F9FFF756FA40F2FE
:1054E0008811C2F20001088027E041F23020C2F2A8
:1054F000000090F80E0101281ED1FFE741F2302193
:10550000C2F200010868096CFFF768F90021C4F2D3
:105510001011FFF769F90021C4F2A001FFF796F915
:105520004FF08441FFF708F9FFF72FFA40F2881196
:10553000C2F200010880FFE7FFE7FFE740F2881CA6
:10554000C2F2000CBCF8001045F62942C0F28F22CE
:10555000A1FB021240F23E21C2F200010A70BCF827
:10556000001049F69A12C1F69912A1FB0213A3FB8F
:10557000021000EB8000A3EB400040F23F21C2F29A
:1055800000010870BCF80000A0FB021202EB8201CF
:10559000A0EB410040F24021C2F20001087041E05E
:1055A00040F23E20C2F200000B21017040F23F2089
:1055B000C2F200001421017041F23020C2F200005A
:1055C00090F8080140F24021C2F20001087029E081
:1055D00040F23E20C2F200000F21017040F23F2055
:1055E000C2F20000017040F24020C2F200000170DF
:1055F00018E040F23E20C2F200000A21017040F2A1
:105600003F20C2F200000D21017041F23020C2F2B1
:10561000000090F8E80040F24021C2F2000108705A
:1056200000E0FFE79DF80500042800F2C180DFE8F4
:1056300000F0034C9596A70041F23020C2F2000022
:10564000D0F8B810D0F8BC00FFF776F9E0BBFFE760
:1056500041F23020C2F20000D0F8B810C0F8BC10FF
:10566000D0F8B800FFF791F940F28611C2F20001BC
:105670000880088845F62942C0F28F22A0FB02026A
:1056800040F23B20C2F200000270088849F69A1CE2
:10569000C1F6991CA0FB0C03A3FB0C0202EB8200D9
:1056A000A3EB400040F23C22C2F2000210700888D6
:1056B000A0FB0C1202EB8201A0EB410040F23D2165
:1056C000C2F200010870FFE773E041F23020C2F23D
:1056D0000000D0F8C410D0F8C800FFF72DF9E0BBE7
:1056E000FFE741F23020C2F20000D0F8C410C0F849
:1056F000C810D0F8C400FFF748F940F28611C2F292
:1057000000010880088845F62942C0F28F22A0FBDC
:10571000020240F23B20C2F200000270088849F603
:105720009A1CC1F6991CA0FB0C03A3FB0C0202EB14
:105730008200A3EB400040F23C22C2F20002107053
:105740000888A0FB0C1202EB8201A0EB410040F2A2
:105750003D21C2F200010870FFE72AE029E040F293
:105760003B20C2F200000F21017040F23C20C2F247
:105770000000017040F23D20C2F20000017018E00C
:1057800040F23B20C2F200000A21017040F23C20AE
:10579000C2F200000D21017041F23020C2F200007F
:1057A00090F8E80040F23D21C2F20001087000E0EC
:1057B000FFE704F083FB02B080BD000010B540F6A7
:1057C0000044C4F2010420464FF4036106F0F8FDE2
:1057D00020464FF4727106F0E9FD10BD80B584B02B
:1057E00002908DF8071000208DF806000298408E78
:1057F0004FF6FE71884205DCFFE70298418E0131C9
:105800004186FFE79DF907000330062833D8DFE81B
:1058100000F02B32143204322400029800F0F2F827
:10582000029981F83400029890F83400012101288F
:1058300008BF09218DF806101EE0029800F0E2F87A
:10584000029981F83400029890F83400022101286E
:1058500008BF0A218DF806100EE003208DF806001F
:10586000029800F0F9F807E004208DF8060002988D
:1058700000F0F2F800E0FFE7029890F82700B0FA95
:1058800080F040098DF80500029890F82D10002056
:1058900041B9FFE7029890F827000138B0FA80F08C
:1058A0004009FFE700F001008DF80400029890F82D
:1058B000271080F82D10029890F8300068B1FFE7AB
:1058C0009DF8040020B1FFE7029800F0C5F8FFE75B
:1058D0009DF806008DF80F008FE00298408D01289A
:1058E00016DBFFE70298418D013941850298408D12
:1058F00068B9FFE7029890F82C00012807D1FFE76C
:1059000005208DF80600029800F0A6F8FFE7FFE7F3
:105910009DF8050000283FD0FFE70298018D013176
:1059200001850298018D008B814219D1FFE7029811
:10593000408D01280EDBFFE7029890F82C0001282B
:1059400008D1FFE706208DF806000298012180F8B3
:10595000301004E00298012180F82C10FFE7FFE7E7
:105960000298018D408B814215DBFFE70298C18DC3
:105970000131C1850298C18DC08BB1FBF0F202FBF1
:10598000101038B9FFE702980021C18508208DF872
:105990000600FFE7FFE72BE09DF8040038B3FFE7C0
:1059A0000298018D008B81421DDBFFE70298018D7B
:1059B000408B81420FDAFFE7029890F82C00012813
:1059C00008D1FFE70298408D20B9FFE70298818B4C
:1059D0004185FFE706E007208DF80600029800F0F9
:1059E0003BF8FFE7FFE7029800210185FFE7FFE7AB
:1059F0009DF806008DF80F00FFE79DF80F0004B03A
:105A000080BD000082B000900098418E008C8142E1
:105A100007DAFFE700980021418601208DF8070092
:105A200005E00098002141868DF80710FFE79DF8FA
:105A3000070002B07047000080B582B00190ADF859
:105A400002100198BDF8021006F07AFD0138B0FA94
:105A500080F0400902B080BD81B000900098002124
:105A6000018500984185009880F82C100098C18528
:105A7000009880F8301001B07047000080B582B007
:105A8000019000208DF80300019908688988FFF7CC
:105A9000D3FF40F28C11C2F20001087001998868AE
:105AA0008989FFF7C9FF40F28D11C2F20001087029
:105AB00001990869898AFFF7BFFF40F28E11C2F28F
:105AC000000108700878019A82F827000878019987
:105AD00081F826000198807DA8BBFFE740F28C107A
:105AE000C2F200000078019991F82410884229D070
:105AF000FFE740F28C10C2F20000007888B9FFE79F
:105B000040F28D10C2F200000078012804D1FFE7B6
:105B100001208DF8030003E0FF208DF80300FFE76C
:105B2000FFE740F28C10C2F200000078019981F882
:105B3000240040F28D10C2F200000078019981F833
:105B40002500FFE7CBE040F28C10C2F200000078A5
:105B5000019991F82410884200F0C080FFE740F2DC
:105B60008C10C2F200000078012853D1FFE70198A1
:105B700090F8250001280BD1FFE740F28D10C2F20A
:105B80000000007820B9FFE701208DF8030040E015
:105B9000019890F8250060B9FFE740F28D10C2F23D
:105BA00000000078012804D1FFE7FF208DF80300F2
:105BB0002EE0019890F8250040F28D11C2F200010C
:105BC000097888420BD1FFE740F28D10C2F2000045
:105BD000007820B9FFE701208DF8030017E0019855
:105BE00090F8250040F28D11C2F200010978884238
:105BF0000CD1FFE740F28D10C2F2000000780128BE
:105C000004D1FFE7FF208DF80300FFE7FFE7FFE780
:105C1000FFE752E0019890F8250001280BD1FFE73B
:105C200040F28D10C2F20000007820B9FFE7FF209B
:105C30008DF8030040E0019890F8250060B9FFE777
:105C400040F28D10C2F200000078012804D1FFE775
:105C500001208DF803002EE0019890F8250040F215
:105C60008D11C2F20001097888420BD1FFE740F2A2
:105C70008D10C2F20000007820B9FFE7FF208DF8F8
:105C8000030017E0019890F8250040F28D11C2F250
:105C90000001097888420CD1FFE740F28D10C2F272
:105CA00000000078012804D1FFE701208DF80300EF
:105CB000FFE7FFE7FFE7FFE7FFE740F28C10C2F2E4
:105CC00000000078019981F8240040F28D10C2F2A2
:105CD00000000078019981F82500FFE7FFE740F216
:105CE0008E10C2F200000078E8B9FFE79DF90300CA
:105CF00020B9FFE702208DF8030013E09DF90300AF
:105D0000012804D1FFE703208DF8030009E09DF985
:105D10000300013020B9FFE7FD208DF80300FFE705
:105D2000FFE7FFE7FFE79DF9030002B080BD000039
:105D300080B586B040F60070C2F200008069039022
:105D4000FFE700F009FA04900498039988422CD2E6
:105D5000FFE7EFF3108005900598029072B640F6C9
:105D60000070C2F200008069019001980399884296
:105D70000ED1FFE7049840F60071C2F2000188617D
:105D8000086901300861BFF35F8F0120009002E0D5
:105D900000200090FFE7029810B9FFE762B6FFE726
:105DA000009808B9FFE701E008E0FFE7049903A8BD
:105DB00002F0F4FF0028C4D0FFE7FFE7049806B024
:105DC00080BD000080B58CB00A90099108920793BD
:105DD00007200590FFE70598002863D0FFE700F053
:105DE000C7FF0490049800F03F0040F68021C2F203
:105DF000000101EB0010069004984FF4700101EAD5
:105E0000803001900A980199084309994FF0805217
:105E100002EAD101084308994FF0005202EA9101C9
:105E2000084307994FF0804202EA5101084340F0CD
:105E30000060039006980C30039900F0C9FF0390AE
:105E40009DF80F004007002827D5FFE7039880F052
:105E500000400390039800F000400290099820F061
:105E600000400299084306990860089820F0004015
:105E70000299084306994860079820F0004002996B
:105E800008430699886006980C30039901F0E0FBFE
:105E900000F094FF01200B9009E0FFE7059801381E
:105EA000059098E700F080FF00200B90FFE70B982B
:105EB0000CB080BD87B00590049103920498FE2831
:105EC00004D8FFE70398FF2803D3FFE700200690DC
:105ED00036E0002002900190FFE7019803282CD8BB
:105EE000FFE705980199C840C007F0B1FFE70498A3
:105EF0000090FFE700980399884215D8FFE70098C3
:105F000000F00701012202FA01F1029A02EBD0002F
:105F100040F68062C2F20002135C19431154FFE79D
:105F2000009801300090E5E7FFE7029820300290EA
:105F3000FFE7019801300190CFE701200690FFE7CD
:105F400007B0704710B588B0002007900121069176
:105F500040F60074C2F20004207040F68060C2F285
:105F600000008021FEF7C8FB03F018FBADF812001B
:105F7000206A42F26B71CEF2A51188420FD0FFE782
:105F800040F60070C2F2000042F26B71CEF2A51131
:105F90000162BDF8121041800121C1611CE040F690
:105FA0000070C2F200004088BDF8121088420AD08A
:105FB000FFE7BDF8120040F60071C2F20001488010
:105FC0000120C86107E040F60070C2F20000C1691C
:105FD0000131C161FFE7FFE740F60070C2F2000047
:105FE000C069012812D1FFE740F60070C2F200003C
:105FF0000021417041608160C16040F68020C2F2A2
:1060000000004FF48061FEF777FB20E00020009055
:10601000FFE700983F2819D8FFE7009840F6802155
:10602000C2F2000101EB001005900598C07B40070B
:10603000002806D5FFE70598C16821F04061C160DE
:10604000FFE7FFE7009801300090E2E7FFE740F646
:106050000070C2F20000C069012818D1FFE7AFF359
:10606000008001200290029820B1FFE700F078F84C
:10607000039002E000200390FFE7039840F60071D0
:10608000C2F20001486100208861086117E0AFF3A7
:10609000008001200290029820B1FFE700F060F834
:1060A000039002E000200390FFE7039840F60071A0
:1060B000C2F200014861002088610861FFE7029890
:1060C00030B3FFE707980021FE22FFF7F3FE0F2011
:1060D000EF21EF22FFF7EEFE0420FE21FE22FFF764
:1060E000E9FEFFF725FE0190019940F60070C2F22B
:1060F00000004369C2694FF60070C0F20030FFF73C
:1061000061FE069818B1FFE700F004F8FFE7FFE72B
:1061100008B010BD10B582B040F60070C2F20000A9
:10612000007818B1FFE70120019013E040F60070FD
:10613000C2F2000001240470FFF7FAFD00900099FC
:106140004FF60170C0F2003000220023FFF73AFE44
:106150000194FFE702B010BD80B506F0E3F880BD02
:1061600080B506F07BFF80BD10B540F60044C4F258
:10617000010420464FF4076106F022F920464FF44F
:10618000627106F013F910BDB0B581B041F2302054
:10619000C2F200000090009900200860009940F2CF
:1061A000000EC4F2BE3EC1F820E000990023C4F204
:1061B00033438B62009908610099C1F830E000997F
:1061C0008B630099A1F890000099086400994864D5
:1061D0000099C864009B4FF0010C83F804C1009B38
:1061E00083F80801009B83F80001009BC3F880003E
:1061F000009B83F80E01009B83F810C1009B83F87D
:106200001201009B83F81401009B83F81601009B88
:1062100083F81801009B83F81701009B83F8E800BE
:10622000009B83F8E900009BD866009B5867009BA1
:106230000021C4F2A031C3F89410009B0022C4F2E4
:10624000AF32C3F89820009BC3F89CE0009B002469
:10625000C4F22024C3F8AC40009B0024C4F24824BC
:10626000C3F8B040009B0025C4F27025C3F8B450B9
:10627000009BC3F8A0100099C1F8A4200099C1F8B0
:10628000A8E00099C1F8C8000099C1F8C4000099BD
:1062900081F81B01009988660099C8670099C1F8C8
:1062A000B8400099C1F8BC000099C1F8C00000993D
:1062B000C1F8EC000099FA22C1F8F0200099C1F869
:1062C000F400009981F8F800009981F8F90000992C
:1062D00081F8FA00009981F8FB00009981F8190112
:1062E000009981F81A01009981F81DC1009981F87F
:1062F0001E01009981F81F01009981F82001009981
:1063000081F81C0101B0B0BD10B540F2BC10C2F262
:1063100000000078032800F22A85DFE810F004006E
:106320001A01B102F10441F23020C2F2000090F8EB
:106330001C01C007002840F00381FFE74FF2004036
:10634000C0F6010003F044FD4FF6FF7188422DD0E6
:10635000FFE74FF60040C0F6010003F039FD4FF6AD
:10636000FF71884222D0FFE74FF22640C0F60100BD
:1063700004F03EFF40F29014C2F2000420804FF679
:106380002640C0F6010004F033FF40F29411C2F23F
:106390000001088020880988884203DDFFE705F0B6
:1063A000EFF902E005F0A4FAFFE720E04FF2004029
:1063B000C0F6010003F00CFD4FF6FF71884203D0D8
:1063C000FFE705F0DDF911E04FF60040C0F60100EF
:1063D00003F0FEFC4FF6FF71884203D0FFE705F0A3
:1063E00087FA02E005F0D0FDFFE7FFE7FFE702F0E4
:1063F000ABFD41F23024C2F20004012084F81C01FC
:10640000206AFEF7C2FA40F29211C2F2000108803F
:10641000206BFEF7BAFA40F2BE11C2F2000108800A
:10642000D4F8B800FEF7B1FA40F2B411C2F200019C
:106430000880D4F89400FEF7A8FA40F2A011C2F246
:1064400000010880D4F8A000FEF79FFA40F2A411E2
:10645000C2F200010880D4F8AC00FEF796FA40F2D0
:10646000A211C2F200010880D4F89800FEF78DFA5C
:1064700040F2A611C2F200010880D4F8A400FEF791
:1064800084FA40F2AA11C2F200010880D4F8B000E8
:10649000FEF77BFA40F2A811C2F200010880D4F89E
:1064A0009C00FEF772FA40F2AC11C2F200010880C3
:1064B000D4F8A800FEF769FA40F2B011C2F2000168
:1064C0000880D4F8B400FEF760FA40F2AE11C2F2D0
:1064D0000001088094F80E0140F2BA11C2F20001E6
:1064E000087094F8100140F2B911C2F2000108706E
:1064F000206CFEF74AFA40F29C11C2F200010880BB
:10650000606DFEF742FA40F2B611C2F20001088057
:1065100094F8120140F2B211C2F20001087094F82E
:10652000140140F29E11C2F200010870D4F88000FC
:10653000FEF72BFA40F2B811C2F20001087006E033
:1065400040F2BC10C2F2000001210170FFE700F030
:106550000EBC40F29210C2F200000088FEF703FA6F
:1065600041F23021C2F20001096AFEF7E5F9002884
:1065700000F03881FFE740F2BE10C2F20000008850
:10658000FEF7F1F941F23021C2F20001096BFEF78A
:10659000D3F9002800F02681FFE740F2B410C2F2E0
:1065A00000000088FEF7DFF941F23021C2F200015D
:1065B000D1F8B810FEF7C0F9002800F01381FFE70A
:1065C00040F2A010C2F200000088FEF7CCF941F2C0
:1065D0003021C2F20001D1F89410FEF7ADF9002885
:1065E00000F00081FFE740F2A410C2F20000008832
:1065F000FEF7B9F941F23021C2F20001D1F8A01042
:10660000FEF79AF9002800F0ED80FFE740F2A210B3
:10661000C2F200000088FEF7A6F941F23021C2F272
:106620000001D1F8AC10FEF787F9002800F0DA80FD
:10663000FFE740F2A610C2F200000088FEF793F9CF
:1066400041F23021C2F20001D1F89810FEF774F93E
:10665000002800F0C780FFE740F2AA10C2F2000055
:106660000088FEF780F941F23021C2F20001D1F832
:10667000A410FEF761F9002800F0B480FFE740F2B3
:10668000A810C2F200000088FEF76DF941F2302137
:10669000C2F20001D1F8B010FEF74EF9002800F068
:1066A000A180FFE740F2AC10C2F200000088FEF7C4
:1066B0005AF941F23021C2F20001D1F89C10FEF7E4
:1066C0003BF9002800F08E80FFE740F2B010C2F2E4
:1066D00000000088FEF747F941F23021C2F20001C4
:1066E000D1F8A810FEF728F900287BD0FFE740F288
:1066F000AE10C2F200000088FEF735F941F23021F9
:10670000C2F20001D1F8B410FEF716F9002869D0E2
:10671000FFE740F2BA10C2F20000007841F23021E7
:10672000C2F2000191F80E1188425BD1FFE740F2FE
:10673000B910C2F20000007841F23021C2F200012B
:1067400091F8101188424DD1FFE740F29C10C2F23F
:1067500000000088FEF707F941F23021C2F2000183
:10676000096CFEF7E9F8E8B3FFE740F2B610C2F2B1
:1067700000000088FEF7F7F841F23021C2F2000174
:10678000496DFEF7D9F868B3FFE740F2B210C2F2E4
:106790000000007841F23021C2F2000191F812119C
:1067A00088421FD1FFE740F29E10C2F2000000783D
:1067B00041F23021C2F2000191F81411884211D146
:1067C000FFE740F2B810C2F200000078FEF7CBF805
:1067D00041F23021C2F20001D1F88010FEF7ACF88E
:1067E000C8B9FFE740F29610C2F2000001880131FB
:1067F0000180008814280DDBFFE740F2BB10C2F2D5
:1068000000000121017040F29610C2F20000002148
:106810000180FFE706E040F29610C2F2000000217E
:106820000180FFE740F2BB10C2F2000000780128AF
:1068300025D1FFE740F2BB10C2F200000021017039
:1068400004F0A0FC40F29810C2F200000078C007EB
:1068500038B1FFE74FF20040C0F6010004F056FCEB
:1068600006E04FF60040C0F6010004F04FFCFFE7E1
:1068700040F2BC10C2F2000002210170FFE776E294
:1068800040F29810C2F200000078C007002800F023
:10689000C780FFE741F23024C2F20004206AFEF70D
:1068A00074F801464FF20040C0F6010004F0A4FB6A
:1068B000D4F8B800FEF769F801464FF20240C0F67E
:1068C000010004F099FBD4F89400FEF75EF801464D
:1068D0004FF20440C0F6010004F08EFBD4F8AC0087
:1068E000FEF753F801464FF20640C0F6010004F0EF
:1068F00083FBD4F89800FEF748F801464FF20840B1
:10690000C0F6010004F078FBD4F8B000FEF73DF8C3
:1069100001464FF20A40C0F6010004F06DFBD4F8C6
:106920009C00FEF732F801464FF20C40C0F6010021
:1069300004F062FBD4F8B400FEF727F801464FF2EA
:106940000E40C0F6010004F057FB206BFEF71DF867
:1069500001464FF21040C0F6010004F04DFBD4F8A0
:10696000A000FEF712F801464FF21240C0F60100F7
:1069700004F042FBD4F8A400FEF707F801464FF2FA
:106980001440C0F6010004F037FBD4F8A800FDF76E
:10699000FCFF01464FF21640C0F6010004F02CFB4C
:1069A00094F80E114FF21840C0F6010004F024FBD9
:1069B00094F810114FF21A40C0F6010004F01CFBCD
:1069C000206CFDF7E2FF01464FF21C40C0F60100CB
:1069D00004F012FB606DFDF7D8FF01464FF21E4038
:1069E000C0F6010004F008FB94F812114FF22040A9
:1069F000C0F6010004F000FB94F814114FF222409D
:106A0000C0F6010004F0F8FAD4F88000FDF7BDFFED
:106A100001464FF22440C0F6010004F0EDFAC5E053
:106A200041F23024C2F20004206AFDF7AEFF0146B5
:106A30004FF60040C0F6010004F0DEFAD4F8B800CA
:106A4000FDF7A3FF01464FF60240C0F6010004F037
:106A5000D3FAD4F89400FDF798FF01464FF60440AE
:106A6000C0F6010004F0C8FAD4F8AC00FDF78DFFC1
:106A700001464FF60640C0F6010004F0BDFAD4F816
:106A80009800FDF782FF01464FF60840C0F601006E
:106A900004F0B2FAD4F8B000FDF777FF01464FF6E4
:106AA0000A40C0F6010004F0A7FAD4F89C00FDF7F4
:106AB0006CFF01464FF60C40C0F6010004F09CFA52
:106AC000D4F8B400FDF761FF01464FF60E40C0F662
:106AD000010004F091FA206BFDF757FF01464FF6D5
:106AE0001040C0F6010004F087FAD4F8A000FDF7CA
:106AF0004CFF01464FF61240C0F6010004F07CFA4C
:106B0000D4F8A400FDF741FF01464FF61440C0F64B
:106B1000010004F071FAD4F8A800FDF736FF014631
:106B20004FF61640C0F6010004F066FA94F80E1114
:106B30004FF61840C0F6010004F05EFA94F8101108
:106B40004FF61A40C0F6010004F056FA206CFDF72B
:106B50001CFF01464FF61C40C0F6010004F04CFA41
:106B6000606DFDF712FF01464FF61E40C0F60100B2
:106B700004F042FA94F812114FF62040C0F60100DA
:106B800004F03AFA94F814114FF62240C0F60100CE
:106B900004F032FAD4F88000FDF7F7FE01464FF614
:106BA0002440C0F6010004F027FAFFE741F2302448
:106BB000C2F20004206AFDF7E8FE40F29211C2F230
:106BC00000010880206BFDF7E0FE40F2BE11C2F22A
:106BD00000010880D4F8B800FDF7D7FE40F2B411E8
:106BE000C2F200010880D4F89400FDF7CEFE40F216
:106BF000A011C2F200010880D4F8A000FDF7C5FE84
:106C000040F2A411C2F200010880D4F8AC00FDF7F4
:106C1000BCFE40F2A211C2F200010880D4F8980034
:106C2000FDF7B3FE40F2A611C2F200010880D4F8CD
:106C3000A400FDF7AAFE40F2AA11C2F200010880EA
:106C4000D4F8B000FDF7A1FE40F2A811C2F2000195
:106C50000880D4F89C00FDF798FE40F2AC11C2F217
:106C600000010880D4F8A800FDF78FFE40F2B011B3
:106C7000C2F200010880D4F8B400FDF786FE40F2AD
:106C8000AE11C2F20001088094F80E0140F2BA1170
:106C9000C2F20001087094F8100140F2B911C2F27A
:106CA00000010870206CFDF770FE40F29C11C2F2EA
:106CB00000010880606DFDF768FE40F2B611C2F277
:106CC0000001088094F8120140F2B211C2F20001F2
:106CD000087094F8140140F29E11C2F2000108708D
:106CE000D4F88000FDF751FE40F2B811C2F2000165
:106CF000087040F2BC10C2F200000321017036E0BF
:106D000040F29810C2F200000078C00760B1FFE7BF
:106D100040F29A10C2F2000001884FF22640C0F6FD
:106D2000010004F069F90BE040F29A10C2F2000091
:106D300001884FF62640C0F6010004F05DF9FFE738
:106D400004F07AF940F29A10C2F200000188013191
:106D5000018040F29810C2F2000001780131017008
:106D600040F2BC10C2F2000001210170FFE710BD2B
:106D700080B540F60070C2F20000043002F046F820
:106D800080BD000010B540F60044C4F20104204666
:106D900040F6480105F014FB20464FF46C7105F0F5
:106DA00005FB10BDFFE7FEE780B540F60070C2F2BC
:106DB00000000C3002F02AF880BD000080B540F6DB
:106DC0000070C2F20000083002F020F880BD000020
:106DD00087B005900491059800680390FFE79DF83F
:106DE0000F004007002803D5FFE70020069033E09E
:106DF0000498039901F00041084340F0806002903C
:106E0000FFE7059902980190039B019AFFE751E87B
:106E1000000F984209D1FFE7FFE741E8002303B1E3
:106E200006E0BFF35F8F012104E0BFF32F8FFFE780
:106E30000021FFE7CA0712B9FFE70390FFE701F05F
:106E400001008DF803009DF80300C0070028C6D09C
:106E5000FFE702980690FFE7069807B0704700002A
:106E6000FFE7FEE77047000086B005900491002020
:106E70000390059800F0070002900298C0F1070007
:106E8000052802D3FFE7042003E00298C0F10700C1
:106E9000FFE7019002980430062802D8FFE700209F
:106EA00002E002980338FFE700900498019901225C
:106EB00002FA01F10139084000998840039B02FA67
:106EC00001F101391940084306B0704786B00590BA
:106ED00004910392059800F0070002900298C0F117
:106EE0000700052802D3FFE7042003E00298C0F161
:106EF0000700FFE7019002980430062802D8FFE758
:106F0000002002E002980338FFE7009004980199FE
:106F1000012202FA01F10139084000998840039BDF
:106F200002FA01F101391940084306B07047000028
:106F300010B540F60044C4F2010420464FF4066147
:106F400005F03EFA20464FF4667105F02FFA10BDA9
:106F500081B040F2CC10C2F20000009000980021F5
:106F600001620098C1610098416100980161009838
:106F7000C16001B07047000081B041F2BC30C2F284
:106F80000000009000980021C16101B0704700002E
:106F900084B0DDF810C00390029101920093029832
:106FA00003990860019803994860009803998860E4
:106FB0000398002101620398C1610398416103981D
:106FC00001610398C1600498039948620498039989
:106FD000886204B07047000070B584B003900291DD
:106FE000019202980199FDF7F9FB03994861039812
:106FF00040690021C4F2C821FDF790FC88B9FFE781
:10700000039840690021CCF2C821FDF76BFC40B920
:10701000FFE703984169039CE069FDF78DFBE061A0
:1070200003E003980021C161FFE70398C0694CF6B3
:107030000001C4F22F71FDF755FC38B9FFE7039842
:107040004CF60001C4F22F71C161FFE70398C069DB
:107050000021FDF763FC20B9FFE703980021C1611F
:10706000FFE70398406903990969FDF7B7FB0399A6
:10707000886103980468456903994868C969FDF700
:10708000B3FB0399496A00F041FC064620462946B5
:10709000FDF7AAFB3146FDF74FFB044603998868CC
:1070A0008969FDF7A1FB2146FDF746FB03990862BC
:1070B00003984069039908610398006A0399896AF3
:1070C000FDF702FC28B9FFE70398806A039908627C
:1070D000FFE70398006A0021FDF712FC20B9FFE7E3
:1070E000039800210162FFE70398006A04B070BDB5
:1070F0007047000080B582B041F21C00C2F200006F
:1071000001900198013008F08BFF019981F801018D
:10711000019890F8010116286AD1FFE7019840789C
:10712000D12806D1FFE70198807DF02801D1FFE743
:1071300000E058E00199481C01F5017102F0BCF92A
:10714000019800F5017002F06FFA009002F08EFADB
:107150000198807C9DF80310884243D1FFE7019895
:10716000C07C9DF8021088423CD1FFE70198007D69
:107170009DF80110884235D1FFE70198407D9DF8C8
:10718000001088422ED1FFE701988078012810D1A5
:10719000FFE70198C07801280BD1FFE701984079FB
:1071A00038B9FFE740F20010C2F200000021017080
:1071B00017E001988078022810D1FFE70198C07885
:1071C00001280BD1FFE70198407938B9FFE740F279
:1071D0000010C2F200000121017001E000BFFFE7D2
:1071E000FFE7FFE7FFE70198002180F80111FFE7C3
:1071F00002B080BD7047000010B540F20400C2F23A
:1072000000000168013901600068B0F1FF3F19DC3E
:10721000FFE740F20400C2F200004FF4FA7101608F
:1072200041F23020C2F2000090F8FA10012222EA66
:10723000010180F8FA1090F8FB1022EA010180F8B1
:10724000FB10FFE741F2EC40C2F20000006880470B
:1072500000F0CEF909F0B8FA05F07EFB06F062FA0C
:1072600006F0A2FA40F20A00C2F2000001780139E9
:107270000170007828BBFFE740F60044C4F2000428
:1072800020460021002208F021F802F0CFFD02F094
:10729000CBF806F003F941F23020C2F20000006F93
:1072A000FDF78CFB02462046002108F00FF820462F
:1072B00008F056F840F20A00C2F200000A210170FC
:1072C000FFE740F20800C2F20000018801390180A6
:1072D0000088A8B9FFE741F2E840C2F20000016867
:1072E00041F23022C2F20002C2F8C0100021016057
:1072F00040F20800C2F200004FF47A710180FFE70B
:1073000040F2C010C2F20000007800285CD1FFE714
:10731000102003F097FF40F2C811C2F2000108806C
:107320000888FDF725FB4BF65202C8F21E5245F2C3
:10733000EB13CCF20A03FDF71FF80023C3F63073FA
:107340000022FDF719F845F62942CCF28F2242F6C9
:10735000F503C3F6F473FCF768FF4EF23312CFF671
:10736000972245F27933CBF67173FDF777F8002356
:10737000C4F239030022FCF758FFFDF75FFB41F22E
:107380003021C2F20001C867C86F0021C4F2482151
:10739000FDF7C4FAB8B9FFE741F23020C2F20000AD
:1073A000C06F0021FDF790FA68B9FFE741F2302085
:1073B000C2F20000C16F016040F2C010C2F20000D2
:1073C00001210170FFE7FFE710BD000041F21C0042
:1073D000C4F20200016841F08051016047F250019F
:1073E000C4F200010A7842F004020A70016821F038
:1073F0008051016041F20000C4F20200016841F0D6
:1074000001010160FFE741F20000C4F202000068E0
:10741000C0F34000012801D0FFE7F4E741F2040087
:10742000C4F20200016821F003010160FFE741F2AC
:107430000400C4F2020000688008800708B1FFE77A
:10744000F5E741F20000C4F2020001684FF6FF7256
:10745000CFF6F2621140016041F20400C4F2020072
:107460000021016041F22C00C4F2020041F61071CB
:10747000016041F23000C4F202004FF4801101605B
:1074800041F20800C4F202004FF41F0101604EF601
:107490000850CEF200004FF000610160704700001C
:1074A00010B507F0B3FF80B1FFE741F2E844C2F244
:1074B000000420684FF07E51FDF73EF920604FF048
:1074C0008040022107F05AFFFFE710BD10B507F01A
:1074D0005FFFE0B3FFE741F23020C2F2000090F816
:1074E0001C01C00718B1FFE700F0A2FD06E041F261
:1074F0003020C2F2000000218166FFE741F2302017
:10750000C2F20000806E0021FDF708FA38B9FFE7EB
:1075100041F23020C2F2000000218166FFE741F213
:107520003020C2F20000806EFDF748FA024640F2B9
:107530000044C4F200042046002107F0C7FE2046A4
:1075400007F00EFF2046012107F018FFFFE710BDEE
:1075500010B582B043F60C00C4F201000068400987
:10756000C007A8B1FFE7202008F022FC78B1FFE7B0
:1075700008F0D6FBC1B241F27844C2F200042046C2
:1075800005F0C2FE0420207301206073FFE7FFE7CF
:1075900043F60C00C4F2010000688009C00720B364
:1075A000FFE7402008F004FCF0B1FFE708F0E6FB3D
:1075B00041F27840C2F2000010300DF1070105F0F1
:1075C0007FFE48B9FFE79DF8071043F60000C4F2BC
:1075D000010008F0B1FB06E041F27840C2F2000081
:1075E00000214177FFE7FFE7FFE702B010BD000091
:1075F00041F27840C2F20000407B012817D1FFE73A
:1076000041F27840C2F20000007B40B1FFE741F256
:107610007840C2F20000017B0139017306E041F2BB
:107620007840C2F2000002214173FFE7FFE741F218
:107630007840C2F20000007F40B1FFE741F278409D
:10764000C2F20000017F01390177FFE770470000B7
:1076500085B004900391039820F080600290049814
:10766000029901910199BFF35F8FFFE750E8002F66
:1076700040E80013002BF9D1FFE7009205B07047F6
:10768000FFE7FEE710B586B041F21C00C2F2000031
:1076900005900120ADF81200ADF81000ADF80E0015
:1076A0000A20ADF80C000020ADF80A00ADF8080083
:1076B000ADF80600ADF80400ADF802000598D12140
:1076C00080F802119DF81200059981F803019DF8D8
:1076D0001000059981F804019DF80F00059981F8C3
:1076E0000501BDF80E00059981F806019DF80D0011
:1076F000059981F80701BDF80C00059981F808018A
:107700009DF80B00059981F80901BDF80A0005995B
:1077100081F80A019DF80900059981F80B01BDF86F
:107720000800059981F80C019DF80700059981F87A
:107730000D01BDF80600059981F80E019DF80500C0
:10774000059981F80F01BDF80400059981F8100131
:107750009DF80300059981F81101BDF80200059913
:1077600081F81201059901F5817001F5017101F0AF
:10777000A3FE059800F5017001F056FF40F2C41415
:10778000C2F20004206001F071FFE078059981F8F1
:1077900013016088059981F814012068000A059991
:1077A00081F815012068059981F816010598F021E6
:1077B00080F81711059800F5817008F0B9FC06B043
:1077C00010BD000081B08DF803009DF90300002872
:1077D0000FD4FFE79DF9030000F01F01012202FA18
:1077E00001F140094EF20012CEF2000242F82010E0
:1077F000FFE701B0704700004EF60C50CEF20000DB
:107800000068C0F3022070474EF60C50CEF2000024
:107810000068C0F30220704782B08DF80700009125
:107820009DF9070000280AD4FFE7009800019DF9A0
:1078300007104EF20042CEF2000288540BE000988E
:1078400000019DF8071001F00F014EF61452CEF220
:1078500000028854FFE702B07047000082B08DF844
:10786000070000919DF9070000280AD4FFE700985F
:1078700000019DF907104EF20042CEF2000288543A
:107880000BE0009800019DF8071001F00F014EF683
:107890001452CEF200028854FFE702B07047000095
:1078A00083B00290029800F0070000904EF60C5052
:1078B000CEF200000168019101994FF6FF021140DC
:1078C00001910199009A41EA02210022C0F2FA5284
:1078D000114301910199016003B07047BFF34F8FCD
:1078E0004EF60C50CEF20000016801F4E061042273
:1078F000C0F2FA5211430160BFF34F8FFFE700BFA0
:10790000FDE7000080B504F0BFFE80BD80B582B009
:107910000190009101980099FCF7D6FF18B9FFE794
:1079200000980190FFE70198009981F00041FCF771
:10793000E7FF28B9FFE7009880F000400190FFE7DB
:10794000019802B080BD000082B042F20041C4F252
:107950000101019100900098007801994A6800F0B7
:10796000010022F4807242EA0020486000984078CA
:1079700001998A6800F0010022F0020242EA400008
:1079800088600098807801998A6800F0010022F4EC
:10799000006242EAC02088600098C07801380199EE
:1079A000CA6A00F00F0022F4700242EA0050C86276
:1079B00002B0704781B000900098002101700098DB
:1079C00041700098817000980121C17001B070472A
:1079D00081B042F20040C4F201000090009881683A
:1079E00041F00801816001B07047000082B042F2AE
:1079F0000040C4F20100009000988068C008C007F1
:107A000020B1FFE701208DF8070003E000208DF88A
:107A10000700FFE79DF8070002B0704781B042F20F
:107A20000040C4F2010000900098816841F0040118
:107A3000816001B07047000082B042F20040C4F2A1
:107A400001000090009880688008C00720B1FFE71F
:107A500001208DF8070003E000208DF80700FFE704
:107A60009DF8070002B0704782B042F20040C4F2B5
:107A70000100019001208DF803009DF80300019999
:107A80008A6860F300028A6002B0704782B042F2F6
:107A90000040C4F20100019002208DF80300002094
:107AA0008DF80200019800689DF80310084204D187
:107AB000FFE700208DF8020003E001208DF80200AE
:107AC000FFE79DF8020002B07047000083B042F269
:107AD0000041C4F2010102918DF8070001208DF8E8
:107AE000060007208DF805009DF8070009281CDC1A
:107AF000FFE70298006900909DF8070000EB400046
:107B0000072101FA00F0009921EA000000909DF899
:107B100005009DF8071001EB4101884000990843DA
:107B200000900098029908611DE00298C0680090DA
:107B30009DF8070000EB40001E38072101FA00F015
:107B4000009921EA000000909DF805009DF80710BB
:107B500001EB41011E3988400099084300900098CC
:107B60000299C860FFE79DF806000D281EDBFFE7BD
:107B70000298C06A00909DF8060000EB8000413832
:107B80001F2101FA00F0009921EA000000909DF801
:107B900007009DF8061001EB8101413988400099EA
:107BA0000843009000980299C86241E09DF80600E1
:107BB00007281EDBFFE70298006B00909DF8060087
:107BC00000EB800023381F2101FA00F0009921EA20
:107BD000000000909DF807009DF8061001EB810160
:107BE000233988400099084300900098029908635F
:107BF0001DE00298406B00909DF8060000EB8000AD
:107C000005381F2101FA00F0009921EA00000090D8
:107C10009DF807009DF8061001EB810105398840A9
:107C2000009908430090009802994863FFE7FFE736
:107C300003B0704781B042F20040C4F201000090EE
:107C40000098C06C80B201B07047000082B042F270
:107C50000040C4F20100019007208DF803000120CC
:107C60008DF802009DF80300082811DBFFE701985A
:107C7000816841F0007181609DF8030000F0070009
:107C800001998A6822F4602242EA4040886010E04C
:107C90000198816821F0007181609DF8030000F077
:107CA000070001998A6822F4602242EA4040886015
:107CB000FFE79DF8020001998A6800F0010022F4B4
:107CC000801242EA0050886002B0704782B042F2EF
:107CD0000040C4F20100019000208DF803009DF8DF
:107CE000030001994A6800F0010022F4006242EAB0
:107CF000C020486002B0704782B042F20040C4F237
:107D00000100019001208DF803009DF80300019906
:107D10008A6800F0010022F4800242EA8050886004
:107D200002B0704781B001208DF803009DF8030078
:107D300042F20841C4F201010A6800F0010022F495
:107D4000000242EAC050086001B0704710B540F22E
:107D50009500C2F200000078DFE800F003773CB243
:107D6000EC0041F23020C2F20000FA21C0F8F41019
:107D7000002180F81711D0F8B8004FF07E51FCF7C1
:107D8000DBFC0021C4F2F021FCF79EFD68B9FFE79F
:107D900041F23020C2F200000021C4F2F021C0F80C
:107DA000B8100021C0F8BC100CE041F23024C2F23F
:107DB0000004D4F8B8004FF07E51FCF7BDFCC4F8C5
:107DC000B800FFE741F23020C2F20000002180F845
:107DD000E810B1E041F23020C2F20000FA21C0F810
:107DE000F410002180F81711D0F8B8000021C4F277
:107DF000A001FCF7A1FC0021C4F2F021FCF764FD16
:107E000068B9FFE741F23020C2F200000021C4F25D
:107E1000F021C0F8B8100021C0F8BC100DE041F20C
:107E20003024C2F20004D4F8B8000021C4F2A0014A
:107E3000FCF782FCC4F8B800FFE741F23020C2F240
:107E40000000002180F8E81076E041F23020C2F214
:107E50000000FA21C0F8F410002180F81711D0F8C2
:107E6000B8000021CBF68071FCF766FC0021C4F25B
:107E7000A001FCF745FD68B9FFE741F23020C2F2EE
:107E800000000021C4F2A001C0F8B8100021C0F821
:107E9000BC100DE041F23024C2F20004D4F8B80066
:107EA0000021CBF68071FCF747FCC4F8B800FFE76F
:107EB00041F23020C2F20000002180F8E8103BE0DF
:107EC00041F23020C2F20000FA21C0F8F410002183
:107ED00080F81711D0F8B8000024C4F2A00421469D
:107EE000FCF77CFC2146FCF70BFD68B9FFE741F28B
:107EF0003020C2F200000021C4F2A001C0F8B81086
:107F00000021C0F8BC100DE041F23024C2F20004A0
:107F1000D4F8B8000021CCF2A001FCF70DFCC4F8A5
:107F2000B800FFE741F23020C2F20000002180F8E3
:107F3000E81001E0FFE7FFE740F29500C2F2000021
:107F40000421017010BD000081B08DF803009DF880
:107F500003000138092868D8DFE800F0051C6566D1
:107F600061626463334A41F23020C2F2000090F84B
:107F70001901C00738B9FFE740F29500C2F20000CE
:107F800000210170FFE740F20C10C2F20000002156
:107F900041714BE041F23020C2F2000090F819012B
:107FA000C00738B9FFE740F29500C2F20000012196
:107FB0000170FFE740F20C10C2F200000021417195
:107FC00034E041F23020C2F2000090F81901C007FD
:107FD00038B9FFE740F29500C2F2000002210170BB
:107FE000FFE740F20C10C2F20000002141711DE0D9
:107FF00041F23020C2F2000090F81901C00738B9F0
:10800000FFE740F29500C2F2000003210170FFE794
:1080100040F20C10C2F200000021417106E005E0C0
:1080200004E003E002E001E000E0FFE701B0704798
:1080300010B582B041F23020C2F20000019040F24F
:108040000020C2F200000078012818D1FFE740F2BA
:10805000CC10C2F20000806844F20001C4F29C51CE
:10806000FCF75CFC50B9FFE740F2CC10C2F2000014
:1080700044F20001C4F29C518160FFE709E040F244
:10808000CC10C2F200004BF60001C4F2087181600E
:10809000FFE70198006A40F2FC11C2F2000108609B
:1080A00040F2F810C2F2000000680968FCF744FCD6
:1080B000F8B9FFE740F2CC14C2F20004E0694FF0D7
:1080C0007C51FCF791FBE06140F2FC14C2F2000429
:1080D0002068FCF75AFC04F085FCFCF73BFC019996
:1080E000C1F8D800206840F2F811C2F2000108601F
:1080F000FFE740F20820C2F2000004F05FFE8008B3
:10810000FCF731FC0199086001990868096CFCF7DB
:1081100065FB40F20421C2F200010860019890F86A
:10812000040138B1FFE7019890F81401012840F0EC
:108130001781FFE7019890F81E01C007002800F0A2
:108140000E81FFE740F20420C2F20000046840F212
:10815000FC10C2F2000000680021C4F2C821FCF744
:10816000EBFA01462046FCF7D9FB002840F0B1802D
:10817000FFE740F20420C2F20000046840F2FC1065
:10818000C2F2000000680021CCF2C821FCF7D4FA4A
:1081900001462046FCF7A6FB002840F09A80FFE746
:1081A00040F20420C2F20000046840F2FC10C2F267
:1081B000000000680021C4F2A001FCF7BDFA0146EE
:1081C0002046FCF7ABFB00285ED1FFE740F204201D
:1081D000C2F20000046840F2FC10C2F20000006825
:1081E0000021CCF2A001FCF7A7FA01462046FCF7DB
:1081F00079FB002848D1FFE741F23020C2F20000AD
:10820000022180F81F1140F20220C2F20000018812
:108210000131018000880F2835DBFFE740F2CC10E8
:10822000C2F20000806844F20004C4F29C5421466B
:10823000FCF7D4FA2146FCF771FB50B9FFE740F296
:10824000CC10C2F2000044F20001C4F29C518160E3
:108250000CE040F2CC14C2F20004A06844F2000129
:10826000CCF29C51FCF768FAA060FFE740F20220D4
:10827000C2F200000021018040F20020C2F20000A2
:1082800001210170FFE711E040F20020C2F200007E
:108290000021017040F20220C2F20000018041F290
:1082A0003020C2F2000080F81F11FFE740F2FC10FE
:1082B000C2F2000040F20421C2F200010A68016823
:1082C00040F2CC10C2F20000FEF786FE01998866EB
:1082D00044E040F20420C2F20000046840F2FC10C6
:1082E000C2F2000000680021C4F2C821FCF724FAA1
:1082F00001462046FCF7E8FA58B9FFE7019800214B
:10830000816641F23020C2F20000012180F81F1185
:1083100023E040F20420C2F20000046840F2FC10A6
:10832000C2F2000000680021CCF2C821FCF704FA78
:1083300001462046FCF7E4FA70B9FFE7019848F2DD
:108340000001C4F23B71816641F23020C2F20000AC
:10835000002180F81F11FFE7FFE7FFE7FFE71BE0C1
:10836000019890F80401012815D1FFE7019890F8D1
:10837000140180B9FFE740F20020C2F200000021A2
:10838000017040F20220C2F2000001800198816673
:10839000FEF7DEFDFFE7FFE70198806E0021FCF7A6
:1083A000BDFA20B9FFE7019800218166FFE7019837
:1083B00090F8080180B1FFE740F20020C2F200000F
:1083C0000021017040F20220C2F2000001800198F9
:1083D0008166FEF7BDFDFFE702B010BD70B540F24B
:1083E0008000C2F200000078DFE810F007003901D9
:1083F0009A00CE0174036802DA0240F20C10C2F255
:1084000000000021417141F23020C2F20000FA2246
:10841000C0F8EC2080F8161190F80E01B8BBFFE709
:1084200041F23020C2F20000006A0021C4F2FA31A9
:10843000FCF758FA58B9FFE741F23020C2F20000C9
:10844000002141620021C4F2FA3101620AE041F2E6
:108450003024C2F20004206A4FF07E51FCF76CF920
:108460002062FFE741F23024C2F20004206A0021BA
:10847000C4F21011FCF7B8F90021C4F2A001FCF716
:10848000E5F94FF08441FCF757F9A06240E041F272
:108490003020C2F2000090F80E01012837D1FFE72A
:1084A00041F23020C2F20000806A0021C4F269412A
:1084B000FCF718FA58B9FFE741F23020C2F2000089
:1084C0000021C1620021C4F2694181620AE041F2E7
:1084D0003024C2F20004A06A4FF07E51FCF72CF960
:1084E000A062FFE741F23024C2F20004A06A4FF01C
:1084F0004241FCF721F90021C4F2A001FCF774F914
:108500000021C4F21011FCF7A1F92062FFE7FFE798
:1085100041F23020C2F20000002180F8E810DBE2D6
:1085200040F20C10C2F200000021417141F23020F3
:10853000C2F20000FA22C0F8EC2080F8161190F880
:108540000E01E8BBFFE741F23020C2F20000006AF2
:108550000021C4F22011FCF7EFF80021C4F2FA3137
:10856000FCF7C0F958B9FFE741F23020C2F2000031
:10857000002141620021C4F2FA3101620BE041F2B4
:108580003024C2F20004206A0021C4F22011FCF75A
:10859000D3F82062FFE741F23024C2F20004206ADF
:1085A0000021C4F21011FCF71FF90021C4F2A00150
:1085B000FCF74CF94FF08441FCF7BEF8A06246E0AE
:1085C00041F23020C2F2000090F80E0101283DD1A6
:1085D000FFE741F23020C2F20000806A0021C4F2BD
:1085E0004821FCF7A9F80021C4F26941FCF77AF9A7
:1085F00058B9FFE741F23020C2F200000021C16209
:108600000021C4F2694181620BE041F23024C2F2E0
:108610000004A06A0021C4F24821FCF78DF8A06292
:10862000FFE741F23024C2F20004A06A4FF0424159
:10863000FCF782F80021C4F2A001FCF7D5F8002174
:10864000C4F21011FCF702F92062FFE7FFE741F2E4
:108650003020C2F20000002180F8E8103CE240F235
:108660000C10C2F200000021417141F23020C2F230
:108670000000FA22C0F8EC2080F8161190F80E01E4
:10868000C0BBFFE741F23020C2F20000006A0021C7
:10869000C4F2C821FCF742F958B9FFE741F2302093
:1086A000C2F20000002141620021C4F2C82101622F
:1086B0000BE041F23024C2F20004206A0021CBF624
:1086C0008071FCF739F82062FFE741F23024C2F2F2
:1086D0000004206A0021C4F21011FCF785F8002183
:1086E000C4F2A001FCF7B2F84FF08441FCF724F883
:1086F000A06241E041F23020C2F2000090F80E0189
:10870000012838D1FFE741F23020C2F20000806A30
:108710000021C4F25431FCF701F958B9FFE741F2E6
:108720003020C2F200000021C1620021C4F25431A5
:1087300081620BE041F23024C2F20004A06A002101
:10874000CBF68071FBF7F8FFA062FFE741F230241F
:10875000C2F20004A06A4FF04241FBF7EDFF002196
:10876000C4F2A001FCF740F80021C4F21011FCF79C
:108770006DF82062FFE7FFE741F23020C2F200000F
:10878000002180F8E810A7E140F20C10C2F20000CE
:108790000021417141F23020C2F20000FA22C0F8FB
:1087A000EC2080F8161190F80E01E8BBFFE741F2CB
:1087B0003020C2F20000006A0021CCF22011FBF749
:1087C000BBFF0021C4F2C821FCF7A8F858B9FFE7A5
:1087D00041F23020C2F20000002141620021C4F2C7
:1087E000C82101620BE041F23024C2F20004206A89
:1087F0000021CCF22011FBF79FFF2062FFE741F23E
:108800003024C2F20004206A0021C4F21011FBF7E8
:10881000EBFF0021C4F2A001FCF718F84FF08441EF
:10882000FBF78AFFA06241E041F23020C2F2000073
:1088300090F80E01012838D1FFE741F23020C2F252
:108840000000806A0021C4F27D31FCF767F858B956
:10885000FFE741F23020C2F200000021C162002196
:10886000C4F2543181620BE041F23024C2F20004C0
:10887000A06A0021CCF22421FBF75EFFA062FFE793
:1088800041F23024C2F20004A06A4FF04241FBF7EB
:1088900053FF0021C4F2A001FBF7A6FF0021C4F2A0
:1088A0001011FBF7D3FF2062FFE7FFE741F2302012
:1088B000C2F20000002180F8E8100DE141F23025FD
:1088C000C2F20005002085F81901286A2C6C696C39
:1088D000FBF784FF01462046FBF72EFF2864286C37
:1088E0000021C4F2C821FBF7FDFF48B9FFE741F2C0
:1088F0003020C2F200000021C4F2C8210164FFE769
:1089000041F23020C2F20000006C0021CCF2C821FC
:10891000FCF704F848B9FFE741F23020C2F200004A
:108920000021CCF2C8210164FFE741F23025C2F2F8
:108930000005286B6C6DA96DFBF750FF01462046C2
:10894000FBF7FAFE6865686D0021C4F2C821FBF7E9
:10895000C9FF48B9FFE741F23020C2F20000002110
:10896000C4F2C8214165FFE741F23020C2F20000A5
:10897000406D0021CCF2C821FBF7D0FF48B9FFE7DA
:1089800041F23020C2F200000021CCF2C821416542
:10899000FFE740F20C10C2F20000012141719BE0A0
:1089A00041F23020C2F20000012180F81B110022A8
:1089B000C4F2BE32026202630023C4F22023C0F874
:1089C000B830002606644665C0F894200025C4F23D
:1089D000C835C0F898500024C4F2D234C0F89C4086
:1089E000C0F8A020C0F8A450C0F8A840C0F8AC302F
:1089F0000022C4F24822C0F8B0200022C4F2702243
:108A0000C0F8B42080F8E86080F8E960C0F88060C1
:108A100080F80E6180F8101180F8121180F814614E
:108A2000FA21C0F8EC10C0F8F01090F80E0118BB55
:108A3000FFE741F23026C2F20006306B0024C4F298
:108A400010142146FBF7D0FE0025C4F2A0052946EC
:108A5000FBF7FCFE4FF08441FBF76EFEB063306A1B
:108A60002146FBF7C1FE2946FBF7F0FE4FF084419B
:108A7000FBF762FEB0622CE041F23020C2F200004F
:108A800090F80E01012823D1FFE741F23026C2F20F
:108A90000006B06B4FF08441FBF7A0FE0024C4F247
:108AA000A0042146FBF7A0FE0025C4F210152946BC
:108AB000FBF7CCFE3063B06A4FF08441FBF78EFECB
:108AC0002146FBF791FE2946FBF7C0FE3062FFE727
:108AD000FFE7FFE7FFE7FFE740F28000C2F2000098
:108AE0000421017070BD000081B08DF803009DF875
:108AF00003000138092800F2EC80DFE800F0053AB5
:108B0000E8E9A1A2E1A3738A41F23020C2F2000099
:108B100090F81901C007F0B1FFE741F23020C2F22E
:108B2000000090F81A11013180F81A1190F81A011A
:108B30000B2808DBFFE741F23020C2F200000021E1
:108B400080F81A11FFE740F28800C2F2000042F2FA
:108B50001071016006E040F28000C2F200000021C6
:108B60000170FFE740F20C10C2F2000000214171D9
:108B7000B0E041F23020C2F2000090F81901C007C5
:108B800010B3FFE741F23020C2F2000090F81A0162
:108B900040B9FFE741F23020C2F200000A2180F81C
:108BA0001A1109E041F23020C2F2000090F81A11C7
:108BB000013980F81A11FFE740F28800C2F2000084
:108BC00042F21071016006E040F28000C2F2000043
:108BD00001210170FFE740F20C10C2F200000021F9
:108BE000417177E041F23020C2F2000090F81901A3
:108BF000C00738B9FFE740F28000C2F2000002214E
:108C00000170FFE740F20C10C2F200000021417138
:108C100060E041F23020C2F2000090F81901C00774
:108C200038B9FFE740F28000C2F200000321017072
:108C3000FFE740F20C10C2F200000021417149E050
:108C400048E047E040F23920C2F20000007880BBE3
:108C5000FFE740F23920C2F200000121017041F229
:108C60003020C2F2000090F81901C00790B9FFE768
:108C700041F23020C2F20000012180F819110021D8
:108C800080F81A1140F28800C2F2000042F210711E
:108C900001600DE041F23020C2F20000002180F8B6
:108CA0001A1140F28000C2F2000005210170FFE7B6
:108CB000FFE740F20C10C2F200000121417109E00F
:108CC00040F23920C2F200000021017002E001E010
:108CD00000E0FFE741F23020C2F2000090F81901F5
:108CE000C00768B9FFE741F23020C2F20000016A14
:108CF0004164816AC164016B8165816B01664AE0F0
:108D00009DF80300D8B9FFE740F28800C2F20000E6
:108D10000168013901600068B0F1FF3F0EDCFFE738
:108D200040F28800C2F2000042F21071016040F28D
:108D30008000C2F2000005210170FFE7FFE741F269
:108D40003020C2F2000090F81B01C00710B3FFE70B
:108D500040F28400C2F2000001680139016000683D
:108D6000B0F1FF3F15DCFFE740F28400C2F20000E3
:108D70004FF49671016040F28000C2F200000521BC
:108D8000017041F23020C2F20000002180F81B1176
:108D9000FFE7FFE7FFE701B07047000085B040F64E
:108DA0000072C2F200021832049203900291049AF7
:108DB000DDF80CC002980190DCF80000019BFFE791
:108DC00052E8001F81420BD1FFE7BFF35F8FFFE73F
:108DD00042E8003000B106E0BFF35F8F012204E0FB
:108DE000BFF32F8FFFE70022FFE7D00718B9FFE797
:108DF000CCF80010FFE702F001008DF803009DF8A9
:108E0000030000F0010005B07047000083B002903D
:108E1000029801210191DDF804C0FFE750E8002F1E
:108E200002EB0C0340E800310029F7D1FFE7009284
:108E3000009803B07047000080B541F23020C2F2C4
:108E4000000090F81001012803D1FFE7FBF78EFE28
:108E50000FE041F23020C2F2000090F8100138B962
:108E6000FFE740F20C10C2F20000C0688047FFE745
:108E7000FFE780BD80B541F20000C4F20100082187
:108E800003F094FA80BD000080B541F20000C4F206
:108E90000100082103F094FA80BD000080B541F282
:108EA0003020C2F2000090F81001012803D1FFE742
:108EB000FFF7C2FF0FE041F23020C2F2000090F84D
:108EC000100138B9FFE740F20C10C2F20000C06890
:108ED0008047FFE7FFE741F23020C2F2000090F840
:108EE000080140B9FFE741F23020C2F2000090F8DB
:108EF0000A01C0B1FFE740F23A20C2F20000017857
:108F00004A1C027032290DD1FFE740F23A20C2F22A
:108F100000000021017040F20C10C2F2000001219B
:108F20004171FFE7FFE780BD10B540F60044C4F291
:108F3000010420464FF4036103F042FA20464FF447
:108F4000727103F033FA10BD80B541F23020C2F2E5
:108F50000000006A0021C4F2FA31FBF7DFFC60B9BF
:108F6000FFE741F23020C2F20000006A0021C4F2A3
:108F7000C821FBF7C5FC48B9FFE741F23020C2F237
:108F800000000021C4F2BE310162FFE741F230204F
:108F9000C2F20000006B0021C4F2E131FBF7BEFC1D
:108FA00060B9FFE741F23020C2F20000006B0021FF
:108FB000C4F24831FBF7A4FC48B9FFE741F2302086
:108FC000C2F200000021C4F2BE310163FFE741F2AA
:108FD0003020C2F20000D0F8B8000021C4F2F02125
:108FE000FBF79CFC68B9FFE741F23020C2F20000B9
:108FF000D0F8B8000021C4F2A001FBF781FC50B901
:10900000FFE741F23020C2F200000021C4F2A021AB
:10901000C0F8B810FFE741F23020C2F20000D0F8EB
:1090200094000021C4F2FA31FBF778FC68B9FFE73D
:1090300041F23020C2F20000D0F894000021C4F2C6
:10904000C821FBF75DFC50B9FFE741F23020C2F2C6
:1090500000000021C4F2A031C0F89410FFE741F2F3
:109060003020C2F20000D0F898000021C4F2FA319A
:10907000FBF754FC68B9FFE741F23020C2F2000070
:10908000D0F898000021C4F2C821FBF739FC50B990
:10909000FFE741F23020C2F200000021C4F2AF31FC
:1090A000C0F89810FFE741F23020C2F20000D0F87B
:1090B0009C000021C4F2FA31FBF730FC68B9FFE7ED
:1090C00041F23020C2F20000D0F89C000021C4F22E
:1090D000C821FBF715FC50B9FFE741F23020C2F27E
:1090E00000000021C4F2BE31C0F89C10FFE741F23D
:1090F0003020C2F20000D0F8A0000021C4F2E1311B
:10910000FBF70CFC68B9FFE741F23020C2F2000027
:10911000D0F8A0000021C4F24831FBF7F1FB50B9B0
:10912000FFE741F23020C2F200000021C4F2A0317A
:10913000C0F8A010FFE741F23020C2F20000D0F8E2
:10914000A4000021C4F2E131FBF7E8FB68B9FFE7B6
:1091500041F23020C2F20000D0F8A4000021C4F295
:109160004831FBF7CDFB50B9FFE741F23020C2F2A6
:1091700000000021C4F2AF31C0F8A410FFE741F2B3
:109180003020C2F20000D0F8A8000021C4F2E13182
:10919000FBF7C4FB68B9FFE741F23020C2F20000E0
:1091A000D0F8A8000021C4F24831FBF7A9FB50B960
:1091B000FFE741F23020C2F200000021C4F2BE31CC
:1091C000C0F8A810FFE741F23020C2F20000D0F84A
:1091D000AC000021C4F2F021FBF7A0FB68B9FFE767
:1091E00041F23020C2F20000D0F8AC000021C4F2FD
:1091F000A001FBF785FB50B9FFE741F23020C2F236
:1092000000000021C4F24821C0F8AC10FFE741F291
:109210003020C2F20000D0F8B0000021C4F2F021EA
:10922000FBF77CFB68B9FFE741F23020C2F2000097
:10923000D0F8B0000021C4F2A001FBF761FB50B9E7
:10924000FFE741F23020C2F200000021C4F2702199
:10925000C0F8B010FFE741F23020C2F20000D0F8B1
:10926000B4000021C4F2F021FBF758FB68B9FFE716
:1092700041F23020C2F20000D0F8B4000021C4F264
:10928000A001FBF73DFB50B9FFE741F23020C2F2ED
:1092900000000021C4F2A021C0F8B410FFE741F2A1
:1092A0003020C2F2000090F80E0188B1FFE741F2D1
:1092B0003020C2F2000090F80E01012808D0FFE72C
:1092C00041F23020C2F20000002180F80E11FFE7C9
:1092D00041F23020C2F2000090F8100188B1FFE79F
:1092E00041F23020C2F2000090F81001012808D0AD
:1092F000FFE741F23020C2F20000012180F8101196
:10930000FFE741F23020C2F20000006C0021C4F2FD
:10931000C821FBF703FB60B9FFE741F23020C2F23E
:109320000000006C0021CCF2C821FBF7E9FA38B943
:10933000FFE741F23020C2F2000000210164FFE7A4
:1093400041F23020C2F20000406D0021C4F2C82179
:10935000FBF7E4FA60B9FFE741F23020C2F2000007
:10936000406D0021CCF2C821FBF7CAFA38B9FFE7FB
:1093700041F23020C2F2000000214165FFE741F2D6
:109380003020C2F2000090F81201012810D0FFE74F
:1093900041F23020C2F2000090F8120140B1FFE724
:1093A00041F23020C2F20000002180F81211FFE7E4
:1093B00041F23020C2F2000090F81401012810D0D0
:1093C000FFE741F23020C2F2000090F8140140B1F2
:1093D000FFE741F23020C2F20000002180F81411B2
:1093E000FFE741F23020C2F20000D0F880004CF2DA
:1093F0000001C4F27941FBF791FA58B9FFE741F255
:109400003020C2F20000D0F880000021FBF778FA8B
:1094100040B9FFE741F23020C2F200000021C0F85D
:109420008010FFE780BD000080B5032001F00AFF37
:10943000FBF799FA41F23021C2F20001886791F8F6
:109440000C01C8B9FFE741F23020C2F20000806F82
:109450004CF20001C4F20F51FBF736FA58B9FFE79E
:1094600041F23020C2F20000042180F80A110221EA
:1094700080F81811FFE7FFE780BD000080B582B0DB
:1094800003F0DCFD0191009003F0B8FE80B1FFE72E
:1094900003F0D4FD0191009003F0E6FD009A019BDA
:1094A00080185941013041F1000100900191FFE71E
:1094B0000098019902B080BD8BB0099008910120FD
:1094C000079010200690099818B1FFE7089818B97E
:1094D000FFE700200A905EE007980699884203D9CA
:1094E000FFE700200A9056E006980799401A0130DD
:1094F0000590099807990844049000200290039071
:10950000FFE703980599B0EB910F11D2FFE704989C
:10951000006800BA0899029A531C029341F822008D
:10952000049804300490FFE7039801300390E8E7C3
:109530009DF81400800758B3FFE7002001900599BB
:1095400001F003018DF803108DF80200FFE79DF88C
:1095500002009DF80310884212DAFFE704989DF894
:109560000210405C1822A2EBC10188400199084317
:109570000190FFE79DF8020001308DF80200E6E758
:1095800001980899029A531C029341F82200FFE7C0
:1095900002980A90FFE70BB07047000084B040F6D5
:1095A0009430C0F601000390182002904FF6FF702F
:1095B000ADF80600FFE7029890B3FFE70398411C5F
:1095C00003910078BDF8061081EA0020ADF806008E
:1095D00008200090FFE70098F0B1FFE7BDF8060013
:1095E000000400280DD5FFE7BDF806004000ADF8E7
:1095F0000600BDF8060041F221014840ADF8060022
:1096000005E0BDF806004000ADF80600FFE7FFE703
:10961000009801380090DEE7029801380290CAE70E
:10962000BDF8060004B0704783B00290042001909A
:10963000002000900090FFE70098019988420ED228
:10964000FFE70298009950F8210043F20001C4F2AC
:1096500002010860FFE7009801300090ECE743F258
:109660000000C4F20200006803B0704743F2080033
:10967000C4F20200016841F001010160704700007E
:1096800081B04FF0FF300090009843F21001C4F217
:109690000201086001B0704781B000208DF803001E
:1096A0009DF8030043F20801C4F202010A6800F0C9
:1096B000030022F0180242EAC000086001B07047BF
:1096C00081B041F6B750C0F2C1400090009843F21B
:1096D0001401C4F20201086001B0704781B000209B
:1096E0008DF803009DF8030043F20801C4F2020163
:1096F0000A6800F0030022F0600242EA40100860AD
:1097000001B0704781B000208DF803009DF8030080
:1097100043F20801C4F202010A6800F0010022F0DD
:10972000800242EAC010086001B0704781B0012099
:109730008DF803009DF8030000F0030041F20401DE
:10974000C4F202010A6822F4404242EA8030086012
:109750009DF803000A68800860F31C720A6001B07B
:109760007047000081B000208DF803009DF80300D1
:1097700041F20401C4F202010A6800F00F0022F075
:10978000F00242EA0010086001B0704781B0042086
:109790008DF803009DF8030041F20401C4F20201B8
:1097A0000A6800F0070022F4E06242EA0020086044
:1097B00001B0704781B004208DF803009DF80300CC
:1097C00041F20401C4F202010A6800F0070022F429
:1097D000605242EAC020086001B0704781B08DF845
:1097E00003009DF80300012809D1FFE741F254006E
:1097F000C4F20200016841F03001016008E041F26A
:109800005400C4F20200016821F030010160FFE75A
:1098100001B0704781B08DF8030001208DF802007F
:109820009DF80300042843D8DFE800F0030E1D2C48
:1098300037009DF8020041F20001C4F202010A68FB
:1098400060F300020A6034E09DF8020041F200017A
:10985000C4F202010A6800F0010022F4803242EAF8
:109860000040086025E09DF8020041F20001C4F2CA
:1098700002010A6800F0010022F0807242EA0060F2
:10988000086016E09DF8020041F22001C4F20201D6
:109890000A6860F300020A600BE09DF8020041F2E2
:1098A0002401C4F202010A6860F300020A6000E0C9
:1098B000FFE701B07047000080B58CB00B9000202E
:1098C0000A900990089007900690059004900390E4
:1098D000029000F075FA8DF807009DF8070030B18E
:1098E000FFE7012824D0FFE7022828D0C1E041F299
:1098F0005400C4F202000068400AC00780B1FFE7CC
:1099000041F23000C4F202000068400EC00738B1D6
:10991000FFE70B9846F60041C0F2DC21016006E04B
:109920000B9841F20021C0F27A010160FFE7A7E045
:109930000B9841F20021C0F27A010160A0E041F2EF
:109940000400C4F202000068C0F30040089041F235
:109950002C00C4F2020000680021B1EBD07F47D197
:10996000FFE741F20400C4F202000168C1F3834141
:109970000A910068C0F341700990099820B9FFE787
:109980000A980F2807D1FFE709980A9901EB001000
:1099900001300A9003E00A9802300A90FFE7089825
:1099A00048B9FFE70A9840F60011C0F23D0148436C
:1099B0000B9908601BE041F20400C4F20200006849
:1099C000400CC00748B1FFE70A9840F60011C0F20A
:1099D0003D0148430B99086008E00A9841F20021D4
:1099E000C0F27A0148430B990860FFE7FFE73FE0C8
:1099F00041F22C00C4F202000168C1F3031104918A
:109A00000168C1F308210391006800F0070002908B
:109A1000089830B9FFE740F60010C0F23D0005900D
:109A200015E041F20400C4F202000068400CC007D7
:109A300030B1FFE740F60010C0F23D00059005E0B0
:109A400041F20020C0F27A000590FFE7FFE7059899
:109A50000399A0FB0101DDF810C0029B01229A408E
:109A60000CFB02F20023FAF7AFFB0B990860FFE74B
:109A700006E00B9841F20021C0F27A010160FFE795
:109A800041F20400C4F202000168C1F3031107911E
:109A9000079940F60042C0F60102515C06910B990D
:109AA0000A68069BDA404A600168C1F30221079107
:109AB000079940F6104CC0F6010C1CF801100691F5
:109AC0000B994B68069A23FA02F2CA600168C1F347
:109AD000C221079107991CF8011006910B994A6859
