:020000040800F2
:104000003019002089410008E16F0008D96F0008CD
:10401000DD6F0008114C00089574000800000000D6
:104020000000000000000000000000003D710008DA
:10403000394C00080000000039710008AD4100084B
:10404000A3410008A3410008A3410008A3410008C0
:10405000A3410008A3410008A3410008A3410008B0
:10406000A3410008A3410008A3410008A3410008A0
:10407000A3410008A3410008A3410008A341000890
:10408000A3410008A3410008A3410008A341000880
:10409000A3410008A3410008A3410008A341000870
:1040A000A3410008A3410008A3410008A341000860
:1040B0005173000889730008A3410008A341000858
:1040C000A3410008A3410008A3410008A341000840
:1040D000A3410008ED730008A3410008A3410008B4
:1040E000A3410008A3410008A3410008000000000C
:1040F00000000000000000000000000000000000C0
:1041000000000000A3410008A341000800000000D7
:10411000A3410008A34100080000000000000000C7
:10412000A3410008A3410008A3410008A3410008DF
:10413000000000000000000000000000000000007F
:10414000000000000000000000000000A341000883
:104150000000000000000000A3410008A341000887
:10416000000000000000000000000000A341000863
:10417000DFF810D000F09CFC00F06AF8004800471F
:1041800065A300083019002006488047064800470C
:10419000FEE7FEE7FEE7FEE7FEE7FEE7FEE7FEE7F7
:1041A000FEE7FEE7A97200087141000830B410B5BF
:1041B0000348804730BCAE4630BC024800477047D9
:1041C0001DAB0008417100082DE9F0410024061BD9
:1041D000254671F1000605DA01240027D0EB07001F
:1041E00067EB0101161E73F1000605DA0027D2EB1A
:1041F0000702012567EB030300F064FB86460E46C9
:1042000017469C46AC4204D00025D0EB050E65EB6A
:10421000010624B10020D2EB000760EB030C7046CE
:1042200031463A466346BDE8F081D2B201E000F87B
:10423000012B491EFBD270470022F6E710B513464A
:104240000A4604461946FFF7F0FF204610BD00005D
:104250007CB507480090074801900546009C04E0A3
:104260002046016808448047241DAC42F8D17CBD3B
:10427000B8CD0008BCCD0008F0B480EA0102D40F2C
:104280004200B2EB410F02D20246084611464A00F4
:1042900042D0C30DDDB2C1F3C752AD1A202D35DABD
:1042A000C1F3160141F4000204B15242C5F12006E7
:1042B00002FA06F12A411044B3EBD05F23D0C4B117
:1042C000012DA0EBC35009DCF0BC4FF0004202EA24
:1042D000C352DBB200F5000000F05FBB400000F10C
:1042E000807000EBC350A0F1807040EAD1704900AB
:1042F00009E0490841EAC071A0EBC35000F5000095
:10430000400800EBC350F0BC00F03EBB614201220C
:1043100002EB4101001BF6E7F0BC704781F0004161
:10432000AAE780F00040A7E780EA010210B502F09A
:104330000043400022D04A001FD0010E01EB126161
:10434000C0F35600C2F3560240F4000042F40002EB
:10435000A0FB022000047F39140400D0401C50EA66
:10436000124001D44000491EC2B20C0604EBD0102A
:10437000401C4008802A02D003E0002010BD20F03D
:104380000100002900DA0020184310BD30B480EA93
:10439000010202F0004530F0004221F0004013D04D
:1043A00090B1C30DD40DC2F31601C0F31600E41A88
:1043B00041F4000140F400027D34914201D3641CB9
:1043C00000E04900002C02DA30BC002070474FF4B6
:1043D00000000023914201D3891A034340084FEAA9
:1043E0004101F7D151B1914202D14FF0004105E0B6
:1043F00002D24FF0010101E06FF0010103EBC45064
:10440000284430BC00F0C0BA2DE9FE4F804681EA56
:104410000300C00F0C46009021F0004123F000453E
:10442000B8EB0200A94105D24046214690461C4601
:104430000B46024623F00040104347D0270DC7F338
:104440000A00C3F30A510290401A019040286BDA27
:10445000C3F3130040F4801B0098924620B1002360
:10446000D2EB030A63EB0B0B01985946C0F14002F3
:10447000504600F058FA06460D4650465946019AF5
:1044800000F070FA10EB08006141002487EA115235
:1044900084EAE7731A4340D0009A62B3019A012A72
:1044A0004FEA075215DC001B61EB02014FF000429E
:1044B00002EA0752CDE90042001C41F58011324664
:1044C0002B4600F0A7FA03B0BDE8F08F4046214626
:1044D000F9E7001B61EB0201001C41F58013001895
:1044E0005B412018A2F5001747EB030140EAD570A5
:1044F000B6196D4111E06D084FEA360645EAC07500
:104500004FEA0752001B61EB0201001C41F58011CC
:1045100049084FEA30000019514132462B4603B09A
:10452000BDE8F04F00F067BA009801224000002378
:10453000D0EB020263EBE073009821464FEAE0748F
:10454000B8EB000061EB0401E9E783F000435BE7AF
:1045500081F0004158E72DE9FE4F81EA030404F0A1
:10456000004421F0004100944FF0000B23F0004381
:1045700050EA01045ED052EA03045BD0C3F30A544C
:10458000C1F30A552C44A4F2F3340194A0FB025465
:10459000C1F3130141F48011C3F3130343F48013F7
:1045A00001FB024400FB034E840A970A44EA81544B
:1045B00047EA8357A4FB076802958D0A05FB078528
:1045C0004FEA932C04FB0C542705029D4FEA065832
:1045D00047EA1637B5EB08056EEB070C870E920E0F
:1045E00047EA811742EA8312A7FB0201B6EB0B01EF
:1045F00064EB00042B0D43EA0C335E1844EB1C50B3
:10460000DA465146E7FB0201C5F313044FEA0B33C8
:1046100043EA14534FEA0432019C43EA0603A4F12F
:104620000C040294009CCDE900B400F0F3F903B04F
:10463000BDE8F08F00200146F9E72DE9F04D81EA51
:10464000030404F0004B21F0004514464FF0000A2B
:1046500023F0004150EA050220D054EA01021DD0A7
:10466000C5F30A570246C5F31303C1F31300C1F3A0
:104670000A5640F4801543F48013A7EB0608101B7C
:10468000D64608F2FD3873EB050002D308F10108A5
:1046900001E092185B41B8F1000F03DA00200146F7
:1046A000BDE8F08D00204FF48011064684460EE0F0
:1046B000171B73EB050705D3121B63EB05030643BA
:1046C0004CEA010C49084FEA300092185B4150EA6D
:1046D0000107EDD152EA030012D082EA040083EA16
:1046E0000501084305D0101BAB4106D2012200236F
:1046F00006E000224FF0004302E06FF00102531089
:104700001AEB06004CEB085110EB0A0041EB0B01D1
:10471000BDE8F04D00F06FB9002801DBC0F10040AA
:10472000002901DBC1F10041814201D8012070471D
:1047300000207047002801DBC0F10040002901DBA8
:10474000C1F10041814201D2012070470020704731
:10475000002801DBC0F10040002901DBC1F100416C
:10476000814201D30120704700207047002801DBFF
:10477000C0F10040002901DBC1F10041814201D9B3
:104780000120704700207047002801DBC0F1004085
:10479000002901DBC1F10041814201D101207047B4
:1047A00000207047C10F80EAE0700844CA079623D2
:1047B000002100F0F2B896230022114600F0EDB877
:1047C0000EB540F2334102910021CDE900110A46B5
:1047D0000B4600F01FF903B000BD00F0004220F0CE
:1047E0000040C10DC0F3160040F400007F2901DA3B
:1047F00000207047962903DCC1F19601C84001E012
:1048000096398840002AF4D04042704720F000409A
:10481000C10DC0F3160040F400007F2901DA00202A
:104820007047962903DCC1F19601C840704796395C
:1048300088407047C1F30A5210B5C1F3130140F22A
:10484000FF3341F480119A4201DA002010BD40F29A
:1048500033439A42A2F2334203DC524200F072F830
:1048600010BD904010BD00F0004230F000400AD072
:10487000C10D01F56071C0F3160042EA0151C20892
:1048800040071143704700200146704701F0004384
:1048900030B421F0004150EA010206D00A0DA2F521
:1048A0006072C1F31301002A02DC30BC00207047A3
:1048B000440F44EAC104C100E01830BC00EBC25010
:1048C00000F062B82DE9F05F0546002092469B4655
:1048D00088460646814640241BE028464146474616
:1048E000224600F02FF853465A46C01A914110D381
:1048F00011461846224600F016F82D1A67EB0108FB
:104900004F4622460120002100F00DF817EB000968
:104910004E41201EA4F10104DFDC484631462A4600
:104920004346BDE8F09F202A04DB203A00FA02F15A
:10493000002070479140C2F1200320FA03F319438D
:1049400090407047202A04DB203A21FA02F000212F
:10495000704721FA02F3D040C2F12002914008438F
:1049600019467047202A06DBCB17203A41FA02F09D
:1049700043EAE07306E041FA02F3D040C2F12002BC
:1049800091400843194670470029A8BF7047401C52
:10499000490008BF20F00100704710B4B0FA80FC55
:1049A00000FA0CF050EA010404BF10BC704749B192
:1049B000CCF1200421FA04F411FA0CF118BF012102
:1049C00021430843A3EB0C01CB1D4FEA00614FEAE2
:1049D000102042BF002010BC704700EBC3501044B1
:1049E0000029A4BF10BC7047401C490008BF20F03C
:1049F000010010BC704710B5141E73F1000408DAF2
:104A0000401C41F1000192185B411A4301D120F092
:104A1000010010BD2DE9F04D92469B4611B1B1FA4F
:104A200081F202E0B0FA80F220329046FFF77BFF7D
:104A300004460F4640EA0A0041EA0B0153465A4633
:104A4000084313D0114653EA010019D0C8F14002BF
:104A50005046FFF777FF05460E46504659464246F8
:104A6000FFF761FF084305D0012004E020463946E6
:104A7000BDE8F08D0020054346EAE0762C4337433D
:104A80000A986305E40AA0EB08000022FD0A44EA44
:104A900047540A3002D500200146E9E70105101904
:104AA0006941DDE9084500196941BDE8F04DA2E71B
:104AB0001CB509480090094801900546009C06E095
:104AC000E06840F0010394E8070098471034AC42D6
:104AD000F6D3FFF751FB000098CD0008B8CD0008D1
:104AE00070B58C1810F8015B15F0070301D110F8B0
:104AF000013B2A1106D110F8012B03E010F8016BDD
:104B000001F8016B5B1EF9D12B0705D40023521E5F
:104B10000DD401F8013BFAE710F8013BCB1A921CC7
:104B200003E013F8015B01F8015B521EF9D5A142C5
:104B3000D8D3002070BD000010B541F2A444C2F2E9
:104B4000000440F2DA21C2F2000120464FF48062F4
:104B500006F03AF840F2DA6104F11000C2F2000106
:104B60004FF4806206F030F843F60000C4F2010012
:104B7000206210BD10B504460079022818D0012823
:104B80000AD0A0B9E06880476079012836D070B9B2
:104B9000012020712AE000BFA068804740F2742005
:104BA000C2F20000017801390A06017016D010BD6A
:104BB000E068804740F27420C2F2000001780139B9
:104BC0000A06017018BF10BD4FF40070A0800020CD
:104BD00040F27421C2F20001087010BD6079022118
:104BE000217118B101280BD0E1E700BF052040F288
:104BF0007421C2F20001087010BD00BF01202071B5
:104C0000642040F27421C2F20001087010BD00005F
:104C1000FEE7000010B540F60044C4F2010420464F
:104C20004FF4236104F044FF20464FF4E471BDE8E3
:104C3000104004F03BBF000070470000B0B541F2E7
:104C4000B0240928C2F2000452D840F2F415C2F28E
:104C50000005DFE800F0052F1921093747295F0D0E
:104C600040F60F7006E000BF94F80C0168BB45E009
:104C700041F20F40A5F80B000F20687394F816015D
:104C8000BDE8B04003F074BF94F80A0100284DD08D
:104C9000012849D1206E58E094F80A01002847D035
:104CA000012847D10C2044E0D4F88000FFF795FD9F
:104CB0004EE000BF94F80A01002845D0012833D106
:104CC000E06C42E094F80E01C0B1012810D113202D
:104CD000A5F80B000E20687394F81601BDE8B040EB
:104CE00003F046BF94F81001012807D00028EED049
:104CF00094F81601BDE8B04003F03ABF4FF44060AD
:104D0000A5F80B000C20687394F81601BDE8B040BC
:104D100003F02EBF0120A5F80B00687394F816016C
:104D2000BDE8B04003F024BF688A11E0A06D0CE03C
:104D30000A2028730F20E872687394F81601BDE802
:104D4000B04003F015BF00BF606CFFF746FD6882FE
:104D5000810841F27B425143490CE97281B24CF621
:104D6000CD425143C90C41F69A124A43120C02EB50
:104D70008202A1EB420201EB81012A73A0EB410008
:104D8000687394F81601BDE8B04003F0F1BE00006E
:104D90002DE9F04140F2F41741F2B02614460429FF
:104DA000C2F20007C2F2000600F28E80DFE801F0D6
:104DB000044C3E46380000BF8046D6E90C502946D8
:104DC000FFF7E2FC20B1D6E90E10FFF7DDFC60B979
:104DD00096F80A11284611B1012903D1B06BFFF7EB
:104DE000FCFC3882B06B7563F063388A41F27B4219
:104DF00081085143490C797081B24CF6CD42514340
:104E0000C90C41F69A124A43120C02EB8202A1EB42
:104E1000420201EB8101BA70A0EB4101404652E031
:104E200096F8E91040F60A5204E000BF96F8061121
:104E300041F20B42A7F8012045E000BF40F60F7198
:104E4000A7F801100F213EE040F27801C2F2000104
:104E50004A78013A13064A701CD196F80A110129C2
:104E600004D0B9B90546306910E000BF0546306985
:104E70000021C4F21011FFF757FA0021C4F2A0017B
:104E8000FFF784FA4FF08441FFF7F6F9FFF7A5FC2E
:104E900038822846398A41F27B438A085A43520CA9
:104EA0007A708AB24CF6CD435A43D20C41F69A132B
:104EB00053431B0C03EB8303A2EB430302EB82027D
:104EC000BB70A1EB4201F97004286FD8DFE800F055
:104ED0000432242C1E0000BFD6E908502946FFF7F3
:104EE00053FC28B1D6E90A10FFF74EFC002843D145
:104EF00096F80A11284611B1012903D1B06AFFF7CB
:104F00006CFCF881B06A7562F06235E096F8E800F2
:104F100040F60A5104E000BF96F8040141F20B414B
:104F2000A7F8071041E000BF40F60F70A7F8070090
:104F30000F203AE040F27800C2F200000178013917
:104F40000A06017018D196F80A01012802D098B912
:104F500030680EE030680021C4F21011FFF7E4F968
:104F60000021C4F2A001FFF711FA4FF08441FFF7CE
:104F700083F9FFF732FCF881F88941F27B4281081E
:104F80005143490CF97181B24CF6CD425143C90CE1
:104F900041F69A124A43120C02EB8202A1EB420242
:104FA00001EB81013A72A0EB41007872042C3FD8EA
:104FB000DFE804F004143E0E380000BFD6E92E40AE
:104FC0002146FFF7E1FB98BBC6F8BC400EE000BFEE
:104FD00040F60F70B8800F2029E000BFD6E93140BD
:104FE0002146FFF7D1FB18BBC6F8C8402046FFF7A3
:104FF000F4FB810841F27B425143490C397181B283
:105000004CF6CD425143C90C41F69A124A43120C58
:1050100002EB8202A1EB420201EB81017A71A0EB6B
:10502000410004E096F8E80040F60A51B980B871F2
:1050300003F0A6FCD6F8EC10A9B196F8F8004A1EC9
:105040000028C6F8EC2004BF002286F812210129AE
:1050500009DC00210122C6F8EC10002886F8122194
:1050600018BF86F8F810D6F8F010A9B196F8F90034
:105070004A1E0028C6F8F02004BF002286F814213A
:10508000012909DC00210122C6F8F010002886F869
:10509000142118BF86F8F910D6F8F400002808BFCC
:1050A000BDE8F0810138C6F8F4004FF0000086F842
:1050B0001301D8BFC6F8F400BDE8F08110B540F682
:1050C0000044C4F2010420464FF4036104F0F0FCF4
:1050D00020464FF47271BDE8104004F0E7BC0000B8
:1050E000438E4FF6FF72934201F103011CBF5A1C1D
:1050F000428606294FF0000C35D8DFE801F0053470
:105100001D340F342B0000BF00214FF0040CC1856B
:1051100080F83010816280F82C1024E0018C00238C
:105120004FF0010C8A42438638BF012380F83430A7
:1051300038BF4FF0090C16E0018C00234FF0020C31
:105140008A42438638BF012380F8343038BF4FF09D
:105150000A0C08E00021C18580F83010816280F8D7
:105160002C104FF0030C70B5024612F8303F12F8C5
:10517000094C12F8035CE6B286F001012943B1FA4A
:1051800081F14D0902F8034C53B1002D6CD0002180
:10519000C18580F83010816280F82C10604670BDA7
:1051A000438D23B3591E0B04418513D04FF0000EDD
:1051B0000EBB018D048B4B1C99B2A142038535D1E6
:1051C000BEF1000F2ED190F82C30012B2AD14FF0D8
:1051D000060C29E090F82C10012908D100214FF08D
:1051E000050CC18580F83010816280F82C104FF0DA
:1051F000010E002EDDD0BDB3014631F8282F31F865
:10520000103C9A422ED3438B9A4223D290F82C2002
:105210008EF00103013A18BF01221A4322D1828B7A
:1052200042851FE000F12C0201231370428B914252
:105230001AD3C18DC28B01318BB2B3FBF2F606FBE0
:105240001232002A0CBF4FF0080C0A46C285604695
:1052500070BD00BF00224FF0070CC28580F83020DF
:105260000A600A7100200880604670BDB0B504462F
:105270000068A18804F022FD0138B0FA80F04209EC
:1052800040F2EA15A068A189C2F200052A7004F074
:1052900015FD0138B0FA80F042092069A18A6A70D0
:1052A00004F00CFD411EA27DB1FA81F14B09297871
:1052B000002A94F8242084F8273084F8263025D05A
:1052C00091422FD094F825C06A788CF00105D3B2B2
:1052D00045EA0302B2FA82F201294FEA521225D1BD
:1052E000C2BBBCF1000F08BF012B49D09C454FF059
:1052F000000208BF002B2DD08CEA030C83F00105BF
:1053000055EA0C0508BF4FF0FF3227E0914209D063
:105310006A78012A84F8252018BF4FF0FF3284F8FC
:105320002410F9B10221002225E000BFA2B9BCF18E
:10533000000F08BF012B27D09C4508BF002B0BD0C6
:105340008CEA030283F001052A43B2FA82F2520981
:1053500004E000BF012200E0FF22002384F82410B3
:1053600084F82530D3B26FF00201012B08BF03216E
:10537000002B08BF0221012818BF0A4650B2B0BD59
:10538000FF220123EAE700BF01230122E6E7000034
:105390002DE9F0434FF0805707EAD1074FF0005650
:1053A00006EA92064FF08045384305EA530530433C
:1053B00040F6807E40EA0509C2F2000E5EE8014F29
:1053C000601C4EE80107002FF8D140F6003804F0C9
:1053D0003F00C2F2000808EB001C60464FF4700664
:1053E00050F80C5F06EA84376C0171D405F0004474
:1053F0003E1950E8004F46EA0906AC4246F04066C6
:1054000008D140E800653DB9BFF35F8F01253DB18C
:1054100050E300BFBFF32F8F0025002D40F04A83DB
:10542000650155D404F000457E1950E8005F46EA56
:105430000906A54246F0406608D140E800643CB940
:10544000BFF35F8F01243CB134E300BFBFF32F8F64
:105450000024002C40F02E836C0139D405F0004468
:105460003E1950E8004F46EA0906AC4246F0406655
:1054700008D140E800653DB9BFF35F8F01253DB11C
:1054800018E300BFBFF32F8F0025002D40F01283DB
:1054900065011DD404F000457E1950E8005F46EA1E
:1054A0000906A54246F040660AD140E800644CB9BE
:1054B000BFF35F8F0124002C3FF496AFFAE200BFE8
:1054C000BFF32F8F0024002C3FF48EAFF2E200BF19
:1054D0005EE8014F601C4EE80107002FF8D104F090
:1054E0003F0008EB001C60464FF4700650F80C5F5C
:1054F00006EA84376C0169D405F000443E1950E88F
:10550000004F46EA0906AC4246F0406606D140E844
:1055100000652DB9BFF35F8F012502E0BFF32F8F28
:105520000025002D40F0C68265014FD404F00045EF
:105530007E1950E8005F46EA0906A54246F040663B
:1055400006D140E800642CB9BFF35F8F012402E06C
:10555000BFF32F8F0024002C40F0AC826C0135D4B7
:1055600005F000443E1950E8004F46EA0906AC42F7
:1055700046F0406606D140E800652DB9BFF35F8F65
:10558000012502E0BFF32F8F0025002D40F092820D
:1055900065011BD404F000457E1950E8005F46EA1F
:1055A0000906A54246F0406608D140E800643CB9CF
:1055B000BFF35F8F0124002C9CD07BE2BFF32F8FC1
:1055C0000024002C3FF496AF74E200BF5EE8014F68
:1055D000601C4EE80107002FF8D104F03F0008EBF3
:1055E000001C60464FF4700650F80C5F06EA8437E2
:1055F0006C0169D405F000443E1950E8004F46EABA
:105600000906AC4246F0406606D140E800652DB977
:10561000BFF35F8F012502E0BFF32F8F0025002D20
:1056200040F0488265014FD404F000457E1950E8EF
:10563000005F46EA0906A54246F0406606D140E80A
:1056400000642CB9BFF35F8F012402E0BFF32F8FFA
:105650000024002C40F02E826C0135D405F000446B
:105660003E1950E8004F46EA0906AC4246F0406653
:1056700006D140E800652DB9BFF35F8F012502E038
:10568000BFF32F8F0025002D40F0148265011BD43D
:1056900004F000457E1950E8005F46EA0906A5427D
:1056A00046F0406608D140E800643CB9BFF35F8F24
:1056B0000124002C9CD0FDE1BFF32F8F0024002C8F
:1056C0003FF496AFF6E100BF5EE8014F601C4EE884
:1056D0000107002FF8D104F03F0008EB001C6046E2
:1056E0004FF4700650F80C5F06EA84376C0169D4F9
:1056F00005F000443E1950E8004F46EA0906AC4266
:1057000046F0406606D140E800652DB9BFF35F8FD3
:10571000012502E0BFF32F8F0025002D40F0CA8144
:1057200065014FD404F000457E1950E8005F46EA59
:105730000906A54246F0406606D140E800642CB94F
:10574000BFF35F8F012402E0BFF32F8F0024002CF2
:1057500040F0B0816C0135D405F000443E1950E8AA
:10576000004F46EA0906AC4246F0406606D140E8E2
:1057700000652DB9BFF35F8F012502E0BFF32F8FC6
:105780000025002D40F0968165011BD404F00045F2
:105790007E1950E8005F46EA0906A54246F04066D9
:1057A00008D140E800643CB9BFF35F8F0124002CAE
:1057B0009CD07FE1BFF32F8F0024002C3FF496AFE5
:1057C00078E100BF5EE8014F601C4EE80107002F42
:1057D000F8D104F03F0008EB001C60464FF470065F
:1057E00050F80C5F06EA84376C0169D405F0004478
:1057F0003E1950E8004F46EA0906AC4246F04066C2
:1058000006D140E800652DB9BFF35F8F012502E0A6
:10581000BFF32F8F0025002D40F04C8165014FD440
:1058200004F000457E1950E8005F46EA0906A542EB
:1058300046F0406606D140E800642CB9BFF35F8FA4
:10584000012402E0BFF32F8F0024002C40F03281AE
:105850006C0135D405F000443E1950E8004F46EA8B
:105860000906AC4246F0406606D140E800652DB915
:10587000BFF35F8F012502E0BFF32F8F0025002DBE
:1058800040F0188165011BD404F000457E1950E8F2
:10589000005F46EA0906A54246F0406608D140E8A6
:1058A00000643CB9BFF35F8F0124002C9CD001E160
:1058B000BFF32F8F0024002C3FF496AFFAE000BF17
:1058C0005EE8014F601C4EE80107002FF8D104F09C
:1058D0003F0008EB001C60464FF4700650F80C5F68
:1058E00006EA84376C0169D405F000443E1950E89B
:1058F000004F46EA0906AC4246F0406606D140E851
:1059000000652DB9BFF35F8F012502E0BFF32F8F34
:105910000025002D40F0CE8065014FD404F00045F5
:105920007E1950E8005F46EA0906A54246F0406647
:1059300006D140E800642CB9BFF35F8F012402E078
:10594000BFF32F8F0024002C40F0B4806C0135D4BD
:1059500005F000443E1950E8004F46EA0906AC4203
:1059600046F0406606D140E800652DB9BFF35F8F71
:10597000012502E0BFF32F8F0025002D40F09A8013
:1059800065011BD404F000457E1950E8005F46EA2B
:105990000906A54246F0406608D140E800643CB9DB
:1059A000BFF35F8F0124002C9CD083E0BFF32F8FC7
:1059B0000024002C3FF496AF7CE000BF5EE8010FAE
:1059C000471C4EE80176002EF8D100F03F0708EBA7
:1059D000071C4FF4700404EA8038604650F80C7FCE
:1059E0000EF10C057C0100F18D8007F0004408EBFE
:1059F000040650E8004F46EA0906BC4246F04066FD
:105A000006D140E800672FB9BFF35F8F012702E09E
:105A1000BFF32F8F0027002F4CD1660172D404F002
:105A20000046464450E8007F46EA0906A74246F091
:105A3000406607D140E8006434B9BFF35F8F0124AA
:105A400003E000BFBFF32F8F00249CBB7C0159D41F
:105A500007F0004408EB040650E8004F46EA090648
:105A6000BC4246F0406607D140E8006737B9BFF353
:105A70005F8F012703E000BFBFF32F8F0027CFB94F
:105A800066013FD404F00046464450E8007F46EAF1
:105A90000906A74246F0406606D140E800642CB9EA
:105AA000BFF35F8F012402E0BFF32F8F0024002C8F
:105AB0003FF498AF86F0004404F0004521F0004127
:105AC000294422F0004223F000432A442B448CE86E
:105AD0000E0024F080610EF10805BFF35F8F00BF58
:105AE00050E8002F40E80012002AF9D1012000BF41
:105AF00055E8001F013145E80012002AF8D1BDE841
:105B0000F08300BF0020F3E72DE9F04740F6807AEC
:105B100040F600758146C2F2000A0020C2F200057C
:105B200088468AF8000028468021FEF785FB4CF65F
:105B30001C50C0F60000033818214FF6FF7341F2E5
:105B4000210200BF10F8037F83EA07231FB25E0023
:105B5000002F48BF82EA430633B27700002B48BFCC
:105B600082EA46073BB27E00002B48BF82EA470626
:105B700033B27700002B48BF82EA46073BB27E0073
:105B8000002B48BF82EA470633B27700002B48BF9C
:105B900082EA46073BB27E00002B48BF82EA4706F6
:105BA00033B27700002B48BF82EA460746788378F5
:105BB00087EA06273EB27C00002E48BF82EA4704EF
:105BC00027B26600002F48BF82EA440637B274004D
:105BD000002F48BF82EA460427B26600002F48BF64
:105BE00082EA440637B27400002F48BF82EA4604B6
:105BF00027B26600002F48BF82EA440637B274001D
:105C0000002F48BF82EA460427B26600002F48BF33
:105C100082EA440686EA03231FB25E00002F48BFD3
:105C200082EA430633B27700002B48BF82EA460778
:105C30003BB27E00002B48BF82EA470633B27700B2
:105C4000002B48BF82EA46073BB27E00002B48BFCC
:105C500082EA470633B27700002B48BF82EA460744
:105C60003BB27E00002B48BF82EA470637B2730082
:105C7000002F48BF82EA460303397FF463AFDAF8A6
:105C8000201042F26B70CEF2A510814240F0768473
:105C9000BAF8020099B2884240F07284DAF81C0027
:105CA000411C0028CAF81C1000F06F8440F6003038
:105CB0004FF60041C2F20000CFF6FF714218D2F851
:105CC0000C345F0144BF23F04063C2F80C34D2F8B7
:105CD0001C345F0144BF23F04063C2F81C34D2F887
:105CE0002C345F0144BF23F04063C2F82C34D2F857
:105CF0003C345F0144BF23F04063C2F83C34D2F827
:105D00004C345F0144BF23F04063C2F84C34D2F8F6
:105D10005C345F0144BF23F04063C2F85C34D2F8C6
:105D20006C345F0144BF23F04063C2F86C34D2F896
:105D30007C345F0144BF23F04063C2F87C34D2F866
:105D40008C345F0144BF23F04063C2F88C34D2F836
:105D50009C345F0144BF23F04063C2F89C34D2F806
:105D6000AC345F0144BF23F04063C2F8AC34D2F8D6
:105D7000BC345F0144BF23F04063C2F8BC34D2F8A6
:105D8000CC345F0144BF23F04063C2F8CC34D2F876
:105D9000DC345F0144BF23F04063C2F8DC34D2F846
:105DA000EC345F0144BF23F04063C2F8EC34D2F816
:105DB000FC345F0144BF23F04063C2F8FC3411F5AA
:105DC00080717FF47BAF00F003FC002800F0F183CA
:105DD000074600F0FBFB0021CAE904105FEAC97026
:105DE000CAF8181000F09F8000200121C30800F0BD
:105DF0000702EE5C01FA02F21643EE54431C03F074
:105E00000706DB08EC5C01FA06F62643EE54831C19
:105E100003F00706DB08EC5C01FA06F62643EE54B5
:105E2000C31C03F00706DB08EC5C01FA06F6264308
:105E3000EE54031D03F00706DB08EC5C01FA06F6DE
:105E40002643EE54431D03F00706DB08EC5C01FA21
:105E500006F62643EE54831D03F00706DB08EC5CD0
:105E600001FA06F62643EE54C31D03F00706DB08CD
:105E7000EC5C01FA06F62643EE5400F10803DB0859
:105E8000EE5C1643EE5400F1090303F00706DB084D
:105E9000EC5C01FA06F62643EE5400F10A0303F027
:105EA0000706DB08EC5C01FA06F62643EE5400F127
:105EB0000B0303F00706DB08EC5C01FA06F6264349
:105EC000EE5400F10C0303F00706DB08EC5C01FA6A
:105ED00006F62643EE5400F10D0303F00706DB0837
:105EE000EC5C01FA06F62643EE5400F10E0303F0D3
:105EF0000706DB08EC5C01FA06F62643EE5400F1D7
:105F00000F0303F00706DB08EC5C01FA06F62643F4
:105F1000EE5400F11003DB08EE5C11303243FF2831
:105F2000EA547FF463AF5FEA897040F1D3800020C8
:105F3000012100BF05EBD00300F0070293F82060B9
:105F400001FA02F2164383F82060431C03F00706AF
:105F500005EBD30393F8204001FA06F6264383F8B5
:105F60002060831C03F0070605EBD30393F8204061
:105F700001FA06F6264383F82060C31C03F00706E7
:105F800005EBD30393F8204001FA06F6264383F885
:105F90002060031D03F0070605EBD30393F82040B0
:105FA00001FA06F6264383F82060431D03F0070636
:105FB00005EBD30393F8204001FA06F6264383F855
:105FC0002060831D03F0070605EBD30393F8204000
:105FD00001FA06F6264383F82060C31D03F0070686
:105FE00005EBD30393F8204001FA06F6264383F825
:105FF000206000F1080305EBD30393F820601643FB
:1060000083F8206000F1090303F0070605EBD303D2
:1060100093F8204001FA06F6264383F8206000F149
:106020000A0303F0070605EBD30393F8204001FAB7
:1060300006F6264383F8206000F10B0303F0070601
:1060400005EBD30393F8204001FA06F6264383F8C4
:10605000206000F10C0303F0070605EBD30393F86F
:10606000204001FA06F6264383F8206000F10D0374
:1060700003F0070605EBD30393F8204001FA06F678
:10608000264383F8206000F10E0303F0070605EBBA
:10609000D30393F8204001FA06F6264383F82060E4
:1060A00000F10F0303F0070605EBD30393F820403C
:1060B00001FA06F6264383F8206000F1100305EB91
:1060C000D30393F8206011303243FF2883F8202057
:1060D0007FF430AF5FEA497040F1D28000200121A7
:1060E00005EBD00300F0070293F8406001FA02F2DA
:1060F000164383F84060431C03F0070605EBD30307
:1061000093F8404001FA06F6264383F84060831C6A
:1061100003F0070605EBD30393F8404001FA06F6B7
:10612000264383F84060C31C03F0070605EBD30346
:1061300093F8404001FA06F6264383F84060031DB9
:1061400003F0070605EBD30393F8404001FA06F687
:10615000264383F84060431D03F0070605EBD30395
:1061600093F8404001FA06F6264383F84060831D09
:1061700003F0070605EBD30393F8404001FA06F657
:10618000264383F84060C31D03F0070605EBD303E5
:1061900093F8404001FA06F6264383F8406000F188
:1061A000080305EBD30393F84060164383F840607F
:1061B00000F1090303F0070605EBD30393F8404011
:1061C00001FA06F6264383F8406000F10A0303F063
:1061D000070605EBD30393F8404001FA06F6264381
:1061E00083F8406000F10B0303F0070605EBD303CF
:1061F00093F8404001FA06F6264383F8406000F128
:106200000C0303F0070605EBD30393F8404001FAB3
:1062100006F6264383F8406000F10D0303F00706FD
:1062200005EBD30393F8404001FA06F6264383F8C2
:10623000406000F10E0303F0070605EBD30393F86B
:10624000404001FA06F6264383F8406000F10F0350
:1062500003F0070605EBD30393F8404001FA06F676
:10626000264383F8406000F1100305EBD30393F855
:10627000406011303243FF2883F840207FF430AF74
:106280005FEA097040F1D2800020012105EBD003C4
:1062900000F0070293F8606001FA02F2164383F8F7
:1062A0006060431C03F0070605EBD30393F86040DE
:1062B00001FA06F6264383F86060831C03F00706A4
:1062C00005EBD30393F8604001FA06F6264383F802
:1062D0006060C31C03F0070605EBD30393F860402E
:1062E00001FA06F6264383F86060031D03F00706F3
:1062F00005EBD30393F8604001FA06F6264383F8D2
:106300006060431D03F0070605EBD30393F860407C
:1063100001FA06F6264383F86060831D03F0070642
:1063200005EBD30393F8604001FA06F6264383F8A1
:106330006060C31D03F0070605EBD30393F86040CC
:1063400001FA06F6264383F8606000F1080305EBC6
:10635000D30393F86060164383F8606000F109038B
:1063600003F0070605EBD30393F8604001FA06F645
:10637000264383F8606000F10A0303F0070605EB8B
:10638000D30393F8604001FA06F6264383F8606071
:1063900000F10B0303F0070605EBD30393F860400D
:1063A00001FA06F6264383F8606000F10C0303F05F
:1063B000070605EBD30393F8604001FA06F626437F
:1063C00083F8606000F10D0303F0070605EBD303CB
:1063D00093F8604001FA06F6264383F8606000F106
:1063E0000E0303F0070605EBD30393F8604001FAB0
:1063F00006F6264383F8606000F10F0303F00706FA
:1064000005EBD30393F8604001FA06F6264383F8C0
:10641000606000F1100305EBD30393F86060113066
:106420003243FF2883F860207FF430AF687F95F80F
:106430003D1095F85D2040F08000687741F08000C5
:1064400095F87D1095F85F3085F83D0042F08000AA
:1064500085F85D0041F0800085F87D0043F0400044
:1064600085F85F00DAF8185005E000BFBFF32F8F02
:106470000022054672BB00F0A5F80146A84219D2D9
:10648000EFF3108272B6DAF81800A84204D072B1A5
:10649000A8420FD11EE000BFDAF81030CAF8181079
:1064A0000133CAF81030BFF35F8F002AF0D162B613
:1064B000A8420FD05AE8060FA842D7D1BFF35F8F8A
:1064C0004AE80612002AD3D1BFF35F8F0122002AC7
:1064D0000546D0D04FF60075DAF81430DAF81C20F3
:1064E000C0F200352846FEF753FFB8F1000F42D046
:1064F0009AF8000000283ED101208AF80000DAF85E
:10650000186004E0BFF32F8F0022064672BB00F034
:1065100059F80146B04219D2EFF3108272B6DAF898
:106520001800B04204D072B1B0420FD11EE000BFDB
:10653000DAF81030CAF818100133CAF81030BFF377
:106540005F8F002AF0D162B6B0420FD05AE8060F32
:10655000B042D7D1BFF35F8F4AE80612002AD3D1E9
:10656000BFF35F8F0122002A0646D0D0681C0022AC
:106570000023FEF70DFF3846BDE8F087CAF820007B
:106580000120AAF80230CAF81C0000208AF8010095
:10659000CAE90100CAF80C0040F60030C2F200005F
:1065A0004FF48061FDF748FE00F012F800287FF4F8
:1065B0000FAC00273846CAE90477CAF81870BDE85E
:1065C000F087000080B503F041FA80BD04F084BA82
:1065D0000120704710B540F60044C4F20104204683
:1065E0004FF4076103F064FA20464FF46271BDE88E
:1065F000104003F05BBA000070B50022C4F23342D1
:1066000082628263002240F2000EC4F2A0320023B4
:106610000024002500260021C4F2BE3E4FF0010CEC
:10662000C4F2AF33C4F22024C4F24825C4F2702669
:10663000C0F89420C0F8A0204FF47A720160C0F82E
:1066400020E00161C0F830E0A0F89010C0E910111E
:10665000C16480F8001180F8041180F8FCC0C0F813
:10666000801080F80A1180F80CC180F80E1180F8B3
:10667000101180F8121180F8141180F81311A0F88D
:10668000E810C1664167C0F89830C0F89CE0C0F8D7
:10669000A430C0F8A8E0C0E92B4580F81711816646
:1066A000C167C0E92D65C0E92F11C0E93111C0F8FB
:1066B000EC10C0F8F020A0F81511C0F8F710C0F8E1
:1066C000F410A0F819C180F81B1180F8181170BDE2
:1066D0002DE9F04F8FB040F2C017C2F20007787872
:1066E000032800F2BD81DFE810F00500BF011300B0
:1066F0009F0100BF41F2B028C2F2000898F81801CB
:10670000002800F09982012078700FB0BDE8F08F6A
:1067100041F2B02AC2F2000AF979DAF8200001F059
:10672000010BFEF75AF84FF20042C0F60102931C2B
:1067300091460490BBF1000F02BF09F500694FF6C6
:106740000243C0F6010302F1040802F1060C0093B3
:106750004FF60243BBF1000F02F1080002F10A0EEE
:10676000C0F6010308BF03F10208CDF8048008BF9A
:1067700003F1040CBBF1000F02F10C0702F10E064D
:10678000CDF808C008BF981D039008BF03F1080E9C
:10679000BBF1000F02F1100502F1120402F1140125
:1067A00008BF03F10A07059708BF03F10C06BBF108
:1067B000000F069608BF03F10E0508BF03F1100491
:1067C000BBF1000F08BF03F112012F460D4602F185
:1067D000160108BF03F114012646079102F11804BF
:1067E00002F11A01BBF1000F08BF03F1160408BF44
:1067F00003F11801089102F11C01BBF1000F08BF61
:1068000003F11A01099102F11E0108BF03F11C01F5
:106810000A9102F12001BBF1000F08BF03F11E0134
:106820000B9102F1220108BF03F12001BBF1000F1F
:1068300002F1240B0C9108BF03F1220B0499484686
:10684000F04602F0B3FCDAF8B800FDF7C6FF0146E7
:10685000009802F0ABFCDAF89400FDF7BEFF0146A9
:10686000019802F0A3FCDAF8AC00FDF7B6FF014690
:10687000029802F09BFCDAF89800FDF7AEFF0146A3
:10688000039802F093FCDAF8B000FDF7A6FF01468A
:10689000404602F08BFCDAF89C00FDF79EFF0146B3
:1068A000059802F083FCDAF8B400FDF796FF014684
:1068B000069802F07BFCDAF83000FDF78EFF014607
:1068C000384602F073FCDAF8A000FDF786FF0146B7
:1068D000304602F06BFCDAF8A400FDF77EFF0146BB
:1068E000284602F063FCDAF8A800FDF776FF0146BF
:1068F000079802F05BFC9AF80A11204602F056FC59
:106900009AF80C11089802F051FCDAF84000FDF7F3
:1069100064FF0146099802F049FCDAF85400FDF7DB
:106920005CFF01460A9802F041FC9AF80E110B98A0
:1069300002F03CFC9AF810110C9802F037FCDAF8DF
:106940008000FDF74AFF0146584602F02FFCDAF8B6
:106950002000DAF83050DAE92564FDF73EFF40F216
:10696000C017C2F2000738812846FDF736FFDAF873
:10697000B81038830846FDF730FF78813046FDF7C0
:106980002CFFDAF8A010B8810846FDF726FFDAF8E8
:10699000AC1078830846FDF720FFF8812046FDF70C
:1069A0001CFFDAF8A41038820846FDF716FFDAF863
:1069B000B010B8830846FDF710FFDAF89C10DAF83B
:1069C0004060DAF85450DAF8804078820846FDF7E3
:1069D00004FFDAF8A810B8820846FDF7FEFEDAF8E0
:1069E000B410F8830846FDF7F8FEF8829AF80A0119
:1069F0009AF80C11B8703046F970FDF7EEFE388445
:106A00002846FDF7EAFE78849AF80E019AF81011EC
:106A1000387120467971FDF7E0FEB8710320787077
:106A20000FB0BDE8F08F00BF4FF20040FA79B98C8B
:106A3000C0F6010026304FF60243C0F60103D2072C
:106A400008BF03F1240002F0B1FB02F073FCB88C24
:106A5000F9790130B884481CF8714FF4807038809F
:106A60000FB0BDE8F08F00BF3889FDF7A4FE41F2FA
:106A7000B024C2F20004216A024608461146FDF71E
:106A800083FE002800F0BB80388BFDF794FE216B5D
:106A9000024608461146FDF777FE002800F0AF8059
:106AA0007889FDF788FED4F8B810024608461146EA
:106AB000FDF76AFE002800F0A280B889FDF77BFE92
:106AC000D4F89410024608461146FDF75DFE0028F2
:106AD00000F09580788BFDF76EFED4F8A01002468A
:106AE00008461146FDF750FE002800F08880F8891E
:106AF000FDF761FED4F8AC10024608461146FDF7DA
:106B000043FE00287BD0388AFDF755FED4F8981054
:106B1000024608461146FDF737FE00286FD0B88BB5
:106B2000FDF749FED4F8A410024608461146FDF7C9
:106B30002BFE002863D0788AFDF73DFED4F8B01014
:106B4000024608461146FDF71FFE002857D0B88AB6
:106B5000FDF731FED4F89C10024608461146FDF7B9
:106B600013FE00284BD0F88BFDF725FED4F8A810B3
:106B7000024608461146FDF707FE00283FD0F88A76
:106B8000FDF719FED4F8B410024608461146FDF789
:106B9000FBFDA0B3B87894F80A1188422FD1F87899
:106BA00094F80C1188422AD1388CFDF704FE216C30
:106BB000024608461146FDF7E7FD00B3788CFDF765
:106BC000FAFD616D024608461146FDF7DDFDB0B1E4
:106BD000387994F80E11884211D1787994F810110F
:106BE00088420CD1B879FDF7E6FDD4F88010024652
:106BF00008461146FDF7C8FD002840F0D581388DC4
:106C0000013081B214293885FFF42AAF002038857D
:106C10000120387002F062FCF9794FF20040C0F6B2
:106C20000100C90708BF00F5006002F08DFB0220DB
:106C300078700FB0BDE8F08F4FF20044C0F6010449
:106C400020464FF6FF7602F01DFDADF83600BDF888
:106C50003600B04254D0A01C02F014FDADF836004E
:106C6000BDF83600B0424BD0201D02F00BFDADF850
:106C70003600BDF83600B04242D0A01D02F002FD41
:106C8000ADF83600BDF83600B04239D004F1080046
:106C900002F0F8FCADF83600BDF83600B0422FD057
:106CA00004F10A0002F0EEFCADF83600BDF8360043
:106CB000B04225D004F10C0002F0E4FCADF836003F
:106CC000BDF83600B0421BD004F10E0002F0DAFC31
:106CD000ADF83600BDF83600B04211D004F1100016
:106CE00002F0D0FCADF83600BDF83600B04207D057
:106CF00004F1120002F0C6FCADF83600BDF8360013
:106D0000BDF83600B04265D04FF6024504F500608C
:106D1000C0F6010502F0B6FCADF83800BDF8380049
:106D2000B04253D0284602F0ADFCADF83800BDF8B3
:106D30003800B0424AD0A81C02F0A4FCADF83800DC
:106D4000BDF83800B04241D0281D02F09BFCADF8E0
:106D50003800BDF83800B04238D0A81D02F092FCCF
:106D6000ADF83800BDF83800B0422FD005F108006A
:106D700002F088FCADF83800BDF83800B04225D0EC
:106D800005F10A0002F07EFCADF83800BDF83800CD
:106D9000B0421BD005F10C0002F074FCADF83800D5
:106DA000BDF83800B04211D005F10E0002F06AFCC7
:106DB000ADF83800BDF83800B04207D005F110003A
:106DC00002F060FCADF83800BDF83800BDF83800BE
:106DD000B0426BD1204602F055FCADF83A00BDF848
:106DE0003A00B04254D0A01C02F04CFCADF83A007E
:106DF000BDF83A00B0424BD0201D02F043FCADF884
:106E00003A00BDF83A00B04242D0A01D02F03AFC70
:106E1000ADF83A00BDF83A00B04239D004F10800AC
:106E200002F030FCADF83A00BDF83A00B0422FD085
:106E300004F10A0002F026FCADF83A00BDF83A0071
:106E4000B04225D004F10C0002F01CFCADF83A0071
:106E5000BDF83A00B0421BD004F10E0002F012FC63
:106E6000ADF83A00BDF83A00B04211D004F110007C
:106E700002F008FCADF83A00BDF83A00B04207D085
:106E800004F1120002F0FEFBADF83A00BDF83A0042
:106E9000BDF83A00B04215D104F50060142101F0AC
:106EA0002FFDB04212D102F077FD11E004F126006F
:106EB00002F0E8FBF88405F1240002F0E3FBF98C12
:106EC000814203D902F044FC02E000BF02F0D2FC90
:106ED00001F0AAF8012088F81801D8F82000D8F8A5
:106EE0003050D8E92564FDF778FC38812846FDF755
:106EF00074FCD8F8B81038830846FDF76EFC78812A
:106F00003046FDF76AFCD8F8A010B8810846FDF7B6
:106F100064FCD8F8AC1078830846FDF75EFCF88175
:106F20002046FDF75AFCD8F8A41038820846FDF731
:106F300054FCD8F8B010B8830846FDF74EFCD8F8DA
:106F40009C10D8F84060D8F85450D8F88040788227
:106F50000846FDF742FCD8F8A810B8820846FDF7AD
:106F60003CFCD8F8B410F8830846FDF736FCF882EC
:106F700098F80A0198F80C11B8703046F970FDF7CE
:106F80002CFC38842846FDF728FC788498F80E01FC
:106F900098F81011387120467971FDF71EFCB87110
:106FA0000FB0BDE8F08F00BF002038850FB0BDE8FE
:106FB000F08F000010B540F60044C4F201042046F2
:106FC00040F6480102F074FD20464FF46C71BDE8B4
:106FD000104002F06BBD0000FEE70000FEE700007D
:106FE0007047000010B540F60044C4F2010420468A
:106FF0004FF4066102F05CFD20464FF46671BDE877
:10700000104002F053BD000000210162C1614161E6
:107010000161C160704700000021C161704700003C
:10702000DDF800C080E80E0000210162C16141610D
:107030000161C160C0F824C0C0F828C070470000DA
:10704000F0B583B0044608461146FDF767F9606164
:1070500060690021C4F2C821FDF788FB30B960697E
:107060000021CCF2C821FDF765FB08B1002003E048
:107070006069E169FDF700F9E0614CF60005E0693F
:10708000C4F22F752946FDF755FB002808BFE561BE
:10709000E06900210025FDF769FB002808BFE561D4
:1070A000D4E9005760692169FDF738F9A061666984
:1070B000E1693846FDF738F9616A0290019102985A
:1070C0000199FDF729FB002804BF0198029002985E
:1070D000019981F00041FDF73BFB18B9019880F060
:1070E00000400290029F28463146FDF71DF93946BF
:1070F000FDF7C2F8A268A16905461046FDF714F92C
:107100002946FDF7B9F8206260692061206AA16A0A
:10711000FDF702FB002804BFA06A2062206AA16A72
:1071200081F00041FDF714FB002804BF002020621D
:10713000206A03B0F0BD00007047000070470000F7
:10714000F0B581B041F21450C2F2000000688047EF
:1071500000F08CF905F00EFC41F2B024C2F20004FC
:1071600094F8FC0040F20007C2F2000770B1787892
:107170000138010678700FD10520787041F2B020F7
:10718000C2F2000001F0F0FE06E000BF204601F070
:10719000EBFE012084F8190102F0D8FF03F062FE33
:1071A00003F09CFE38780138010638701DD140F696
:1071B0000045C4F2000528460021002204F082FDAB
:1071C000642001F0B7FB01F097F803F09FFD206FFA
:1071D000FDF71CFB02462846002104F073FD2846FB
:1071E000012104F095FD0A203870788840F2EC16F1
:1071F000013878800004C2F2000603D0307860B114
:1072000001B0F0BD7068C4F8C000002070604FF499
:107210007A70788030780028F2D1102002F058FA85
:1072200070807088FDF7CCFA4BF6520245F2EB13F2
:10723000C8F21E52C4F20A03FDF78DF90023C3F60B
:1072400030730022FDF787F945F6294242F6F5032F
:10725000CCF28F22CBF6F473FDF7D6F84EF2331250
:1072600045F27933CFF69722C3F67173FDF7E5F94E
:107270000023C4F239030022FDF7C6F8FDF706FB30
:107280000021C4F248210546E067FDF76FFA0028A7
:10729000B6D128460021FDF73FFA002802BF25603D
:1072A0000120307001B0F0BD41F20000C4F20200D4
:1072B000C16941F08051C16147F25001C4F200013F
:1072C0000A7842F004020A70C16921F08051C1615C
:1072D000016841F0010101600168890709D4016872
:1072E00089075CBF01685FEA817102D40168890780
:1072F000F2D5416821F00301416000BF416811F0FF
:107300000C0F0BD0416811F00C0F07D0416811F041
:107310000C0F03D0416811F00C0FEFD101684FF64C
:10732000FF72CFF6F262114001600021416041F628
:107330001071C1624FF4801101634FF41F0181602D
:107340004EF60850CEF200004FF000610160704729
:1073500010B54FF08040022104F0F8FC002808BF6F
:1073600010BD40F2EC14C2F2000460684FF07E5190
:10737000FCF782FF02464FF0804002216260BDE8C8
:10738000104004F0CBBC000070B540F20044C4F2E1
:1073900000042046012104F0C5FC002808BF70BD90
:1073A00041F2B025C2F2000595F81801012808D174
:1073B000284600F001FAAE6E00213046FDF7D6F9FE
:1073C00008B90026AE663046FDF720FA0246204690
:1073D000002104F077FC2046012104F099FC2046AE
:1073E0000121BDE8704004F099BC0000B0B582B046
:1073F00043F60004C4F20104E068800612D520467A
:10740000202104F06DFF68B1204604F04DFF41F2E9
:10741000A445C2F20005C1B2284603F013FC4FF4A4
:107420008270A881E068400615D52046402104F00E
:1074300057FF80B12046402104F048FF41F2A445A7
:10744000C2F2000505F110000DF1070103F0E6FBA3
:1074500020B10020687702B0B0BD00BF9DF80710D2
:10746000204604F025FF02B0B0BD000041F2A44068
:10747000C2F20000417B012906D1017B002907BF30
:107480000221417301390173017F00291CBF0139B9
:1074900001777047FEE700004EF60C50BFF34F8FA8
:1074A000CEF200000168042201F4E061C0F2FA5259
:1074B00011430160BFF34F8F00BF00BF00BF00BF8B
:1074C000FAE70000B0B5EFF3108472B6012003F0C4
:1074D00011FB03F0EDFA84F3108803F0FDFA4DF68A
:1074E0008361C4F21B31A0FB011244F6D351C1F2F7
:1074F0006201A0FB0101900C40F2CC02C2F200023A
:10750000506088091060EFF3108472B602F09EFAA2
:1075100040F20825C2F20005C5E90401BFF34F8F10
:10752000BFF36F8F02F092FAD5E90412401A294690
:1075300041F8180B84F310880020C1E90000C5E968
:107540000800C5E90A00C5E90C00C5E90E00C5E957
:107550001000BDE8B04000F001B800007047000026
:107560000A78436802F0010223F4807343EA02229E
:1075700042604A78836862F3410383608A78836853
:1075800002F0010223F4006343EAC2228260C97858
:10759000C26A013901F00F0122F4700242EA01517E
:1075A000C16270474FF0807101607047816841F09F
:1075B00008018160704700008068C0F3C000704718
:1075C000816841F004018160704700008068C0F369
:1075D00080007047826861F300028260704700009B
:1075E0000068084018BF012070470000B0B501EBEB
:1075F000410C4FF00C0E0A2928BFACF11E0C38BF0D
:107600004FF0100E50F80E40072505FA0CF5AC436C
:1076100003FA0CF3234334256FF0040440F80E30D2
:10762000062A88BF302588BF6FF0220402EB820350
:107630000C2A84BF2C256FF040041A1943591F24CB
:107640009440A343914019434151B0BDC06C80B2F6
:1076500070470000836808294FEA414106D343F090
:107660000073836001F4602103E000BF23F0007326
:107670008360836802F0010223F460231943816070
:10768000816821F4801141EA025181607047000055
:10769000426801F0010122F4006242EAC121416026
:1076A00070470000826801F0010122F4800242EA82
:1076B000815181607047000042F20841C4F201012B
:1076C0000A6800F0010022F4000242EAC05008609B
:1076D00070470000F0B581B040F24816C2F20006D3
:1076E000307803284BD841F2B027C2F20007DFE818
:1076F00000F0034B0F2900BF4FF47A70C7F8F40075
:107700000021D7F8B80087F813114FF07E510BE035
:107710004FF47A700021C7F8F400D7F8B80087F862
:1077200013110021C4F2A001FCF7A6FD0024C4F24D
:10773000C82421460546FDF719F8D0B10020C7F846
:10774000BC0017E04FF47A700021C7F8F400D7F8B6
:10775000B80087F813110021CCF2A001FCF78CFDD2
:107760000024C4F2A00421460546FCF7F1FF0028DE
:10777000E4D02C460020C7F8B84087F8E800042081
:10778000307001B0F0BD00BF4FF47A700021C7F82F
:10779000F400D7F8B80087F813110021CBF68071F8
:1077A000FCF76AFD0024C4F2A00421460546FCF75C
:1077B000C1FF0028DDD0C1E72DE9F04F81B040F2D4
:1077C0005429C2F20009044699F802004BF6000B56
:1077D000C4F2087B40F27C2A0128C2F2000A5D460E
:1077E0000ED144F20005DAF80800C4F29C5529468F
:1077F000FCF7BCFF002808BFCAF8085002E000BF31
:10780000CAF80850256AD9F814002946C9F810505A
:10781000FCF7BAFF90B9DAF81C004FF07C51FCF786
:1078200083FDCAF81C002846FCF7D7FF02F0C2FC13
:10783000FCF7B8FFC4F8D800C9F8145040F2A820EB
:10784000C2F2000002F068FE8008FCF7B4FF216C71
:107850002060FCF763FD94F80011054619B194F817
:107860001001012868D194F81A01012840F0AA807B
:10787000D9F810800021C4F2C8214046FCF7FCFC76
:10788000074628463946FCF771FF00210646CCF230
:10789000C8214046FCF7F0FC002E06465ED1284683
:1078A0003146FCF747FF002858D10021C4F2A0015F
:1078B0004046FCF7E1FC01462846FCF757FF002153
:1078C0000646CCF2A0014046FCF7D6FC002E65D15E
:1078D00001462846FCF72EFF00285FD141F2B02078
:1078E000B9F80C20C2F20000022180F81B11501CD4
:1078F00081B20F29A9F80C005BD3DAF8080044F232
:107900000001CCF29C51FCF7B7FC44F20001C4F238
:107910009C510646FCF700FF00284FF000001CBFFA
:1079200044F20006C4F29C56A9F80C000120CAF8E3
:10793000086089F802003CE0012908BF002841D115
:10794000002089F80200A9F80C00A06640F27C2013
:10795000C2F20000FFF758FB34E000BF284639466A
:10796000FCF7DAFE50B90020A06641F2B020C2F266
:107970000000012180F81B1124E000BF2846314699
:10798000FCF7E6FEF0B941F2B020C2F2000000219F
:10799000C4F868B080F81B1114E000BF41F2B021B8
:1079A0000020C2F2000189F80200A9F80C0081F859
:1079B0001B0140F27C20C2F2000041462A46FFF73C
:1079C0003FFBA066A06E00210025FCF7CFFE00283B
:1079D00008BFA56694F8040170B1002140F27C2034
:1079E00089F80210A9F80C10C2F20000A16601B0DB
:1079F000BDE8F04FFFF708BB01B0BDE8F08F000015
:107A00002DE9F04381B040F20408C2F2000898F872
:107A10000000062800F29D80DFE810F00800A200B8
:107A20002E00CC009B00FC005C0000BF40F2501018
:107A300041F2B025C2F200000021C2F200054171FE
:107A400095F80A014FF47A720128C5F8EC2085F800
:107A5000121100F04B81002840F0A9812C6A00210E
:107A6000C4F2FA312046FCF765FE002800F06E8172
:107A700020464FF07E5199E040F2501041F2B0257F
:107A8000C2F200000021C2F20005417195F80A011E
:107A90004FF47A720128C5F8EC2085F8121100F035
:107AA0000F81002840F08381286A0021C4F2201150
:107AB000FCF7E2FB0021C4F2FA310446FCF73AFE7F
:107AC000002840F0A18000240020C4F2FA3468624B
:107AD0009AE000BF41F2B020002200260025C2F249
:107AE0000000C4F2BE32C4F2C836C4F2D23501215D
:107AF00002620263C0E92526C0E92752002280F80D
:107B0000171100230024C4F2702280F80C1180F8B1
:107B10000E1180F80A110021C4F220230027C4F2BC
:107B20004824C0F8B4204FF47A72C4F23341C0F84C
:107B3000B83007644765C0E92965C0E92B34A0F86F
:107B4000E870C0F8807080F81071C0E93B22816352
:107B50008162042088F8000001B0BDE8F08300BF16
:107B600040F2501041F2B025C2F200000021C2F2F2
:107B70000005417195F80A014FF47A720128C5F8A1
:107B8000EC2085F8121100F0BF80002840F00F8132
:107B90002C6A0021C4F2C8212046FCF7E7FD00282A
:107BA00000F0DA800021CBF680712046FCF764FB00
:107BB000D7E000BF40F2501041F2B025C2F2000001
:107BC0000021C2F20005417195F80A014FF47A7262
:107BD0000128C5F8EC2085F8121100F0A1800028DA
:107BE00040F0E580286A0021CCF22011FCF744FB2C
:107BF0000021C4F2C8210446FCF7B8FD20B90020DA
:107C000000246862C4F2C82400212C62C4F210115E
:107C10002046AAE041F2B026C2F20006306AD6E958
:107C200010510022346B86F81521FCF777FB0146D2
:107C30002846FCF721FB40F20009C4F2C829494656
:107C40000746FCF785FD0025CCF2C82500281CBF9F
:107C50000027C4F2C82738462946FCF75DFD0028F6
:107C60001CBF0027CCF2C827B16D20463764FCF753
:107C700055FB716D024608461146FCF7FDFA494670
:107C80000446FCF765FD00281CBF0024C4F2C8248C
:107C900020462946FCF740FD002840F25010C2F271
:107CA00000004FF001011CBF0024CCF2C824746511
:107CB0004171042088F8000001B0BDE8F08300BFE6
:107CC000A86A0021C4F24821FCF7D6FA0021C4F2C8
:107CD00069410446FCF72EFD20B900240020C4F2BF
:107CE0006944E862AC62204652E000BFAC6A002101
:107CF000C4F269412046FCF71DFD002842D0204611
:107D00004FF07E5118E000BFAC6A0021C4F254313C
:107D10002046FCF72BFD98B10021CBF680710AE0DC
:107D2000AC6A0021C4F27D312046FCF71FFD38B15A
:107D30000021CCF224212046FCF79EFA27E000BF68
:107D40000020E8620020C4F2543020E00020686285
:107D50000020C4F2FA3004E0002068620020C4F27F
:107D6000C8200021C4F210112862FCF7DDFA0021BE
:107D7000C4F2A001FCF70AFB4FF08441FCF77CFA47
:107D8000A86214E00020E8620020C4F26940A86202
:107D90004FF04241FCF770FA0021C4F2A001FCF759
:107DA000C3FA0021C4F21011FCF7F0FA2862002097
:107DB00085F8E800042088F8000001B0BDE8F083F1
:107DC00080B5421E41F2B02E092AC2F2000E00F226
:107DD0007D80DFE802F0051D7B7B357B3D47132B63
:107DE0009EF81521012A5DD19EF816210132D3B2E9
:107DF000092B88BF00228EF8162161E09EF815211C
:107E0000002A5DD140F20402C2F2000202234EE0D9
:107E10009EF81521012A3FD19EF81621002A14BF91
:107E2000013A09228EF816214AE000BF9EF815217A
:107E3000002A45D140F20402C2F20002032336E0D8
:107E40009EF81621B2B3092A3AD1062233E000BFC8
:107E500040F2D822C2F20002002313709EF81521CE
:107E6000BABB69E040F2D822C2F200021378002BBC
:107E700058D19EF815314FF0010C002B82F800C04C
:107E80004ED000228EF8162140F20402C2F2000207
:107E90000523137046E000BF40F20402C2F2000264
:107EA000012304E040F20402C2F200020023137036
:107EB00006E000BF052240F20403C2F200031A707C
:107EC00040F25012C2F20002002353719EF81521B5
:107ED00092B368B940F20400C2F2000041684A1E41
:107EE0000029426004DC41F270714160052101709B
:107EF0009EF81701012811D140F20400C2F20000DF
:107F000081684A1E00298260C8BF80BD4FF4967107
:107F100081600521017000208EF8170180BD00BF2F
:107F2000AEF815C140F25012C2F2000201235371A3
:107F30009EF81521002ACCD1DEF82000DEF828209A
:107F4000DEF83030DEF83810CEF84400CEF84C20A1
:107F5000CEF85830CEF8601080BD000041F2B0205D
:107F6000C2F2000090F80C0140B1012818BF704720
:107F700040F25010C2F20000FCF7FCBD40F250107D
:107F8000C2F20000C068004741F20000C4F20100E4
:107F9000082101F08BBD000041F20000C4F2010095
:107FA000082101F085BD000010B541F2B024C2F2F5
:107FB000000494F80C0128B1012809D1FFF7CEFF85
:107FC00006E000BF40F25010C2F20000C0688047D7
:107FD00094F8060194F80411C0B2084311D040F29D
:107FE000D920C2F2000001784A1C3229027018BF61
:107FF00010BD0021017040F25010C2F200000121BA
:10800000417110BD10B540F60044C4F20104204691
:108010004FF4036101F04CFD20464FF47271BDE84E
:10802000104001F043BD00002DE9F04381B041F262
:10803000B025C2F200052C6A0021C4F2FA312046B4
:10804000FCF794FB40F20009C4F2BE3950B900219C
:10805000C4F2C8212046FCF77BFB002808BFC5F806
:10806000209001E0C5F820902C6B0021C4F2E13192
:108070002046FCF77BFB58B90021C4F2483120466A
:10808000FCF766FB002808BFC5F8309002E000BF8F
:10809000C5F83090D5F8B8400021C4F2C821204678
:1080A000FCF764FB40F20008C4F2A02850B900219C
:1080B000C4F2A0012046FCF74BFB002808BFC5F81E
:1080C000B88001E0C5F8B880D5F894400021C4F22A
:1080D000FA312046FCF74AFB0026C4F2A03658B914
:1080E0000021C4F2C8212046FCF732FB002808BF5B
:1080F000C5F8946002E000BFC5F89460D5F89840D8
:108100000021C4F2FA312046FCF730FB0027C4F20C
:10811000AF3758B90021C4F2C8212046FCF718FB3C
:10812000002808BFC5F8987002E000BFC5F8987035
:10813000D5F89C400021C4F2FA312046FCF716FB2A
:1081400050B90021C4F2C8212046FCF701FB0028E9
:1081500008BFC5F89C9001E0C5F89C90D5F8A040F8
:108160000021C4F2E1312046FCF700FB50B90021A8
:10817000C4F248312046FCF7EBFA002808BFC5F8E6
:10818000A06001E0C5F8A060D5F8A4400021C4F2C9
:10819000E1312046FCF7EAFA50B90021C4F2483137
:1081A0002046FCF7D5FA002808BFC5F8A47001E006
:1081B000C5F8A470D5F8A8400021C4F2E1312046EA
:1081C000FCF7D4FA50B90021C4F248312046FCF73C
:1081D000BFFA002808BFC5F8A89001E0C5F8A8902C
:1081E000D5F8AC400021C4F2C8212046FCF7BEFA05
:1081F00030B90021C4F2A0012046FCF7A9FA20B949
:108200000020C4F24820C5F8AC00D5F8B0400021E9
:10821000C4F2C8212046FCF7A9FA30B90021C4F203
:10822000A0012046FCF794FA20B90020C4F2702087
:10823000C5F8B000D5F8B4400021C4F2C8212046EA
:10824000FCF794FA50B90021C4F2A0012046FCF7D3
:108250007FFA002808BFC5F8B48001E0C5F8B480F3
:1082600095F80A010021022824BF002085F80A01A0
:1082700095F80C01C4F2C821022824BF012085F81A
:108280000C01286C20F00040FCF746FA002804BFDF
:1082900000202864686D002120F00040C4F2C8214D
:1082A000FCF73AFA002804BF0020686595F80E0133
:1082B0004CF20001022824BF002085F80E0195F839
:1082C0001001C4F27941022824BF002085F8100172
:1082D000D5F880402046FCF749FA38B920460021FD
:1082E000FCF736FA10B101B0BDE8F0830020C5F804
:1082F000800001B0BDE8F08310B5032001F0E8F97B
:108300000446FCF758FA41F2B021C2F2000191F89C
:108310000821886752B940F6FD00844238BF10BD7D
:10832000042081F80601022081F8140110BD00002C
:10833000844600284FF0000018BF002900D1704784
:10834000934238BF70472DE9F041981A00F1010EB1
:108350005FEA9E000CEB02080AD0431E032B00F0DC
:10836000030C07D20023BCF1000F25D142E000BF6F
:1083700000203FE06FF0030303EA9E035C4200230A
:10838000002500BF58F8056008EB050736BA4E51C6
:108390007E684A1936BA5660BE68043B36BA9660A3
:1083A000FE689C4236BA05F11005D660EAD15B4200
:1083B000A844BCF1000F1DD0444654F8042BBCF176
:1083C000010F12BA41F8232002D1A04612E000BFEB
:1083D000D8F8042001EB830312BABCF1020F5A60F3
:1083E00002D108F1080805E0D8F8082008F10C08C7
:1083F00012BA9A601EF0030512D098F80020012DE1
:108400004FEA026309D098F80120022D43EA0243A3
:108410001CBF98F8022043EA022341F820300130C3
:10842000BDE8F0417047000010B543F20002C4F20D
:10843000020251B301F0030C5FEA910E4FF000010C
:1084400011D0A0F11003A1EB8E0E00BF53F8104F16
:10845000043914605C688E4514609C681460DC68A4
:108460001460F3D14942BCF1000F0ED050F8213016
:10847000BCF1010F136008D000EB81004168BCF132
:10848000020F11601CBF80681060106810BD0000F2
:1084900043F20800C4F20200016841F001010160EA
:1084A0007047000043F21001C4F2020108607047F7
:1084B00043F20801C4F202010A6800F0030022F04E
:1084C000180242EAC00008607047000043F214013D
:1084D000C4F202010860704743F20801C4F20201CD
:1084E0000A6800F0030022F0600242EA40100860CF
:1084F0007047000043F20801C4F202010A6800F06C
:10850000010022F0800242EAC010086070470000BB
:1085100041F20401C4F202010A6860F38F320A607A
:108520000A68800860F31C720A60704741F2040117
:10853000C4F202010A6800F00F0022F0F00242EAE1
:10854000001008607047000041F20401C4F202010B
:108550000A6800F0070022F4E06242EA00200860A6
:108560007047000041F20401C4F202010A6800F001
:10857000070022F4605242EAC02008607047000001
:1085800041F25401C4F202010A68012822F03002CB
:1085900008BF30320A607047042888BF7047DFE8A0
:1085A00000F0032F17250D0041F20000C4F2020075
:1085B000026861F300020260704700BF41F20000F0
:1085C000C4F20200426A61F300024262704700BFD7
:1085D00041F20000C4F20200026801F0010122F041
:1085E000807242EA01610160704700BF41F2000001
:1085F000C4F20200026A61F300020262704700BF27
:1086000041F20000C4F20200026801F0010122F40C
:10861000803242EA014101607047000041F20401EA
:10862000C4F202010B6841F20022C0F27A02C3F3E5
:108630008103F0B5DFE803F02A02360202600B681E
:1086400037A7C3F30313FB5C4CF68857DA4042604C
:108650000B68C0F60007C3F30223FB5C22FA03F3A6
:10866000C3600B68C3F3C223FB5C0427DA4082605B
:108670000B68096807EA9363C1F3813119442CA39D
:10868000595CB2FBF1F10161F0BD00BF0B6D9B05C0
:10869000D4D5CB6A9B0144BF46F60042C0F2DC222F
:1086A000CCE700BF0B688C6A1F0C002C1ED40C6832
:1086B0000B68A40CC3F341731D0104F00F046E1C7E
:1086C0000F2C354618BF0225002B18BF3546FB0777
:1086D00005EB040304D00F68BF0301D45A43ADE790
:1086E00040F60012C0F23D025A43A7E78B6A8C6A3B
:1086F000C3F3031E8B6A40F6001CC0F23D0CC4F3AA
:108700000824FD0703F0070303D00D68AD0358BF2D
:1087100094460CFB04F20EFA03F3B2FBF3F28DE77E
:108720000000000000000000010203040607080921
:1087300002040608020C081041F20002010CC4F207
:108740000202895800F01F0021FA00F000F0010039
:108750007047000041F200010020C4F202010A68E3
:1087600092030DD4020B022A0AD80A6892035CBF56
:108770000A685FEA823203D40A6804309203EED5B5
:108780000868C0F34040704741F2000200F01F0348
:108790004FF0010CC4F2020201290CFA03F14FEA76
:1087A0001040835814BF23EA0101194381507047D8
:1087B00080B541F22C0CC4F2020C5CF828EC78B1C4
:1087C0004EF4803E4CF828EC5CF828EC012814BFED
:1087D0004EF400302EF400304CF8280C0AE000BFB4
:1087E0002EF480304CF8280CDCF8040040F00070C7
:1087F000CCF80400DCF800006FF35F216FF3102069
:1088000040EA0120CCF80000DCF8000002F00F0183
:1088100020F0F00040EA0110CCF80000DCF8000085
:1088200063F30200CCF80000DCF8000040F00040E8
:10883000CCF8000080BD000041F20000C4F202004C
:10884000016841F0010101600168890709D40168EC
:1088500089075CBF01685FEA817102D401688907FA
:10886000F2D5416821F00301416000BF416811F079
:108870000C0F0BD0416811F00C0F07D0416811F0BC
:108880000C0F03D0416811F00C0FEFD101684FF6C7
:10889000FF72CFF6F262114001600021416041F6A3
:1088A0001071C1624FF4801101634FF41F018160A8
:1088B0007047000041F20401C4F202010A6860F34B
:1088C00001020A6000BF00BF00BF00BF00BF00BFC1
:1088D00000BF00BF00BF00BF00BF00BF00BF00BFA0
:1088E00000BF00BF00BF00BF00BF00BF7047000057
:1088F00041F20400C4F202000068C0F38100704736
:10890000F0B581B089B10C46054600264FF6FF77D9
:10891000701900F0B7FEADF80200BDF80200B842D1
:1089200003D0B01CC6B2A642F2D3BDF8020001B01B
:10893000F0BD000040F2CC0140F20822C2F200017A
:10894000C2F2000249681368A1FB00105B2BACBFA8
:1089500012685A22B0B5D317551A8341A8BFB0BDCB
:108960008C1A60EBE27501F071F824184D4100BFDC
:1089700001F06CF8001B71EB0500F9DBB0BD0000E5
:108980002DE9F04381B040F60004C4F2010404F57F
:1089900040684046042101F08BF804F50065284644
:1089A0004FF4805101F084F828464FF4006101F043
:1089B0007FF828464FF4806101F07AF820464FF4A2
:1089C000004101F075F804F5A0563046802101F011
:1089D0006FF83046402101F06BF820464FF480518B
:1089E00001F066F820464FF4006101F061F804F5EB
:1089F0008067384640F6F83101F05AF840F2F41931
:108A0000C2F2000999F80000DFE800F00648202CC7
:108A10001256623A6E0000BF99F801004CF63451CC
:108A2000C0F6000151F820008047404604218DE047
:108A300099F805004CF63451C0F6000151F82000B9
:108A4000804720464FF4004180E000BF99F80300C2
:108A50004CF63451C0F6000151F8200080472846FA
:108A600072E000BF99F804004CF63451C0F60001E2
:108A700051F82000804728464FF4806166E000BF2F
:108A800099F808004CF63451C0F6000151F8200066
:108A9000804720464FF4805158E000BF99F802000B
:108AA0004CF63451C0F6000151F8200080472846AA
:108AB0004FF480514AE000BF99F806004CF634515B
:108AC000C0F6000151F820008047304680213DE08B
:108AD00099F807004CF63451C0F6000151F8200017
:108AE00080473046402131E099F809004CF6345176
:108AF000C0F6000151F82000804741F2B020C2F2D8
:108B0000000090F8001199B990F8FC1001290FD1DC
:108B100090F8041161B990F81B11022904D00129C1
:108B200006D059B10FE000BF90F8FA00012805D136
:108B300038464FF4006100F0BBFF04E038464FF4C4
:108B4000006100F0B3FF20464FF4006100F0AEFF7B
:108B500099F8000039220130C1B25143490A01EBB2
:108B6000C101401A89F8000001B0BDE8F08300009F
:108B70002DE9F04740F60044C4F2010404F5006911
:108B800080464846042100F093FF04F5806528469E
:108B90004FF4805100F08CFF28464FF4006100F044
:108BA00087FF28464FF4806100F082FFA4F58067BC
:108BB00038464FF4004100F07BFF04F58056304604
:108BC000802100F075FF3046402100F071FF3846EB
:108BD0004FF4805100F06CFF38464FF4006100F014
:108BE00067FF204640F6F83100F062FF40F2F41AC9
:108BF000C2F2000A9AF80A00DFE800F006562E3AA0
:108C000020707E488C0000BF9AF80B004CF634515F
:108C1000C0F6000151F82000804741F2B020C2F2B6
:108C2000000090F81601082804D120464FF4006196
:108C300000F03CFF4846042176E000BF204640F6A5
:108C4000F81100F035FF20464FF4007100F02EFFC0
:108C500038464FF4004167E09AF80D004CF6345165
:108C6000C0F6000151F82000804728465AE000BFB6
:108C7000204640F6F81100F01BFF20464FF400712B
:108C800000F014FF28464FF480614DE020464FF479
:108C9000206100F00DFF20464FF4FC7100F006FF4C
:108CA00038464FF480513FE09AF80C004CF63451AE
:108CB000C0F6000151F82000804741F2B020C2F216
:108CC000000090F81601082804D120464FF40061F6
:108CD00000F0ECFE28464FF4805125E0204640F697
:108CE000F81100F0E5FE20464FF4007100F0DEFEC2
:108CF0003046802118E000BF20464FF4066100F0A6
:108D0000D7FE20464FF4667100F0D0FE3046402179
:108D10000AE000BF4CF63450C0F6000050F82800BE
:108D2000804738464FF4006100F0C0FE9AF80A0010
:108D300039220130C1B25143490A01EBC101401A45
:108D40008AF80A00BDE8F087026861F30002026059
:108D50007047000000210182C0E90011C0E9021142
:108D60007047000002684BF6EF731A4002600A89F0
:108D700003681A4302604A7C036802F0030223F48A
:108D8000405343EA02320260CA7B036802F00302E6
:108D900023F4406343EA822202608A7B036802F084
:108DA000030223F4407343EA022202604A7B036811
:108DB00002F0010223F0800343EAC21202600A7B40
:108DC000036862F3861303600A7C036862F3451349
:108DD00003604A8942600A6882604968C1607047DE
:108DE000016821F0010101600021016041608160A2
:108DF000C16040F2FF4100EA01020421B2F5816F37
:108E0000C4F2020105D3D208902A88BF704701F549
:108E1000806100F0FC004CF6CD420838CCF6CC4224
:108E2000A0FB02026FF0030000EA92000F220B6821
:108E300002FA00F01843086070470000B0B540F235
:108E40001014C2F200042046FCF710FA0146204636
:108E5000FCF746F940F25025C2F200052870FEF7F3
:108E6000AFFFFEF7CDFD40F26014C2F200042046D1
:108E7000FCF7FCF901462046FCF732F9687002F075
:108E800007FE02F0EDF840F2D804C2F200042046DA
:108E9000FCF7ECF901462046FCF722F9411E0929AE
:108EA000A87038D8DFE801F0061A37373737373778
:108EB000102400BF41F2B020C2F2000090F815016A
:108EC00018BB00201CE000BF41F2B020C2F200003D
:108ED00090F81501C8B9022012E000BF41F2B0209D
:108EE000C2F2000090F8150178B9012008E000BF37
:108EF00041F2B020C2F2000090F8150128B9032019
:108F000040F24811C2F20001087040F25010C2F263
:108F1000000000214171BDE8B040FEF7DBBB00005E
:108F2000FFF78CBF10B540F60044C4F201042046A0
:108F30004FF4006100F0BCFD20464FF47E71BDE8A7
:108F4000104000F0B3BD000010B540F60044C4F27C
:108F500001042046702100F0ABFD204640F6883128
:108F6000BDE8104000F0A2BD70B540F25425C2F239
:108F700000052978044669B14FF080400421FF22A2
:108F800002F0A0FE94F80401002818BF70BD002074
:108F900004E000BF94F8040110B10120287070BDF6
:108FA00094F8FC0001281DD028BB24680021C4F2DD
:108FB00070212046FBF7BEFB6E7800284ED10021C1
:108FC000C4F28C212046FBF7C3FB002846D1002EBB
:108FD000E5D14FF0804004213222BDE8704002F01C
:108FE00071BE00BF94F8000148B1012803D194F884
:108FF000100100283ED094F810010128CFD16A78E2
:1090000041F2B020C2F20000002180F81311C0F834
:10901000BC102AB994F81A01012804BF0020687016
:10902000D4F8B800FBF71FFC4AF6146241F27A4309
:10903000CEF24712C4F20203FBF78DFA0023C4F20A
:109040003E030022FBF7E0F9FBF7F4FB02464FF08A
:1090500080400421BDE8704002F034BE002E9ED155
:1090600001234FF08040042100226B70BDE8704066
:1090700002F028BE697841F2B020C2F2000001225D
:10908000012980F8132105D194F81A01012839D15A
:109090000020687025680021C4F27A312846FBF769
:1090A00049FB08B30021C4F28C212846FBF742FBA0
:1090B00000283FD10021C4F27A312846FBF748FB53
:1090C000C0BB2846FBF7CFFB49F69A1249F6991325
:1090D000C9F69912C3F6D973FBF73DFAFBF7D6FB35
:1090E000C4F8C4009EE700BF0023C4F2C8234FF0B9
:1090F00080400421FF22C4F8C430BDE8704002F073
:10910000E1BD00BF25680021C4F27A312846FBF793
:1091100011FBB8B10021C4F28C212846FBF70AFBF1
:1091200040B90021C4F27A312846FBF703FB00283E
:109130007FF435AF4FF0804004210022BDE870403D
:1091400002F0C0BD0020C4F2C820C4F8C40070BD45
:1091500040F6DA20C2F200000178002904BF0121A4
:10916000017003F0D5B90000002804BF012070474A
:10917000B0B50C4628210546FBF75EF8002085F8BF
:109180002C40A862B0BD000010B540F60044C4F207
:10919000010420464FF4096100F08AFC20464FF498
:1091A0005A71BDE8104000F081BC000042F20C0290
:1091B000C4F20202536843F0010353600180106857
:1091C000C0070DD11068400746D41068C0064FF0A4
:1091D000020058BF0320516821F00101516070471F
:1091E0004FF480111068C00700F08B801068C00732
:1091F00038D01068C0073BD01068C0073ED0106858
:10920000C00741D01068C00744D01068C00747D0DD
:109210001068C0074AD01068C0074DD01068C0075A
:1092200050D01068C00753D01068C00756D01068DF
:10923000C00759D01068C0075CD01068C0075FD065
:109240001068C00768D01039CCD10420516821F0D3
:1092500001015160704700BF0120516821F00101F8
:10926000516070470139106840074DD558E000BF84
:1092700002391068400747D552E000BF0339106833
:10928000400741D54CE000BF0439106840073BD58A
:1092900046E000BF05391068400735D540E000BF03
:1092A0000639106840072FD53AE000BF073910682B
:1092B000400729D534E000BF08391068400723D59E
:1092C0002EE000BF0939106840071DD528E000BF17
:1092D0000A391068400717D522E000BF0B39106823
:1092E000400711D51CE000BF0C39106840070BD5B2
:1092F00016E000BF0D391068400705D510E000BF2B
:109300000E39106840070BD41068C0064FF00200F9
:1093100058BF032005E000BF0F3910684007F3D5A0
:109320000120012908BF0420516821F0010151608A
:109330007047000042F21000C4F20200016841F0E0
:10934000800101607047000042F20C01C4F202018A
:109350004A6842F002024A608860486840F0400073
:1093600048600868C0070DD10868400746D40868FF
:10937000C0064FF0020058BF03204A6822F00202E4
:109380004A6070474FF080420868C00700F08B8049
:109390000868C00738D00868C0073BD00868C00715
:1093A0003ED00868C00741D00868C00744D00868AC
:1093B000C00747D00868C0074AD00868C0074DD02A
:1093C0000868C00750D00868C00753D00868C007B5
:1093D00056D00868C00759D00868C0075CD0086834
:1093E000C0075FD00868C00768D0103ACCD104200D
:1093F0004A6822F002024A60704700BF01204A68B2
:1094000022F002024A607047013A086840074DD5D1
:1094100058E000BF023A0868400747D552E000BF55
:10942000033A0868400741D54CE000BF043A086899
:1094300040073BD546E000BF053A0868400735D5F0
:1094400040E000BF063A086840072FD53AE000BF69
:10945000073A0868400729D534E000BF083A086891
:10946000400723D52EE000BF093A086840071DD504
:1094700028E000BF0A3A0868400717D522E000BF7D
:109480000B3A0868400711D51CE000BF0C3A086889
:1094900040070BD516E000BF0D3A0868400705D518
:1094A00010E000BF0E3A086840070BD40868C006F9
:1094B0004FF0020058BF032005E000BF0F3A0868D4
:1094C0004007F3D50120012A08BF04204A6822F092
:1094D00002024A6070470000FDF7FAB842F2040049
:1094E00040F22311C4F20200C4F26751016048F651
:1094F000AB11CCF6EF5101607047000042F20C0254
:10950000C4F20202536843F0010353600160106823
:10951000C0070DD11068400746D41068C0064FF050
:10952000020058BF0320516821F0010151607047CB
:109530004FF480111068C00700F08B801068C007DE
:1095400038D01068C0073BD01068C0073ED0106804
:10955000C00741D01068C00744D01068C00747D08A
:109560001068C0074AD01068C0074DD01068C00707
:1095700050D01068C00753D01068C00756D010688C
:10958000C00759D01068C0075CD01068C0075FD012
:109590001068C00768D01039CCD10420516821F080
:1095A00001015160704700BF0120516821F00101A5
:1095B000516070470139106840074DD558E000BF31
:1095C00002391068400747D552E000BF03391068E0
:1095D000400741D54CE000BF0439106840073BD537
:1095E00046E000BF05391068400735D540E000BFB0
:1095F0000639106840072FD53AE000BF07391068D8
:10960000400729D534E000BF08391068400723D54A
:109610002EE000BF0939106840071DD528E000BFC3
:109620000A391068400717D522E000BF0B391068CF
:10963000400711D51CE000BF0C39106840070BD55E
:1096400016E000BF0D391068400705D510E000BFD7
:109650000E39106840070BD41068C0064FF00200A6
:1096600058BF032005E000BF0F3910684007F3D54D
:109670000120012908BF0420516821F00101516037
:109680007047000081B00168D0F801008DF800102B
:109690008DF801009DF801009DF8001041EA0020BE
:1096A000ADF80200BDF8020001B0704710B540F6F9
:1096B0000044C4F20104204640F6C80100F0F8F965
:1096C00020464FF44C71BDE8104000F0EFB90000A7
:1096D00010B542F20044C4F20104014620460122C2
:1096E0000723FDF783FF20460121FDF7DBFF00BFC5
:1096F00020460221FDF774FF0028F9D02046BDE87E
:109700001040FDF7A3BF000080B541F20000C4F295
:109710000100202100F0D2FAB0FA80F0400980BDAB
:1097200080B540F60040C4F20100012100F0C6FA05
:10973000B0FA80F0400980BD80B540F60040C4F228
:109740000100022100F0BAFAB0FA80F0400980BDB1
:10975000B0B54FF20044C0F601042046FFF792FF77
:10976000FBF729F841F2B025C2F200052862A01CDF
:10977000FFF788FFFBF71FF8C5F8B800201DFFF7BB
:1097800081FFFBF718F8C5F89400A01DFFF77AFFDA
:10979000FBF711F8C5F8AC0004F10800FFF772FF01
:1097A000FBF709F8C5F8980004F10A00FFF76AFF13
:1097B000FBF701F8C5F8B00004F10C00FFF762FFF9
:1097C000FAF7F9FFC5F89C0004F10E00FFF75AFF05
:1097D000FAF7F1FFC5F8B40004F11000FFF752FFEB
:1097E000FAF7E9FF286304F11200FFF74BFFFAF7DD
:1097F000E2FFC5F8A00004F11400FFF743FFFAF7F9
:10980000DAFFC5F8A40004F11600FFF73BFFFAF7F2
:10981000D2FFC5F8A80004F11800FFF733FF85F860
:109820000A0104F11A00FFF72DFF85F80C0104F17D
:109830001C00FFF727FFFAF7BEFF286404F11E00A3
:10984000FFF720FFFAF7B7FF686504F12000FFF784
:1098500019FF85F80E0104F12200FFF713FF85F8C8
:10986000100104F12400FFF70DFFFAF7A4FFC5F87B
:109870008000B0BDB0B54FF60044C0F601042046EC
:10988000FFF700FFFAF797FF41F2B025C2F200059B
:109890002862A01CFFF7F6FEFAF78DFFC5F8B800A6
:1098A000201DFFF7EFFEFAF786FFC5F89400A01D14
:1098B000FFF7E8FEFAF77FFFC5F8AC0004F10800F7
:1098C000FFF7E0FEFAF777FFC5F8980004F10A0009
:1098D000FFF7D8FEFAF76FFFC5F8B00004F10C00EF
:1098E000FFF7D0FEFAF767FFC5F89C0004F10E0001
:1098F000FFF7C8FEFAF75FFFC5F8B40004F11000E7
:10990000FFF7C0FEFAF757FF286304F11200FFF7D4
:10991000B9FEFAF750FFC5F8A00004F11400FFF7F4
:10992000B1FEFAF748FFC5F8A40004F11600FFF7EE
:10993000A9FEFAF740FFC5F8A80004F11800FFF7E8
:10994000A1FE85F80A0104F11A00FFF79BFE85F8D5
:109950000C0104F11C00FFF795FEFAF72CFF2864B8
:1099600004F11E00FFF78EFEFAF725FF686504F18B
:109970002000FFF787FE85F80E0104F12200FFF7B3
:1099800081FE85F8100104F12400FFF77BFEFAF751
:1099900012FFC5F88000B0BD10B541F2B020002123
:1099A00000230022C2F20000C4F2BE3140F2000ED9
:1099B000C4F2A03340F2000CC4F2AF3200240162C2
:1099C0000163C4F2A02EC4F2482CC4F27024C0E992
:1099D0002532C0E92713C0E9292100210122C0F85E
:1099E000B8E0C0E92BC4C0F8B4E080F80A1180F8F0
:1099F0000C210164416580F80E1180F81011C0F847
:109A0000801010BD80B541F60040C4F20100202155
:109A100000F054F9B0FA80F0400980BD80B540F6FE
:109A20000000C4F20100102100F048F9B0FA80F003
:109A3000400980BD80B540F60000C4F2010020213D
:109A400000F03CF9B0FA80F0400980BD70B5EFF34A
:109A5000108672B601F034F805460C4601F0ACF8F9
:109A600050B101F02DF804460D4601F03BF8001905
:109A70006941451C41F1000440F20822C2F2000293
:109A8000D2E906014019D2E90C356141C31A71EBE4
:109A9000050305DAD2E90C0186F3108870BD00BF1A
:109AA000C2E90C0186F3108870BD00004161704767
:109AB0000161704740F200424FF6FF71C0F20012A0
:109AC000C0E90012704700008B790A88032B0BD085
:109AD00083B9497928291BD018291FD1026108218F
